:020000040800F2
:100000004047002061020008BF370008693200083D
:10001000BD370008D9100008E13F000800000000CB
:10002000000000000000000000000000A101000826
:100030008D11000800000000FD010008053A0008CD
:100040007B0200087B0200087B0200087B0200089C
:100050007B0200087B0200087B0200087B0200088C
:100060007B0200087B0200087B0200087B0200087C
:100070007B0200087B0200087B0200087B0200086C
:100080007B0200087B0200087B0200087B0200085C
:100090007B0200087B0200087B0200087B0200084C
:1000A0007B020008CD3A00087B0200087B020008B2
:1000B0007B0200087B0200087B0200087B0200082C
:1000C0007B0200087B0200087B0200087B0200081C
:1000D0007B0200087B0200087B0200087B0200080C
:1000E0007B0200087B0200087B0200087B020008FC
:1000F0007B0200087B0200087B0200087B020008EC
:100100007B0200087B0200087B0200087B020008DB
:100110007B0200087B0200087B0200087B020008CB
:10012000DD1000087B0200087B0200087B0200084B
:100130007B0200087B0200087B0200087B020008AB
:100140007B0200087B0200087B0200087B0200089B
:100150007B0200087B0200087B0200087B0200088B
:100160007B0200087B0200087B0200087B0200087B
:100170007B0200087B0200087B02000800000000F0
:100180007B0200087B020008DFF810D000F000FCC2
:10019000004800476D410008AFF300804047002051
:1001A0002C4B19680868B0E8F04F80F30988BFF35A
:1001B0006F8F4FF0000080F311887047000000003F
:1001C00008480068006880F308884FF0000080F35A
:1001D000148862B661B6BFF34F8FBFF36F8F00DF35
:1001E00000BF00BF08ED00E0DFF80C00016841F43B
:1001F00070010160704700BF88ED00E0EFF30980F7
:10020000BFF36F8F134B1A681EF0100F08BF20ED5D
:10021000108A20E9F04F106009B44FF0500080F3CD
:100220001188BFF34F8FBFF36F8F04F051FD4FF074
:10023000000080F3118809BC19680868B0E8F04F25
:100240001EF0100F08BFB0EC108A80F30988BFF3CE
:100250006F8F7047D0000020EFF3058070470000DB
:100260000648804706480047FEE7FEE7FEE7FEE750
:10027000FEE7FEE7FEE7FEE7FEE7FEE7BD3A000821
:10028000890100082DE9F05F0546002092469B4653
:1002900088460646814640241BE02846414647469C
:1002A000224600F026FA53465A46C01A914110D30E
:1002B00011461846224600F00DFA2D1A67EB010888
:1002C0004F4622460120002100F004FA17EB0009F6
:1002D0004E41201EA4F10104DFDC484631462A4687
:1002E0004346BDE8F09F40EA01039B0703D009E0C5
:1002F00008C9121F08C0042AFAD203E011F8013B12
:1003000000F8013B521EF9D27047D2B201E000F86A
:10031000012B491EFBD270470022F6E710B51346A9
:100320000A4604461946FFF7F0FF204610BD421C5E
:1003300010F8011B0029FBD1801A70470FB400B5DB
:100340008DB010A909900B9000914FF0FF300A90EA
:1003500000200C9005480690054807906A4609A8B9
:100360000F9900F0DDF90DB05DF814FB3D070008B2
:100370005B0700082DE9FF4F087883B09946FF28F6
:1003800005D0491C2D2804D00024002008E00020BE
:100390000BE00124F9E700EB800003EB4000491C6F
:1003A0000B78FF2BF7D104B140420023029314785D
:1003B00019461D462D2C01D02B2C04D1521C2D2C5E
:1003C00013D000240294AA461478FF2C0FD00A25DB
:1003D000A3FB057801FB05814FF0000C03FB0C111A
:1003E000521CE3194AEB0101EEE70124EAE78144DC
:1003F00053EA010002D019F5C87F06DA03980021FC
:10040000C0E9001107B0BDE8F08F0025AE4E2F46C1
:10041000DFF8B882184600F092FACDE90001B9F190
:10042000000002DAC9F1000400E004460023A74AF4
:100430001AEB030B42EB045A12E0E00707D02A46FE
:1004400033463846414600F099F9074688462A4621
:1004500033461046194600F091F905460E466410E1
:10046000002CEAD1DDE90001B9F1000F5A465346EC
:1004700006DA00F0F5F93A46434600F0F1F905E0F6
:1004800000F07CF93A46434600F078F9029A0AB146
:1004900081F00041039AC2E90001B3E72DE9FF4F63
:1004A0001F468DB0D7E901464FF0FF382E20454654
:1004B0004FF000090B90B9696D1C0E988847396A96
:1004C000824688470028F6D1BAF1FF3F0AD024F4CB
:1004D000D064002E11DDBAF12B0F08D0BAF12D0F28
:1004E0000BD102E0404611B08DE744F48064B96955
:1004F0006D1C0E9888478246761E6946600501D5B8
:100500002D2000E02B208DF8000001F1010B0DF1F2
:10051000200809E0B9696D1C0E98884782460F983B
:1005200044F40074761E0560002E02DDBAF1300F2F
:10053000F0D00B998A453ED144F0800406E00F9933
:10054000681CA9F1010944F400740860B9696D1CC4
:10055000761E0E98884782463028F0D02BE00B9903
:100560008A4505D1200603D444F08004761E18E0A5
:10057000504603F055FD08B30DF11301761E44F407
:1005800000748B4508D2AAF130000BF8010B20064D
:1005900007D5A9F1010003E0200602D409F101000A
:1005A0008146A00502D50F99681C0860B9696D1CC9
:1005B0000E9888478246002ED1DC53E0002E51DD94
:1005C000BAF1650F02D0BAF1450F4BD1A00549D55C
:1005D000B9696D1C24F44074761E0E9888478246D3
:1005E000002E0CDD2B2804D0BAF12D0F07D144F4D6
:1005F0008074B9696D1C0E9888478246761EE005A6
:1006000001D52D2100E02B2108F8011BCDF82C800D
:1006100021E00DF12901761E44F4007488450CD2C6
:10062000AAF1300010F0FF0088F8000002D10B9909
:10063000884509D908F1010806E0E00501D52448FC
:1006400001E042F20F708146B9696D1C0E9888472F
:1006500082460F980560002E04DD504603F0E0FC52
:100660000028D6D1F9690E988847FF208BF8000042
:1006700088F800000020069007904B466A4608A9BB
:1006800006A8FFF777FEA00502D46FF001002AE765
:1006900014F0240F0AD0E00714D1DDE906123868FF
:1006A000031D3B600068C0E900120BE0DDE90601B4
:1006B00000F051F90146E00704D13868021D3A60A4
:1006C0000068016028460EE7000014400000F03F7B
:1006D000F1D8FFFF202A04DB203A00FA02F10020C3
:1006E00070479140C2F1200320FA03F31943904070
:1006F0007047202A04DB203A21FA02F000217047DB
:1007000021FA02F3D040C2F1200291400843194679
:100710007047000002681144137801601846704762
:10072000D1600449516104491162002111611146EF
:1007300000F04EB915070008BD090008426842B133
:10074000016811F8013B23B1521EC0E9001218469E
:1007500070470121C160881E704742685AB1C36862
:10076000016843B983688B4205D0491E521CC0E919
:100770000012002070474FF0FF3070472DE9FE4F08
:1007800081EA030404F0004421F0004100944FF09A
:10079000000B23F0004350EA01045ED052EA030448
:1007A0005BD0C3F30A54C1F30A552C44A4F2F334CA
:1007B0000194A0FB0254C1F3130141F48011C3F36F
:1007C000130343F4801301FB024400FB034E840A2D
:1007D000970A44EA815447EA8357A4FB07680295C5
:1007E0008D0A05FB07854FEA932C04FB0C54270563
:1007F000029D4FEA065847EA1637B5EB08056EEB3F
:10080000070C870E920E47EA811742EA8312A7FB74
:100810000201B6EB0B0164EB00042B0D43EA0C3331
:100820005E1844EB1C50DA465146E7FB0201C5F363
:1008300013044FEA0B3343EA14534FEA0432019C8A
:1008400043EA0603A4F10C040294009CCDE900B431
:1008500000F09CFA03B0BDE8F08F00200146F9E7F4
:100860002DE9F04D81EA030404F0004B21F000452E
:1008700014464FF0000A23F0004150EA050220D050
:1008800054EA01021DD0C5F30A570246C5F313030B
:10089000C1F31300C1F30A5640F4801543F48013EA
:1008A000A7EB0608101BD64608F2FD3873EB0500CF
:1008B00002D308F1010801E092185B41B8F1000F82
:1008C00003DA00200146BDE8F08D00204FF48011CE
:1008D000064684460EE0171B73EB050705D3121B73
:1008E00063EB050306434CEA010C49084FEA30006C
:1008F00092185B4150EA0107EDD152EA030012D091
:1009000082EA040083EA0501084305D0101BAB41CD
:1009100006D20122002306E000224FF0004302E04D
:100920006FF0010253101AEB06004CEB085110EB6C
:100930000A0041EB0B01BDE8F04D00F018BA0EB50E
:1009400040F2334202920022CDE90022134600F029
:100950001DFA03B000BD01F0004330B421F00041A6
:1009600050EA010206D00A0DA2F56072C1F313012C
:10097000002A02DC30BC00207047440F44EAC10466
:10098000C100E01830BC00EBC25000F0B9B9000063
:10099000064C074D06E0E06840F0010394E80700CC
:1009A00098471034AC42F6D3FFF7F2FB40570008EB
:1009B0006057000800487047F056000810B504461C
:1009C000FFF7F8FF0068005D00F0010010BD0000B7
:1009D0002DE9F34F8BB04FF0000801F10C000C46ED
:1009E0004FF0010B46460DF1080A019062690121A2
:1009F00001989047051E2DD0252D2CD0216A8847BF
:100A0000C0B16269012101989047216A8847002896
:100A1000F7D1411E62690198904700E0761CA169F8
:100A20000B988847216A88470028F7D1E1690B981D
:100A30008847DBE7A1690B9888470746A84201D1A0
:100A4000761CD3E7E1690B9888477F1C02D1B8F187
:100A5000000F6FD047E1002762693D463946019893
:100A600090472A2804D16269012101989047012505
:100A7000DFF888926269012101989047A0F1300166
:100A80000A290AD24F45E5DC07EB870100EB410755
:100A9000303FDFD445F01005ECE7E90601D46FF0F4
:100AA00000476C280AD04C2814D0682815D06A2832
:100AB0000DD074281CD07A281AD01DE0626901215B
:100AC000019890476C2802D045F0040514E045F0E9
:100AD00002050DE045F020050AE062690121019858
:100AE0009047682802D045F0080505E045F4006508
:100AF0006269012101989047C4E9015765283DD0FA
:100B000019DC58287AD00CDC452837D004DC25289D
:100B100026D0412831D131E046282FD047282CD18A
:100B20002CE05B2877D0612828D063287CD064280B
:100B300023D15AE0D1E06F2848D008DC66281DD0C8
:100B400067281BD0692821D06E2816D127E070288D
:100B500045D0732868D0752847D078280DD14DE04E
:100B6000A1690B988847054625283FF469AFE169DC
:100B70000B9888476D1C3FF46AAFB4E023466A4681
:100B80006FF001000B99FFF789FC9FE045F04000F2
:100B90006060A80723464FF0000236D43EE0E80725
:100BA0007FF447AF2068011D21600068290501D549
:100BB00006701BE7290701D5068017E7A90703D5AB
:100BC000F117C0E9006111E706600FE745F040004A
:100BD0006060A80723464FF0080216D41EE040F6D6
:100BE0000E0125EA0100606016E045F040006060FB
:100BF000A80723464FF00A0207D40FE045F0400053
:100C00006060A80708D5234610226FF001000B99F9
:100C1000AFF300805AE007E0234610226FF0010096
:100C20000B99AFF3008051E04FF000094F464B465F
:100C3000632802D05B2807D041E02079C00601D4A8
:100C40000120A06001273AE06269012101989047E4
:100C50005E2805D14FF00109626949460198904725
:100C6000216939B900210A46534643F82120491C1D
:100C70000829FADBB0B3216969B9C11700EBD16269
:100C800053110AEB830122F01F02821A01200B6824
:100C9000904003430B6062690121019890475D28F1
:100CA000E8D1B9F1000F09D00020514651F82020B9
:100CB000D24341F82020401C0828F7DB02AB224633
:100CC00000976FF001000B99AFF3008000280CDA59
:100CD000401C08D1BBF1000F05D04FF0FF300DB024
:100CE000BDE8F08FFFE74046F9E7E90701D108F1D9
:100CF000010806444FF0000B78E60000CCCCCC0C89
:100D00000029A8BF7047401C490008BF20F001001F
:100D1000704710B4B0FA80FC00FA0CF050EA0104FD
:100D200004BF10BC704749B1CCF1200421FA04F48F
:100D300011FA0CF118BF012121430843A3EB0C0168
:100D4000CB1D4FEA00614FEA102042BF002010BCCB
:100D5000704700EBC35010440029A4BF10BC70477B
:100D6000401C490008BF20F0010010BC704710B5BE
:100D7000141E73F1000408DA401C41F100019218BE
:100D80005B411A4301D120F0010010BD2DE9F04D67
:100D900092469B4611B1B1FA81F202E0B0FA80F2BC
:100DA00020329046FFF796FC04460F4640EA0A00C0
:100DB00041EA0B0153465A46084313D0114653EA01
:100DC000010019D0C8F140025046FFF792FC0546D9
:100DD0000E46504659464246FFF77CFC084305D074
:100DE000012004E020463946BDE8F08D002005438F
:100DF00046EAE0762C4337430A986305E40AA0EB01
:100E000008000022FD0A44EA47540A3002D50020B7
:100E10000146E9E7010510196941DDE908450019B6
:100E20006941BDE8F04DA2E730B58C1810F8012BF0
:100E300012F00F0301D110F8013B120906D110F88E
:100E4000012B03E010F8015B01F8015B5B1EF9D197
:100E500001E001F8013B521EFBD1A142E6D3002084
:100E600030BD10B50146806B026C12F0500F05D0FA
:100E7000026CD20626D500F049FB10BD016C41F48E
:100E80000071016401688A6812F0405F17D1027E28
:100E9000AAB9CA6A12F4700F02D08A6852050ED439
:100EA0004A6822F020024A60016C21F480710164DA
:100EB000016CC90403D4016C41F00101016400F02C
:100EC00023FB10BD806BC26CBDE810400846104784
:100ED00010B5806B40210164416C41F00401416414
:100EE00000F014FB10BD10B5806B00F00EFB10BDC0
:100EF000464910B54A6822F440324A604A6843685D
:100F00001A434A6001684A6822F480724A600168A4
:100F10004A68036942EA03224A6001684A6822F08B
:100F200040724A6001684A6883681A434A600168EF
:100F30008A6822F400628A6001688A68C3681A437A
:100F40008A60816A6FF07062D14201688A6822F01B
:100F500070628A6001688A680CD0836A1A438A606A
:100F600001688A6822F040528A6001688A68C36A10
:100F70001A4301E022F040528A6001688A6822F038
:100F800002028A6001688A68037E42EA43028A603C
:100F900090F82010002901684A680FD042F40062DE
:100FA0004A6001684A6822F460424A6001684A68FF
:100FB000174C436A04EB43331A4301E022F4006206
:100FC0004A600168CA6A22F47002CA620168CA6A89
:100FD000838B104C04EB03531A43CA6201688A687E
:100FE00022F400728A6001688A6890F8303042EA20
:100FF00043228A6001688A6822F480628A600168FC
:101000008A68406942EA8020886010BD0023014060
:1010100000E0FFFF0000F0FF70B5054627482DED0A
:10102000028B0188408800EE101AB8EE400A00EEEC
:10103000900A234CF8EE608AD4ED010A03F098FC84
:10104000F0EE400AB0EE680AB0EE608AD4ED020A13
:1010500003F08EFCDFED1B0A9FED1D2A78EE601A6F
:10106000DFED190A30EE422A81EEA01ADFED171AE1
:10107000C2EE202A21EE211A62EEA11A85EC021A94
:10108000D4ED030A31EE602ADFED120AC2EE202A07
:10109000C5ED022A94ED042A31EEC22AC2EE202ABE
:1010A000C5ED032A84ED018A84ED020A84ED031A5A
:1010B000C4ED041ABDEC028B70BD000000000020DE
:1010C0001C00002000803B4500F07F450000B44339
:1010D00000A02A450AD7A33BFEE70000014800F024
:1010E00039BB0000EC03002001681823CAB2103A93
:1010F000B2FBF3F2054B6FF30901032A9B5CC36556
:1011000000D9091D81650846704700004C5600084B
:1011100010B5014600208B698A6A4FF0C07453B144
:10112000B3F5005F15D072B1012A0CD0022A0AD0A3
:10113000032A09D104E01AB1012A06D0022A03D1F8
:10114000C96AC90100D5012010BDC96AA142FAD0FF
:1011500010BD002AF7D0012AF2D0022AF3D0032AC8
:10116000F3D010BD30B50468256825F480252560CE
:10117000046863608368402B036803D0996000684B
:10118000C26030BD9A600068C16030BD704772B601
:101190004FF4FA74402002F099F8204600F04CFC1D
:1011A000F8E70000002229B101291AD002291BD03A
:1011B0004FF440720E490B6823F440730B600B68C8
:1011C00013430B600A6822F078020A600A6802235F
:1011D00003EBC00002430A60086840F480300860F6
:1011E00070474FF48072E5E74FF40072E2E70000C9
:1011F000103C02401348016889050FD5016821F4AD
:1012000000710160016841F400610160016821F42E
:1012100000610160016841F40071016001684905E5
:101220000FD5016821F480610160016841F48051AB
:101230000160016821F480510160016841F480611E
:1012400001607047003C024008490A6822F440727D
:101250000A600A6842F004020A600A684FF48033A8
:1012600043EA002002430A6070470000103C02403D
:10127000064A136823F440731360136813601368FD
:1012800043F001031360017070470000103C0240FE
:10129000094910B50C6824F440740C600C6844F4DF
:1012A00040740C600C6844F001040C600260BFF3F1
:1012B0006F8F436010BD0000103C0240074A136866
:1012C00023F440731360136843F48073136013684E
:1012D00043F001031360018070470000103C02409E
:1012E000074A136823F440731360136843F40073D0
:1012F0001360136843F0010313600160704700003E
:10130000103C024017490868C206174805D5C26953
:1013100042F01002C26110220A600A68920605D5E6
:10132000C26942F00802C26120220A600A685206BD
:1013300005D5C26942F00402C26140220A600A680F
:10134000120605D5C26942F00202C26180220A601B
:101350000A68920705D5C26942F02002C2610220E4
:10136000086070470C3C0240A000002070B5114995
:1013700004460020C86100F0D5FD06460E4D09E088
:10138000601C07D024B100F0CDFD801BA04201D924
:10139000032070BD2868C003F2D42868C00701D0BC
:1013A00001202860286810F0F200F2D0FFF7AAFFB1
:1013B000012070BDA00000200C3C024078B5002444
:1013C000009490F83C20012A19D0012280F83C209A
:1013D0000A6807230568092A13D9EE680A3A02EB5E
:1013E000420293409E43EE600B788A680A3B03EB0F
:1013F00043039A400368DD682A43DA6010E0022064
:1014000078BD2E6902EB420293409E432E610B7819
:101410008A6803EB43039A4003681D692A431A61F3
:101420004A681F23072A13D205686E6B521E02EB0F
:10143000820293409E436E630B790A885B1E92B2D0
:1014400003EB83039A4003685D6B2A435A6327E0EA
:1014500005680D2A12D22E6BD21F02EB8202934036
:101460009E432E630B790A88DB1F92B203EB830342
:101470009A4003681D6B2A431A6311E0EE6A0D3A25
:1014800002EB820293409E43EE620B790A880D3B89
:1014900092B203EB83039A400368DD6A2A43DA625F
:1014A000164B0568144A9D4206D10D68122D03D1D2
:1014B000556845F48005556005689D4218D10B6854
:1014C000102B01D0112B13D1536843F40003536048
:1014D000096810290CD10A490A4A0968B1FBF2F1DE
:1014E00001EB8101490000E0491E00910029FBD178
:1014F00080F83C40002078BD0023014000200140DE
:10150000CC00002040420F0070477047704770B514
:1015100004004FF0000503D0206C002610B107E056
:10152000012070BD204600F01DF8666484F83C6020
:10153000206CC00610D4206C20F4885040F00200CB
:1015400020642046FFF7D4FC6664206C20F0020083
:1015500040F00100206400E0012584F83C6028464A
:1015600070BD000070B586B0064614216846FEF7CF
:10157000D3FE1D493068884234D11C4800250168DB
:1015800041F480710160006800F480700590174894
:101590001438016841F0010101600068694600F0FB
:1015A00001000590142000900320CDE901051048AA
:1015B00000F0B2FB104C0F48C4E900050015A5600F
:1015C000C4E90350400060618000A0614011C4E99B
:1015D00007052046656200F08DF908B1FFF7D7FDD9
:1015E000B463A66306B070BD0020014044380240D9
:1015F0000000024010640240EC030020F8B50E46E3
:1016000000210446009190F83C0013460A46012848
:1016100007D0012084F83C0020688568ED0702D0DF
:1016200011E00220F8BD856845F00105856040485D
:10163000404D0068B0FBF5F000EB400000E0401EBC
:1016400000900028FBD120688568ED0503D58568EA
:1016500025F48075856020688568ED075DD0226C73
:1016600040F20165AA4342F480722264406840055A
:1016700005D5206C20F4005040F480502064206C8C
:10168000C00404D5606C20F00600606400E0616472
:1016900084F83C10A16B2948274DC863A16B2848EA
:1016A0000864A16B2748C86421686FF022000860B5
:1016B0002068416841F0806141602068816841F4A0
:1016C00080718160216832464C31A06B00F07CF95A
:1016D000024668681C49C006206806D0884224D1AA
:1016E000816811F0405F13D01FE08842F8D0174B9B
:1016F000984203D1D1F80433DB06F1D0144B984261
:1017000013D1D1F8041301F01F011029E8D30CE024
:10171000816841F08041816007E0206C40F010005A
:101720002064606C40F0010060641046F8BD000069
:10173000CC00002040420F0000230140630E00084F
:10174000E70E0008D10E00080020014000210140F2
:10175000002201402DE9F84304464FF00009CDF87E
:10176000009063484FF41651A56D0068B0FBF1F787
:101770002E6894F85C10082000FA01F131420FD075
:1017800021680A6852070BD50A6822F004020A6031
:1017900094F85C108840A860606D40F001006065BE
:1017A00094F85C104FF0010808FA01F0304208D0BC
:1017B00021684969090604D5A860606D40F00200FF
:1017C000606594F85C1004208840304208D021689D
:1017D0000968890704D5A860606D40F00400606561
:1017E00094F85C1010208840304218D021680968B5
:1017F000090714D5A86020680168490304D500686A
:10180000000308D5A16C07E00168C90503D401688D
:1018100021F008010160216C09B12046884794F845
:101820005C1020208840304231D021680968C90608
:101830002DD5A86094F8350005282068016806D0E9
:10184000490347D5006800031DD4616C1CE021F0FA
:10185000160101602068416921F080014161206C1E
:1018600008B9A06C20B12068016821F0080101606E
:1018700094F85C103F208840A86084F8358084F894
:101880003490216D1FE0E16B09B120468847606DFF
:1018900000282BD0606DC00714D0052084F83500D7
:1018A0002068016821F0010101600098401C00904F
:1018B000B84203D820680068C007F6D184F83580A4
:1018C00084F83490E16C002910D001B02046BDE8C6
:1018D000F04308470168C905D5D4016821F010011B
:1018E000016084F8358084F83490CCE7BDE8F88353
:1018F000CC0000202DE9F041044600F013FB064621
:101900005CB1022084F83500002584F8345020684A
:10191000016821F0010101600DE00120BDE8F081C6
:1019200000F000FB801B052805D9202060650320FE
:1019300084F83500F2E720680068C007F0D122681B
:10194000116820480140D4E901031843D4E9033663
:101950003343184363691843A3691843E369184381
:10196000236A18430843616A042903D1D4E90B139D
:1019700019430843106020684069666A20F0070137
:1019800030460E43012704280CD1A06A0643E06AC2
:1019900040B12046FFF7BCFB20B14020606584F8D1
:1019A0003570BAE7206846612046FFF79DFB94F842
:1019B0005C203F2191408160656584F8357000208E
:1019C000ACE700003F8010F02DE9F0410446866D41
:1019D00090F83400002501280DD0012084F834004F
:1019E00094F835700020012F07D084F834000225C8
:1019F0002846BDE8F0810220FBE7022784F8357015
:101A000060652046FFF7AEFB94F85C103F208840ED
:101A1000B0602068016841F016010160206C20B1BF
:101A20002068016841F0080101602068016841F008
:101A300001010160DCE7000070B5044600F072FAB5
:101A40000546601C02D004480078044400F06AFA9D
:101A5000401BA042FAD370BDC00000202DE9F04722
:101A6000044622480F46017E01290AD00121804602
:101A700001764CF250394846FFF778FC020003D05B
:101A80002FE00220BDE8F0874FF0FF30386020687B
:101A9000174D012801D0A6681CE0207C6168FFF783
:101AA000D3FB4846FFF762FC0246286820F004009A
:101AB000286014E0217C3046FFF774FB4846FFF7AE
:101AC00055FC0200286820F07A00286001D03E60B2
:101AD00005E0761CD4E902100844B042EAD8FFF7CA
:101AE00089FB002188F818101046CBE7A0000020E1
:101AF000103C02400348016841F0004101600020B1
:101B000070470000103C02402DE9F0471B4E05468F
:101B10001446307E1F468946012808D001203076C1
:101B20004CF250384046FFF721FC18B114E0022077
:101B3000BDE8F0879DB1012D16D0022D19D02246A7
:101B40003B464846FFF7A4FB4046FFF70FFC0C4915
:101B50000A6822F001020A6000213176E8E7E1B26A
:101B60004846FFF785FBEFE7A1B24846FFF7A6FB23
:101B7000EAE721464846FFF7B3FBE5E7A00000206F
:101B8000103C0240074900200A68002A09DA054A89
:101B9000054B0C3A1360054B13600968002900DA05
:101BA00001207047103C024023016745AB89EFCD0F
:101BB0002DE9F04F0022DFF838B101264FF00F0970
:101BC00006FA02F401EA0403A3427DD122F00307DE
:101BD0005F44D7F8088895074FEA157C09FA0CFA94
:101BE0000AEA0805DFF80C81404502D14FF00008F1
:101BF00032E0DFF80481404502D14FF001082BE0CC
:101C0000DFF8F880404502D14FF0020824E0DFF809
:101C1000F080404502D14FF003081DE0DFF8E4807A
:101C2000404502D14FF0040816E0DFF8DC80404563
:101C300002D14FF005080FE0DFF8D080404502D117
:101C40004FF0060808E0DFF8C880404502D14FF0A9
:101C5000070801E04FF0080808FA0CF8A84522D15F
:101C60002C4DD5F800C02CEA030CC5F800C005F1D6
:101C7000040CDCF800509D43CCF80050254D0C3589
:101C8000D5F800C02CEA030CC5F800C02D1FD5F80C
:101C900000C02CEA030CC5F800C0D7F8085825EAA4
:101CA0000A05C7F80858056857000323BB409D4341
:101CB0000560D50800EB8505D5F820C057074FEA29
:101CC000D76809FA08F700E00CE02CEA070CC5F821
:101CD00020C0C5689D43C5604568A54345608468CC
:101CE0009C438460521C102AFFF46AAFBDE8F08F59
:101CF00000300140000002400004024000080240A1
:101D0000000C024000100240001402400018024083
:101D1000001C0240003C01402DE9F84FDFF8BCA157
:101D20000022012503264FF00F090AF1040BAAF146
:101D3000040E00BF0B6805FA02F42340A34270D1E1
:101D40000F7907F00307012F01D0022F16D1876802
:101D50004FEA420806FA08FC27EA0C07D1F80CC043
:101D60000CFA08FC4CEA070CC0F808C04768A74307
:101D70000C79C4F3001494403C4344600C79E44370
:101D8000A4070AD0C4684FEA420C06FA0CF7BC4319
:101D90008F6807FA0CF72743C7600C7904F0030437
:101DA000022C12D1D40800EB840CDCF82040570739
:101DB000FF0E09FA07F824EA0804D1F8108008FA9F
:101DC00007F848EA0408CCF8208004684FEA420C7F
:101DD00006FA0CF7BC430F7907F0030707FA0CF774
:101DE000274307604C6814F4403F70D03C4C276890
:101DF00047F480472760246822F0030704F48044F6
:101E00000094384C07EB040CDCF8084897074FEABD
:101E1000177809FA08F7BC43334FB84202D10027BC
:101E200024E054E0314FB84201D101271EE0304F89
:101E3000B84201D1022719E02E4FB84201D1032741
:101E400014E02D4FB84201D104270FE02B4FB842C8
:101E500001D105270AE02A4FB84201D1062705E043
:101E6000284FB84201D1072700E0082707FA08F7F2
:101E70002743CCF80878DAF800405746D1F804C078
:101E80009C435FEACC2C00D51C433C60DBF800404F
:101E90005F46D1F804C09C435FEA8C2C00D51C43FC
:101EA0003C60DEF800407746D1F804C09C435FEA0E
:101EB0008C3C00D51C433C60084F083F3C68D1F87F
:101EC00004C09C435FEACC3C00D51C433C60521CE0
:101ED000102AFFF42FAFBDE8F88F0000083C014046
:101EE000443802400030014000000240000402403B
:101EF00000080240000C02400010024000140240A2
:101F000000180240001C0240426921EA02030A4014
:101F100043EA0241816170470AB181617047090457
:101F2000FBE700000148806870470000C000002007
:101F300070B5040025D094F83D00002520B984F840
:101F40003C50204600F0B8F8242084F83D0020687A
:101F5000016821F0010101602068016841F400413D
:101F600001602068016821F40041016000F058FA26
:101F70004D4A6168914201D84C4900E04C49884281
:101F800001D2012070BD4B492368B0FBF1F15E68BE
:101F900026F03F060E435E606368934206D94FF415
:101FA000967359434FF47A73B1FBF3F12368491CDC
:101FB0001E6A26F03F06314319626168914210D8CB
:101FC0004900401EB0FBF1F2521CC2F30B02042A7E
:101FD00001D2042022E0B0FBF1F0401CC0F30B0062
:101FE0001CE0A268F2B301EBC10303EB0116431E30
:101FF000B3FBF6F35B1C43F480431B0549D092B35B
:1020000001EBC10202EB0111401EB0FBF1F0401CDC
:10201000C0F30B0040F4804040F400402168CA69DE
:102020004CF6FF739A431043C861D4E9071001438B
:102030002068026822F0C00211430160D4E9030164
:1020400001432068826848F2FF339A43114381605C
:10205000D4E9050108432168CA6822F0FF02104351
:10206000C86001E00EE016E02068016841F001015F
:1020700001602564202084F83D00256384F83E50EB
:10208000002070BD01EB4106431EB3FBF6F35B1C61
:10209000B3E70120C2E701EB4101401EB0FBF1F0C4
:1020A000401CC0F30B00B7E7A086010080841E002F
:1020B00000093D0040420F0010B586B004461421CF
:1020C0006846FEF729F914492068884221D113484F
:1020D000016841F0020101600068694600F00200F9
:1020E00005904FF440700090122001900120029062
:1020F00003200390042004900948FFF70DFE0748D1
:102100001030016841F400110160006800F4001013
:10211000059006B010BD0000005400403038024069
:1021200000040240024881680278114481607047CF
:10213000C00000200B4810B5016841F40071016037
:10214000016841F480610160016841F480710160BF
:10215000032000F099F80F2000F006F800F04AF88C
:10216000002010BD003C024030B505461C4887B039
:102170000024016841F001010160006806A900F037
:102180000100009001A800F02BF900F059F9154961
:102190004000B0FBF1F11548134A491E026040F2BD
:1021A000E732C0E90324C0E90114846100F088FB30
:1021B000040012D10D4800F0C5FB04000DD1192018
:1021C00000F034F8102D07D200222946192000F023
:1021D0003BF80748056000E0012407B0204630BD09
:1021E0004438024040420F00000001400806002031
:1021F000C40000200C4882B0016841F480410160B5
:10220000006800F4804000900748001F016841F01A
:10221000805101600068002200F0805000900F2182
:10222000901E02B000F010B844380240002809DBCC
:1022300000F01F02012191404009800000F1E020E0
:10224000C0F8001170470000F0B40E4B1B680C463C
:10225000C3F30223C3F10705042D00D90425191D7A
:10226000072901D2002300E0DB1E012606FA05F152
:10227000491E214099409E40761E16403143F0BCD5
:1022800001F0AFBE0CED00E0064900F0070208685F
:102290004FF6FF03184040EA0220034A104308604B
:1022A000704700000CED00E00000FA052DE9F04752
:1022B0000E46050065D0DFF81481D8F80000F7B2AB
:1022C00000F00700B04207D288F80070D8F800008C
:1022D00000F00700B04254D128683D4C810712D568
:1022E000400703D5206840F4E050206028780007BC
:1022F00003D5206840F4604020602068A96820F081
:10230000F000084320602878C0072DD03049686865
:102310000839012812D0022813D0032811D00968E7
:10232000890700292DDA216821F00301014321608A
:10233000FFF7F8FD814641F2883A0EE0096889030B
:10234000EFE709688901ECE7FFF7ECFDA0EB090175
:10235000514502D90320BDE8F0872068696800F084
:102360000C00B0EB810FEFD1D8F80010404601F01F
:102370000701B14207D90770006800F00700B042BA
:1023800001D00120E7E72878400705D52068E968F3
:1023900020F4E050084320602878000706D5206824
:1023A000296920F4604040EAC100206000F058F83C
:1023B0002168084AC1F30311515CC840064908600E
:1023C00006480068FFF7D0FE0020C4E7003C02404A
:1023D0000838024054560008CC000020C4000020F9
:1023E0000F2202600C4A136803F003034360136872
:1023F00003F0F0038360136803F4E053C3601268D2
:102400004FF4E05303EAD20202610448006800F08E
:10241000070008607047000008380240003C024096
:102420000448054900680968044AC1F38221515CE7
:10243000C8407047CC0000200838024064560008AD
:102440000448054900680968044AC1F34231515CF7
:10245000C8407047CC00002008380240645600088D
:10246000154810B5006810F00C02144813D0411044
:10247000042A0FD0082A0ED10F4C241F226823688B
:1024800002F03F025B0207D52068C0F38810A0FB72
:10249000010106E0084610BD2168C1F38811A1FBC7
:1024A00000010023FDF7EEFE2168C1F30141491C44
:1024B0004900B0FBF1F010BD083802400024F400E0
:1024C0002DE9F84F04006ED02078DFF84C93C00758
:1024D000A9F104054AD009F104000168C1F38101A2
:1024E000012908D00068C0F3810002280AD1D9F878
:1024F0000000400206D52868800337D560680028B0
:10250000E1D033E06068B0F5803F10D0B0F5A02F87
:10251000286810D020F480302860286820F48020BB
:1025200028606068A8B1FFF7FDFC06460DE028684A
:1025300040F48030F4E740F480202860F7E700BFE3
:10254000FFF7F0FC801B642873D828688003F7D558
:102550000CE0FFF7E7FC064605E000BFFFF7E2FCF2
:10256000801B6428F0D828688003F7D42078DFF82F
:10257000AC8280074FF0000A3ED5A748001D0168D5
:1025800011F00C0F08D00068C0F3810002280BD1B5
:10259000D9F80000400207D42868800716D5E06803
:1025A000012800D112E033E1E068B8B10120C8F899
:1025B0000000FFF7B7FC064605E000BFFFF7B2FCDE
:1025C000801B0228C0D828688007F7D528682169B1
:1025D00020F0F80040EAC10028600DE0C8F800A033
:1025E000FFF7A0FC064604E0FFF79CFC801B0228D6
:1025F0001FD828688007F7D42078000722D5864F97
:1026000087486169703771B101210160FFF78AFC69
:10261000064604E0FFF786FC801B022809D83868CC
:102620008007F7D50EE0C0F800A0FFF77BFC064658
:1026300005E082E0FFF776FC801B02287DD8386831
:102640008007F7D42078400768D5DFF8CCB10027A1
:102650000BF13C0BDBF80000C0000BD4DBF80010E2
:1026600041F08051CBF80010DBF80000012700F0AA
:10267000805000906B4E3068C00510D4306840F434
:1026800080703060FFF74EFC009005E0FFF74AFCD9
:102690000099401A022850D83068C005F6D55E4E21
:1026A000A0686C3601280FD00528306810D020F0C3
:1026B00001003060306820F004003060A068B8B1DC
:1026C000FFF730FC00900FE0306840F00100F4E7C5
:1026D00040F004003060F7E7FFF724FC0099411A4E
:1026E00041F28830814266D830688007F4D50EE028
:1026F000FFF718FC009007E0FFF714FC0099411A5F
:1027000041F28830814256D830688007F4D42FB126
:10271000DBF8001021F08051CBF80010A069C8B39D
:102720003D49091D0968C1F3810102294AD00228E7
:10273000504607D0C8F8600000E03CE0FFF7F2FB2D
:1027400004463BE04746C8F86000FFF7EBFB06464F
:1027500005E000BFFFF7E6FB801B02282BD82868A6
:102760008001F7D4D4E907010843A16A2E4A490839
:1027700002EB0141626A41EA8211084394F82C108D
:1027800040EA0161C9F8001001203866FFF7CAFB72
:10279000044606E03EE000BFFFF7C4FB001B022832
:1027A00009D828688001F7D534E000BFFFF7BAFBED
:1027B000001B022802D90320BDE8F88F2868800199
:1027C000F4D427E00128F7D0D9F80000E26900F43A
:1027D000800191421CD1226A00F03F01914217D141
:1027E00047F6C071626A0140B1EB821F10D1A26A44
:1027F0004FF0FF3300F4403103EB5202B1EB024FD4
:1028000006D194F82C1000F07060B0EB016F01D08D
:102810000120D1E70020CFE7043802400000474202
:10282000800E4742007000400000FFFF7047704775
:1028300070B590F83C20012A32D0012480F83C4049
:10284000022280F83D2003685A689D6822F07006D5
:102850000A6832435A60134B02689A4214D0B2F1AC
:10286000804F11D0104B9A420ED0104B9A420BD091
:102870000F4B9A4208D00F4B9A4205D00E4B9A420A
:1028800002D00E4B9A4204D1496825F080031943C7
:10289000916080F83D40002180F83C10084670BDF2
:1028A000022070BD0000014000040040000800400C
:1028B000000C0040000401400040014000180040AE
:1028C00010B5040003D094F83D0010B107E00120DA
:1028D00010BD002084F83C00204600F01FF80220C4
:1028E00084F83D00211D206801F0F6F8012084F8ED
:1028F000460084F83E0084F83F0084F8400084F8E5
:10290000410084F8420084F8430084F8440084F8CD
:10291000450084F83D00002010BD000008B50068A7
:102920000649884208D10648016841F00201016069
:10293000006800F00200009008BD000000040040A4
:102940004038024090F83D10012901D00120704725
:10295000022180F83D100168CA6842F00102CA6095
:1029600000681149884214D0B0F1804F11D00F494E
:1029700088420ED00E4988420BD00E49884208D0BA
:102980000D49884205D00D49884202D00C49884241
:1029900004D1816801F00701062903D0016841F0E4
:1029A0000101016000207047000001400004004068
:1029B00000080040000C00400004014000400140BD
:1029C0000018004070B5044690F83C00002501282E
:1029D00017D0012684F83C60022084F83D0020686E
:1029E000826822F0770222F47F42826008685028D1
:1029F00038D00DDC20284FD005DC90B3102811D141
:102A00004AE0022070BD302846D040280AD13BE081
:102A100060282FD070280DD0B0F5805F03D0B0F5BE
:102A2000005F12D0012584F83D60002084F83C004E
:102A3000284670BDCB68D1E90121206801F0C1F8BA
:102A40002068816841F0770109E0CB68D1E9012174
:102A5000206801F0B6F82068816841F48041816007
:102A6000E1E719E0CA684968206801F07FF9502160
:102A7000206806E0CA684968206801F088F960218A
:102A8000206801F0A8F8CEE7CA684968206801F01C
:102A90006DF940212068F4E7226801461046F0E70E
:102AA0002DE9F0410D46040003D094F83D0018B123
:102AB00008E00120BDE8F081002084F83C002046B9
:102AC00000F040F8022084F83D002068816844F25C
:102AD000070291438160211D206800F0FDFF2268FC
:102AE00090689169166A2B68AF69034340F203301E
:102AF000814341EA0721A868EF6908434FF6FC418A
:102B00008843E96840EA0720014328692F6A0001E9
:102B100040EA0730084369686D6926F0AA0646EA6C
:102B20000515294393602268906154F8460B0162B1
:102B3000012004F81F09E0752076E0762077A07563
:102B40000020B7E710B586B0044614216846FDF7AB
:102B5000E3FB2068B0F1804F1FD1114800210268CB
:102B600042F001020260006800F0010005900C488C
:102B70001038026842F001020260006800F00100B3
:102B80000590032000900220CDE901010120CDE94C
:102B9000031069460348FFF7BFF806B010BD0000F8
:102BA000403802400000024070B590F83E60044694
:102BB00090F83F5090F8423090F84320022021B125
:102BC00004290ED0012E1BD114E0012E18D1012BA7
:102BD00016D184F83E0084F84200012200212068CA
:102BE00020E0012D0CD1012A0AD184F83F0084F89D
:102BF000430014E0012D03D1012B01D1012A01D0A2
:102C0000012070BD84F83E0084F83F0084F8420043
:102C100084F8430001220021206800F0C5FF012252
:102C20000421206800F0C0FF2068016841F0010124
:102C30000160002070BD70472DE9F0410446006836
:102C4000C66805694FF00007A90713D5B10711D56C
:102C5000F91E0161012020772068806980072046E5
:102C600002D0FFF7E8FF04E000F0A6F8204600F0ED
:102C700038F92777680716D5700714D521686FF0E3
:102C800004000861022020772068806910F4407FEA
:102C9000204602D0FFF7CFFF04E000F08DF8204679
:102CA00000F01FF92777280715D5300713D52168BD
:102CB0006FF008000861042020772068C069800751
:102CC000204602D0FFF7B7FF04E000F075F8204679
:102CD00000F007F92777E80616D5F00614D5216825
:102CE0006FF010000861082020772068C06910F498
:102CF000407F204602D0FFF79EFF04E000F05CF822
:102D0000204600F0EEF82777E80708D0F00706D055
:102D100021686FF001000861204600F047F928069D
:102D200008D5300606D521686FF08000086120467E
:102D3000FFF77CFD680608D5700606D521686FF0A0
:102D400040000861204600F03BF9A8060AD5B0060D
:102D500008D521686FF0200008612046BDE8F041E9
:102D6000FFF765BDBDE8F08110B586B004461421BB
:102D70006846FDF7D1FA0D492068884214D10C4805
:102D80000021026842F001020260006800F00100C8
:102D90000590C02000900220CDE90101CDE903108B
:102DA00069460448FEF7B8FF06B010BD00040040B5
:102DB0003038024000000240704770B5044690F879
:102DC0003C0000260D4601280FD0012084F83C006D
:102DD0006AB1042A1DD0082A2FD00C2A3FD0012620
:102DE000002084F83C00304670BD022070BD206891
:102DF00000F0FAFE2068816941F0080181612068D5
:102E0000816921F004018161206881692A69114387
:102E100011E0206800F018FF2068816941F400612A
:102E200081612068816921F4806181612068816904
:102E30002A6941EA02218161D2E7206800F03AFF65
:102E40002068C16941F00801C1612068C16921F0B1
:102E50000401C1612068C1692A69114311E0206839
:102E600000F05CFF2068C16941F40061C161206825
:102E7000C16921F48061C1612068C1692A6941EAA0
:102E80000221C161ACE710B5040003D094F83D0005
:102E900010B107E0012010BD002084F83C0020465E
:102EA00000F01EF8022084F83D00211D206800F08B
:102EB00013FE012084F8460084F83E0084F83F00A9
:102EC00084F8400084F8410084F8420084F843000C
:102ED00084F8440084F8450084F83D00002010BDCB
:102EE0007047704710B50446022249B104290ED03C
:102EF000082913D094F84100012816D0012010BDF4
:102F000094F83E000128F9D184F83E200FE094F8AF
:102F10003F000128F2D184F83F2008E094F84000F7
:102F20000128EBD184F8402001E084F841200122FF
:102F3000206800F039FE16492068164A884201D000
:102F4000904203D1436C43F40043436420688842B9
:102F500013D0B0F1804F10D00F4988420DD00F49E7
:102F600088420AD00E49884207D0904205D00D49C8
:102F7000884202D00C49884204D1816801F00701DF
:102F8000062903D0016841F001010160002010BD55
:102F9000000001400004014000040040000800401F
:102FA000000C004000400140001800400068034948
:102FB000884201D1FFF7B6B8704700000000014019
:102FC000704770B5040004D094F84100002510B19A
:102FD00006E0012070BD84F84050204600F024F83F
:102FE000242084F841002068C16821F40051C160A8
:102FF000204600F005FF2068016921F4904101613D
:103000002068416921F02A0141612068C16841F4CA
:103010000051C1606564202084F8410084F84200BA
:103020006563002070BD0000F0B587B00446142130
:103030006846FDF771F9314A2668002130480223BD
:103040000324072596421AD12D4A1432166846F0F9
:1030500010061660126802F010020592026842F033
:1030600001020260006802AA00F00100059082E8F7
:1030700032006002CDE90003694622481CE0204A84
:10308000214F1032BE421BD1166846F4003616603E
:10309000126802F400320592026842F008020260EF
:1030A000006802AE00F00800059086E8320060205B
:1030B000CDE9000369461548FEF72EFE07B0F0BDC6
:1030C000134FBE42FAD1166846F480261660126885
:1030D00002F480220592026842F002020260006857
:1030E00002AE00F00200059086E832004FF4406026
:1030F000CDE9000369460748DEE700000010014003
:10310000303802400000024000440040000C024001
:1031100000480040000402402DE9F84F044690F8B2
:1031200042009A4616460D46202802D00220BDE8ED
:10313000F88FB5B1AEB100206064222184F842104E
:103140002063FEF7EFFEA6858146E685A0684FF472
:1031500080582027404501D1206920B12E46002506
:1031600029E00120E3E7002625E04B46002220214C
:103170002046CDF800A000F0C9FE18B184F84270D6
:103180000320D4E726B1A06840451AD038B108E042
:1031900020684068C0F3080025F8020B08E02069A9
:1031A00078B12068406800F07F0000BF06F8010B8E
:1031B000E08D401EE085E08D0028D6D184F8427075
:1031C000B5E720684068F1E72DE9F843044690F838
:1031D0004100984616460D46202802D00220BDE840
:1031E000F88385B17EB100206064212084F841001D
:1031F000FEF798FEA6848146E684A0682027B0F5F5
:10320000805F02D003E00120E9E7206910B12E467B
:1032100000250EE000260CE08021204600F076FE1E
:10322000A8B9C6B116F8010B21684860E08C401EB1
:10323000E084E08C4B464FF00002CDF8008000287F
:10324000EAD14FF04001204600F060FE40B184F822
:1032500041700320C3E735F8020BC0F30800E3E731
:1032600084F841700020BAE7FEE70000094BB0F592
:10327000807F09D0B0F5805F06D0402808D1014694
:1032800000220548FEF748BE014600221846F9E72D
:1032900070470000000C024000080240094BB0F5E6
:1032A000807F09D0B0F5805F06D0402808D1014664
:1032B00001220548FEF730BE014601221846F9E713
:1032C00070470000000C024000080240084AB0F5B8
:1032D000807F09D0B0F5805F06D0402807D1014635
:1032E000044800BFFEF710BE01461046FAE77047DB
:1032F000000C0240000802407FB500211B480091ED
:1033000001910291184A0391026001244FF4803226
:103310000461C0E90121047680F82010144AC0E954
:103320000A210225C561C16080F830404461FEF782
:10333000EEF808B1FDF72BFF07200095CDE901401D
:1033400069460A48FEF73AF808B1FDF720FF042065
:10335000CDE9000569460548FEF730F8002801D0A0
:10336000FDF715FF7FBD000000200140A4030020F1
:103370000100000F094808B5016841F480010160AF
:103380000068002200F48000009005213820FEF73C
:103390005BFFBDE808403820FEF748BF30380240E8
:1033A00010B5AAB000221021012001F05BFD2E49CA
:1033B000086008B9FDF7EBFE00220421052001F0AA
:1033C00051FD2A49086008B9FDF7E1FE00221021ED
:1033D000012001F047FD2649086008B9FDF7D7FE36
:1033E0001C2224496846FCF77EFF0021684600F055
:1033F000B9FF214C1F491C2220601C3107A8FCF793
:1034000072FF002107A800F0ADFF1A4960601C227E
:1034100038310EA8FCF767FF00210EA800F0A2FFCC
:103420001449A0601C22543115A8FCF75CFF002150
:1034300015A800F097FF0F49E0601C2270311CA80E
:10344000FCF751FF00211CA800F08CFF0949206106
:103450001C228C3123A8FCF746FF002123A800F092
:1034600081FF60612AB010BD1C0000209000002088
:1034700094000020A455000804000020F0B587B097
:1034800014216846FCF748FF2A480024016841F0EF
:1034900080010160016801F080010591016841F03F
:1034A00001010160016801F001010591016841F02D
:1034B00002010160016801F002010591016841F01B
:1034C00008010160016801F008010591016841F0FF
:1034D000040101600068184E00F004004FF48855A4
:1034E0000590002229463046FEF716FD134F0022B4
:1034F00040213846FEF710FD00950125CDE9015425
:10350000694630460394FEF707FC40200090CDE961
:103510000154694638460394FEF7FEFB2802CDE9C4
:1035200000040220029069463846FEF7F5FB07B01A
:10353000F0BD000030380240000C0240000802409C
:103540002DE9F04186B014216846FCF7E5FE2748D6
:103550000024016841F00201016000684FF44078E6
:1035600000F00200224E05900122454641463046B9
:10357000FEF7D2FC01200095CDE901040320039061
:1035800069463046FEF7C8FB0025B71500223946CC
:103590003046FEF7C1FC0120FEF74EFA0122394603
:1035A0003046FEF7B9FC0120FEF746FA6D1CEDB27D
:1035B000092DEBD341463046FEF7FAFA0E480D4985
:1035C00001600E49C0E901144FF48041C0E9034194
:1035D00044618461C4610462FEF7AAFC002801D042
:1035E000FDF7D5FD06B0BDE8F0810000303802409F
:1035F00000040240005400404C040020A08601005A
:1036000010B58CB024216846FCF786FE00241548CE
:1036100009944FF080410A94C0E90014611EC0E98A
:103620000241046184610320CDE900040120CDE959
:1036300002040494CDE905400794694609480894BA
:10364000FFF72EFA08B1FDF7A2FD099409A9054874
:103650000A94FFF7EDF8002801D0FDF798FD0CB0B3
:1036600010BD0000A004002010B58EB00024079407
:10367000089409940A940B941C2168460C94FCF756
:103680004BFE2348214901600121C0E9011440F6A5
:103690003301C0E9031480218161FFF711F908B1FA
:1036A000FDF775FD4FF48050079007A91848FFF704
:1036B00089F908B1FDF76BFD1548FFF7E4FB08B188
:1036C000FDF765FD0B940BA911480C94FFF7B0F8BA
:1036D00008B1FDF75CFD6020CDE9000402940022F2
:1036E00069460B480494FFF768FB08B1FDF74FFDEE
:1036F000042269460648FFF760FB08B1FDF747FD65
:103700000348FFF731FB0EB010BD0000000400407D
:10371000E80400200C4810B50A4901604FF4165126
:103720004160002181600C22C160C0E90412816106
:10373000C161FFF746FC002803D0BDE81040FDF74B
:1037400026BD10BD00100140300500200C4810B50A
:103750000A4901604FF4E1314160002181600C228F
:10376000C160C0E904128161C161FFF72AFC002831
:1037700003D0BDE81040FDF70ABD10BD0044004075
:10378000780500200C4810B50A4901604FF4E1317A
:103790004160002181600C22C160C0E90412816196
:1037A000C161FFF70EFC002803D0BDE81040FDF713
:1037B000EEBC10BD00480040C0050020FEE7FEE75B
:1037C0001B4E1C4C1C4D8CB0642206A9706801F085
:1037D0005FFC0128F8D101F077F99DED060A84ED30
:1037E000030A9DED070A84ED040A9DED080A84EDA5
:1037F000050A9DED090A85ED030A9DED0A0A85ED8E
:10380000040A9DED0B0A85ED050A01F07DF900F033
:103810004DF8182209A16846FCF765FD6846FCF7DB
:1038200086FD82B2642369460A48FFF7CDFCCBE7E8
:1038300098000020380000206400002050494420F7
:103840007570646174656420262073617665640D0B
:103850000A0000003005002000B587B06846182235
:103860000F49FCF740FD0F489DED000A80ED030A6B
:103870009DED010A80ED040A9DED020A80ED050A26
:1038800009489DED030A80ED030A9DED040A80EDD1
:10389000040A9DED050A80ED050A07B000BD000091
:1038A00000F00708380000206400002070B52048B0
:1038B0008CB005AD90ED030A8DED050A90ED040A7C
:1038C0008DED060A90ED050A1A488DED070A90ED78
:1038D000030A8DED080A90ED040A8DED090A90EDBA
:1038E000050A8DED0A0AFEF74DF914216846FCF72A
:1038F00013FD00200B9000900B20029001200390FC
:10390000022004900BA96846FEF7A8F80A4E00248E
:1039100006EB840155F8242000230220FEF7F4F87A
:10392000641CA4B2062CF3D3FEF7E4F80CB070BD0F
:10393000380000206400002000F0070890ED062AFF
:103940002D4A80ED072A90EC020A30EE601A80EDD5
:10395000061A90ED040A10EE101A914204DC10EEE3
:10396000101A264A914204D9D0ED080A70EE810A55
:1039700001E0DFED230AC0ED080AD0ED030AD0ED27
:10398000081A60EE810A31EE421A90ED052A40EEE7
:10399000210A42EE010AC0ED020A90ED091AF4EE86
:1039A000C10AF1EE10FA01DD80ED021A90ED022A53
:1039B000D0ED0A0AB4EEE02AF1EE10FA01D2C0ED21
:1039C000020AB5EEC00AF1EE10FA13D081EE002A19
:1039D000B4EEE12AF1EE10FA01D280ED082A80EE71
:1039E000801A90ED080AB4EEC01AF1EE10FA01DD6B
:1039F00080ED081A704700006F12833A6F1283BA85
:103A00000000000010B5502080F31188BFF34F8FE5
:103A1000BFF36F8F01F078FC18B104494FF080506C
:103A20000860002080F3118810BD000004ED00E064
:103A300030B593B030216846FCF76EFC14210CA819
:103A4000FCF76AFC1B480025016841F080510160C9
:103A5000006800F0805011901748016841F48041DF
:103A600001600068022400F4804011900120009061
:103A7000000401908001CDE9064008AA0420A82195
:103A800082E813000B906846FEF71AFD70B90CA986
:103A90000F2081E831004FF4A0500F90E002109009
:103AA00005210CA8FEF702FC002801D0FDF76FFBF2
:103AB00013B030BD40380240007000400248016839
:103AC00041F470010160704788ED00E00148FFF7A4
:103AD000B3B8000008060020F0B50268274B284D57
:103AE000284E294F294C4FF0804C984209D0604510
:103AF00007D0A84205D0B04203D0B84201D0A042BE
:103B000004D122F0700E4A6842EA0E0298421BD09D
:103B1000604519D0A84217D0B04215D0B84213D092
:103B2000A04211D01A4DA8420ED01A4DA8420BD077
:103B3000194DA84208D0194DA84205D0184DA842E9
:103B400002D0184DA84203D122F44075CA682A4316
:103B50004D6922F080022A438D68C5620D68856236
:103B6000984201D0A04201D109690163016841F086
:103B700004010160012141610260F0BD00000140CB
:103B80000004004000080040000C00400004014018
:103B9000004001400044014000480140001800403E
:103BA000001C00400020004010B501F01F0301215F
:103BB000046A99408C430462016A9A40114301628D
:103BC00010BD10B5846842EA032224F47F440A43FE
:103BD0002243826010BD826822F070020A4342F0E4
:103BE0000701816070470000F0B5036A026A22F0A5
:103BF0000102026242688469124E24F073050C6867
:103C00002C4323F002058B682B430D4DA84201D0B5
:103C1000B04205D123F00807CB683B4323F00403EF
:103C2000A84201D0B04205D14D6922F4407215433B
:103C30008A692A4342608461496841630362F0BD36
:103C40000000014000040140F0B5026A036A23F05D
:103C500010030362436884690D6824F4E64444EA6F
:103C600005248D6822F0200242EA05120F4D104E05
:103C7000A84201D0B04206D1CF6822F0800242EAC9
:103C8000071222F04002A84201D0B04207D14D698C
:103C900023F4406343EA85038D6943EA8503436067
:103CA0008461496881630262F0BD00000000014048
:103CB00000040140F0B5026A036A23F480730362D2
:103CC0004368C46922F4007224F073050C68124E34
:103CD0002C438D6842EA05220E4DA84201D0B04225
:103CE00006D1CF6822F4006242EA072222F4806201
:103CF000A84201D0B04207D14D6923F4405343EAB2
:103D000005138D6943EA05134360C4614968C163C3
:103D10000262F0BD000001400004014030B5046AB9
:103D2000026A22F4805202624268C3690D6823F479
:103D3000E64343EA05238D6824F4005444EA05343D
:103D4000084DA84202D0084DA84204D14D6922F482
:103D5000804242EA85124260C3614968016404629C
:103D600030BD0000000001400004014010B5036AAE
:103D7000046A24F001040462846924F0F00444EA33
:103D8000021423F00A020A438461026210BD10B5D6
:103D9000036A046A24F010040462846923F0A00317
:103DA00024F4704444EA023243EA01118261016260
:103DB00010BD01680C3151E8002F22F4907241E8E7
:103DC0000023002BF5D10168143151E8002F22F0B7
:103DD000010241E80023002BF5D1016B012909D133
:103DE00001680C3151E8002F22F0100241E8002355
:103DF000002BF5D1202180F842100021016370478B
:103E000070B5044600680169E26821F4405111432D
:103E100001612169A068E2690843616911430843AF
:103E20002168CA6849F20C639A430243CA60206859
:103E30004169A26921F4407111434161314920680F
:103E4000884202D03049884202D1FEF7F9FA01E0F7
:103E5000FEF7E6FAE2690023192164253226B2F55D
:103E6000004F626828D0A0FB0101930F9200FCF77D
:103E700009FA0146B0FBF5F06FF01802504301EB70
:103E8000800006EB0010B0FBF5F000F0F002B1FB93
:103E9000F5F002EB0012B1FBF5F06FF01803584398
:103EA00001EB800006EB0010B0FBF5F000F00F0016
:103EB00021681044886070BDA0FB010192185B412D
:103EC000FCF7E0F90146B0FBF5F00201B1FBF5F0BB
:103ED0006FF01803584301EB800006EBC000B0FB05
:103EE000F5F000F0F80002EB4002B1FBF5F05843AA
:103EF00001EB800006EBC000B0FBF5F000F007001E
:103F0000D6E7000000100140001401402DE9F843FD
:103F1000984617460D460446089E24E0701C22D0A1
:103F2000FEF700F8A0EB0800B0421AD8CEB1206826
:103F3000C168490717D5802D15D0402D13D00168D1
:103F4000C94309070FD40168002540680090204646
:103F5000FFF72FFF0820606484F840500120BDE87F
:103F6000F8830320FBE72068006835EA000004D0EE
:103F70000020B842D2D00020F1E70120F9E700008C
:103F80001CB5FFF769FC00221821012000F06AFF30
:103F90000F49486098B100210220CDE900010B468D
:103FA000C2010CA10D4801F049F901280FD05020A1
:103FB00080F31188BFF34F8FBFF36F8FFEE7502060
:103FC00080F31188BFF34F8FBFF36F8FFEE71CBDE7
:103FD000980000205049445570640000C137000823
:103FE000FEE70907090E002804DB00F1E02080F855
:103FF0000014704700F00F0000F1E02080F8141D5D
:10400000704702E008C8121F08C1002AFAD17047A1
:104010007047002001E001C1121F002AFBD1704748
:1040200030380A2801D20120704700207047000074
:104030001FB5074C6846FCF7EFFF022300226946D4
:10404000206800F075FF052000F0B6FDF2E70000E3
:104050001C0000203F4C3D4FDFF8F4808AB04FF445
:10406000807A4FF48056002504F108090F2201A937
:10407000386801F00DF8012850461ED1FFF7F6F818
:1040800035480F2205A9006801F002F8012813D174
:104090003046FFF7EBF831490298884202D83049A0
:1040A00088420DDD2570ADF8005000231A466946A0
:1040B000D8F8000000F03CFF3046FFF7EFF8D5E7F6
:1040C0003046FFF7D3F86088401C80B26080A1883A
:1040D000491CA18005281FD365809DED020A1D485B
:1040E0004B4689ED010A0830FFF728FC93ED020AE0
:1040F000BDEEC00A10EE100A00B2ADF800000028B4
:104100004FF040001ED0FFF7B1F800231A46694671
:10411000D8F8000000F00CFFA0881928A6D3A580CD
:104120009DED050A0B4BB8EEC00A3433184683EDFB
:10413000010AFFF703FC93ED020AB1EE400A89ED94
:10414000000A93E7FFF7AAF8DFE700001C00002051
:10415000900000203000002094000020000070C279
:10416000000070427047002070470000FDF7E2FF3A
:10417000FFF75EFCFFF782F9FFF7FCF8FFF740FA64
:10418000FFF772FAFFF7C6FAFFF7B6F8FFF7D8F9AC
:10419000FFF7DCFAFFF7F6FA022205490548FDF7BA
:1041A0002DFAFFF7EDFEFFF7FBF800F0D6F8FEE77B
:1041B00000000020A403002001460020842900D034
:1041C000C81C704710B500210A48FEF78BFE042179
:1041D0000848FEF787FE0748002401684C63006822
:1041E00084633C210448FEF7DFFC03480068446216
:1041F00010BD0000E8040020A004002008B5FFF76F
:10420000E1FF074D4FF0FF3422466946286800F071
:104210003FFF0128F8D1BDF9000000F067F8F3E78F
:10422000900000202DED028B00252B4F9FED2B8A57
:10423000DFED2B8ADFF8AC9084B02C462E464FF48D
:10424000C3683868406A0090FDF76CFE00990290E0
:1042500091FBF8F208FB1210002801DA00F5C360A8
:1042600000EE100AB8EEC00A20EE080AC0EE280AD6
:10427000CDED030A029A101B0A281BD34B1B00EE3C
:10428000103ADFED190A4FF4C363B8EEC00A584381
:104290000D46144660EE200A00EE100AB8EE401AF1
:1042A00080EE810A8DED010ABDEEC00A10EE100A03
:1042B00006B205E000EE106AB8EEC00A8DED010A04
:1042C000022300226946D9F8040000F031FE0520DF
:1042D00000F03CF8B5E70000A00400200000B44363
:1042E0000000C3449000002000606A4770B5164B80
:1042F00000214FF47A721D6840F6330400280DDA6D
:104300004FF2CD76A0F2262010FB06F090FBF2F0E3
:1043100080B2A04200D92046686311E00FDD40F66C
:10432000330600F2262010FB06F090FBF2F082B27A
:10433000A24200D9224669631868826370BD69632E
:104340001868816370BD0000E804002010B500B952
:10435000012000F031FC002010BD10B500F078FC09
:10436000002010BD7FB50D4604464169B0F9080034
:1043700081B1A16971B1FFF71FFFD4E905128DE882
:104380000700D4E900102B46226900F084FF039057
:1043900004B070BDFFF710FF03A9CDE90001208A2A
:1043A0002B4682B2D4E9001000F048FF012801D06A
:1043B0000020EDE70398EBE72DE9F041184C0F469C
:1043C0000546E6682068001D00F02CFB38B920681F
:1043D00090F82C1001208840216981432161681CDC
:1043E00007D137B12168BDE8F0410E48091D00F042
:1043F0005FBB20683544B5424560216805D2206C1A
:10440000BDE8F041091D00F03BBBE06B091D00F069
:1044100037FBA06A854200D2A562BDE8F0810000AA
:10442000D00000202C0700202DE9F041054600F0C7
:104430004BFB2E4CA068401CA06020682C4F10B194
:10444000606940B32DE02560A068012829D10026CD
:1044500006EB860007EB800000F004FB761C072EBD
:10446000F6D323488C3000F0FDFA2148A03000F04C
:10447000F9FA1F48B43000F0F5FA1D48C83000F0D2
:10448000F1FA1B48DC3000F0EDFA19488C30E0639B
:104490001430206405E02068E96AC06A884200D8C8
:1044A0002560606A401C6062A864E96A0120226994
:1044B00088401043206101EB810007EB8000291D3B
:1044C00000F0F6FA00F020FB606900280CD02068AC
:1044D000E96AC06A884207D206494FF080500860F6
:1044E000BFF34F8FBFF36F8FBDE8F081D000002086
:1044F0005006002004ED00E030B4026C0B46002AA8
:104500000BD0C1681144C1608468A14201D3016825
:10451000C16030BC1846FBF7E6BE30BC70472DE9E1
:10452000F041856B174604460026026C82B1C7B184
:10453000E068FBF7D8FEE168206C091AE1602268A8
:10454000914202D2A168081AE060022F16D017E04B
:104550002068A8B9A06800F03DFF06460020A060D2
:104560000EE06068FBF7BFFE216C60680844606085
:10457000A168884204D32068606001E005B16D1E27
:104580006D1CA5633046BDE8F08110B5044690F877
:10459000610058B101280CD002280FD0502080F3C0
:1045A0001188BFF34F8FBFF36F8FFEE7206B00F0D2
:1045B000BFFA2046BDE8104000F0BABA10BD0000B6
:1045C00010484FF47051420706D0C01D0D4920F02D
:1045D0000700411AC1F570510B4A00230144C2E99A
:1045E00000030839183A21F0070111604B600B6095
:1045F0000B1AC0E9001393604FF000405360506104
:1046000070470000400700202C010020144E154C7C
:10461000A6F1C8074FF08058DFF84C9012E000BFB9
:1046200000F052FAF068C568281D00F0FBF9A06898
:10463000401EA0606068401E606000F065FA284679
:10464000FFF7A3FF60680028EAD138680128F9D98C
:10465000C9F80080BFF34F8FBFF36F8FF2E7000000
:1046600018070020D000002004ED00E070B51D46C2
:10467000049C51B1C4F80020C4E90F010121204677
:1046800000F012FC84F84C5070BD2460F4E72DE972
:10469000F05F8846DDE90B941546834691009A4603
:1046A0000A9EA522206BFBF730FE6FF00301206B02
:1046B00001EB8501084420F00707780707D0502058
:1046C00080F31188BFF34F8FBFF36F8FFEE7002594
:1046D0006764B8F1000F0ED00020221818F80010FF
:1046E00082F8341018F8001011B1401C1028F4D3CF
:1046F00084F8435001E084F83450072E00D3062696
:10470000E662C4E91465201D00F0B7F904F1180051
:1047100000F0B3F92461C6F107006462A061A565E9
:10472000E56584F8605052465946384600F00AF96B
:104730002060B9F1000F01D0C9F80040BDE8F09F3A
:1047400030B5114900E011460A688242FBD34B683C
:104750005C18844203D140681844486008464368A6
:104760001C18944209D1084C183C2468A24209D074
:1047700052681A4442600A6812680260814200D09E
:10478000086030BD0460F9E72C01002010B5044634
:1047900000F09AF9A06B28B15FF0000400F0B4F9C2
:1047A000204610BD0124F9E70648C16B096829B10C
:1047B000C16BC968C9684968816270474FF0FF31B1
:1047C000FAE70000D000002008484068401C4FF085
:1047D000500080F3118804D0BFF34F8FBFF36F8F69
:1047E000FEE7BFF34F8FBFF36F8FFEE7340100206A
:1047F0002DE9F041044600F067F994F9455004F1C1
:10480000240609E0606A48B1304600F02FFE08B186
:1048100000F000FA6D1E6DB2002DF3DC4FF0FF3694
:1048200084F8456000F070F900F04EF994F94450B6
:1048300004F1100709E0206948B1384600F016FE7F
:1048400008B100F0E7F96D1E6DB2002DF3DC84F8BD
:104850004460BDE8F04100F057B900002DE9F04197
:104860000546002700F02CFA354E306808B9FFF7EE
:10487000A7FE7069054216D1ADB1083568070ED0A4
:1048800005F00700C0F108000544680707D0502074
:1048900080F31188BFF34F8FBFF36F8FFEE715B121
:1048A0007068854202D900F01BFE39E024481830B8
:1048B00001460C6801E020460C466168A94202D21C
:1048C00021680029F7D131688C42ECD00768216853
:1048D000016060680837411B10290ED96019420732
:1048E00007D0502080F31188BFF34F8FBFF36F8F35
:1048F000FEE741606560FFF723FF61687068401A5A
:104900007060B268904200D2B060706901430020CC
:10491000C4E90001F068401CF06000F0E1FD0FB94F
:1049200000F09EF8780707D0502080F31188BFF37D
:104930004F8FBFF36F8FFEE73846BDE8F081000070
:104940001401002010B5031F4FF080741C601B1F62
:1049500021F001011960191F044B0B6014390A6022
:10496000091F6FF0020244380A6010BDC9470008F1
:104970009FED051A60EE810A9FED041A40EE010AD0
:10498000B0EE600A704700006666663FCDCCCC3D55
:104990009CB01B4D002404AE642301221AA91948BF
:1049A000FEF7BAFB38BB9DF868000A2807D00D282F
:1049B00021D03F2C1ED23055641CE4B21BE00020F5
:1049C0003055BCB16868A8B119A818A917AA16ABC8
:1049D000CDE90032CDE9021015AB14AA0AA104A852
:1049E000FBF7ACFC062805D10223002214A9686855
:1049F00000F09EFA00240120FFF7A8FCCCE700009D
:104A000098000020C005002025662C25662C256610
:104A10002C25662C25662C25660000000120FFF75A
:104A200095FCFBE7D0E9013201699A60D0E90123E6
:104A30005A604A68824201D182684A60002202615B
:104A40000868401E0860086870470000034B036058
:104A500003F164000860802010607047400100206E
:104A60007047704700F108014FF0FF32C0E90112B2
:104A7000C160016100210160704700210161704740
:104A800030B50B685A1C02D000F1080202E002693E
:104A900004E02246546825689D42FAD953684B6069
:104AA00099608A60516008610168491C016030BDED
:104AB00042684A6093688B609368596091600861AE
:104AC0000168491C01607047502080F31188BFF3D2
:104AD0004F8FBFF36F8F0A494868401C4860012818
:104AE0000CD10848006810F0FF0F07D0502080F369
:104AF0001188BFF34F8FBFF36F8FFEE77047000041
:104B00003401002004ED00E00849486828B1401E47
:104B1000486001D180F311887047502080F31188DC
:104B2000BFF34F8FBFF36F8FFEE70000340100200B
:104B300070B500282AD0164DA0F108046068696994
:104B4000084207D1502080F31188BFF34F8FBFF385
:104B50006F8FFEE722683AB1502080F31188BFF3CF
:104B60004F8FBFF36F8FFEE78843606000F0A8F8B7
:104B700060686968084468602046FFF7E1FD2869BD
:104B8000401C2861BDE8704000F0AABC70BD000068
:104B9000140100204FF0E0200021016181610549EE
:104BA0004FF47A720968B1FBF2F1491E41610721A5
:104BB00001617047CC00002010B5020014D00F48EE
:104BC000006B38B1502080F31188BFF34F8FBFF3D3
:104BD0006F8FFEE700F074F800211046FFF7ECFB42
:104BE00000F07EFC002807D105494FF08050086096
:104BF000BFF34F8FBFF36F8F10BD0000D0000020B8
:104C000004ED00E002490A6A0260C9684160704729
:104C1000D000002001490120C8617047D000002069
:104C200010B50C4650B1094909681831FFF728FF43
:104C30002046BDE810400121FFF7BEBB502080F3A5
:104C40001188BFF34F8FBFF36F8FFEE7D0000020B6
:104C500010B586B00024039405AA04A903A80494FF
:104C6000FFF7F4FEDDE903010094CDE90110002314
:104C70000FA11148059A00F00EFB10490028C862E8
:104C800013D0502080F31188BFF34F8FBFF36F8F85
:104C90004FF0FF30886201204861CC60FFF762FA74
:104CA00006B0BDE8104000F063B806B010BD0000CB
:104CB00049444C45000000000D460008D00000208B
:104CC0000248016B491C016370470000D0000020BE
:104CD00010B5254C206B10B10120E06110BD002003
:104CE000E061FFF740FAA063626B904204D921684B
:104CF000821A8B6D1A448A65606320684FF0A53173
:104D0000006B02688A4208D142688A4205D18268F3
:104D10008A4202D1C068884204D0216820683431B8
:104D2000FFF79FFE20691149B0FA80F0C0F11F0023
:104D300000EB800051F820206AB101EB800000F107
:104D40000802416849684160914201D14968416067
:104D5000C868206010BD502080F31188BFF34F8FCA
:104D6000BFF36F8FFEE70000D00000205006002048
:104D70001CB537480168374A914207D1502080F36B
:104D80001188BFF34F8FBFF36F8FFEE70068314983
:104D9000491E884207D1502080F31188BFF34F8FFE
:104DA000BFF36F8FFEE72C4908780190FF20087051
:104DB00008788DF800009DF800009DF8002000F0B4
:104DC000F000904207D0502080F31188BFF34F8F3E
:104DD000BFF36F8FFEE79DF80000204C00F05000FD
:104DE00020700720A06005E09DF8002052008DF89B
:104DF0000020401E9DF800201206F5D4A060032874
:104E000007D0502080F31188BFF34F8FBFF36F8F0F
:104E1000FEE74FF44070A060019808700C48203005
:104E2000016841F470010160016841F07041016066
:104E3000FFF7B0FE00206060FBF7D6F90848016874
:104E400041F040410160FBF7BBF900201CBD0000B0
:104E500000ED00E071C20F4100E400E034010020E9
:104E600034EF00E0F8B517460E46050013D005FBF9
:104E700006F05030FFF7F2FC04000AD0002084F85E
:104E8000460004F150023B46314628460094FFF7A5
:104E9000EDFB2046F8BD502080F31188BFF34F8F03
:104EA000BFF36F8FFEE7000070B50D46040025D0FC
:104EB000FFF70AFED4E90F20216802FB0011A16070
:104EC0000021A163216861600A46D4E90F01401EF8
:104ED00000FB0121E16021464FF0FF3001F8440F53
:104EE000487004F110008DB1FFF7BCFD04F12400FF
:104EF000FFF7B8FDFFF708FE012070BD502080F3DA
:104F00001188BFF34F8FBFF36F8FFEE72169002930
:104F1000F0D000F0ABFA0028ECD004494FF08050FC
:104F20000860BFF34F8FBFF36F8FE3E704ED00E03E
:104F30002DE9FF4782B01D468A464FF00008040065
:104F400003D0BAF1000F08D011E0502080F311888F
:104F5000BFF34F8FBFF36F8FFEE7206C38B1502047
:104F600080F31188BFF34F8FBFF36F8FFEE7022DE1
:104F70000AD1E06B012807D0502080F31188BFF3DD
:104F80004F8FBFF36F8FFEE700F0B0F93F4F4FF048
:104F900000094FF0805648B9049838B1502080F38A
:104FA0001188BFF34F8FBFF36F8FFEE7FFF78CFDC4
:104FB000A06BE16B884207D3022D05D00498D0B1D5
:104FC000B8F1000F1AD01EE02A4651462046FFF7DE
:104FD000A6FA616A19B104F1240000F047FA20B181
:104FE0003E60BFF34F8FBFF36F8FFFF78DFD012042
:104FF00006B0BDE8F087FFF787FD22E06846FFF7BF
:1050000001FE4FF00108FFF77FFDFFF759FEFFF7A4
:105010005BFD94F94400401C01D184F8449094F95C
:105020004500401C01D184F84590FFF76DFD04A9AF
:10503000684600F0C9F830B12046FFF7D9FB00F010
:105040004FFA0020D4E7FFF73FFDA06BE16B8842E9
:1050500013D1FFF759FD04F110000499FFF7E0FDAB
:105060002046FFF7C5FB00F03BFA00289ED13E60CA
:10507000BFF34F8FBFF36F8F98E7FFF745FD2046D3
:10508000FFF7B6FB00F02CFA90E7000004ED00E01B
:105090002DE9F747002683B08A46040003D0BAF111
:1050A000000F08D011E0502080F31188BFF34F8F1C
:1050B000BFF36F8FFEE7206C38B1502080F311886A
:1050C000BFF34F8FBFF36F8FFEE700F00FF9DFF8EC
:1050D000F4804FF000094FF0805748B9059838B177
:1050E000502080F31188BFF34F8FBFF36F8FFEE71F
:1050F000FFF7EAFCA56BC5B151462046FFF7FCF966
:105100006D1EA563206950B104F1100000F0AEF9E6
:1051100028B1C8F80070BFF34F8FBFF36F8FFFF750
:10512000F3FC012006B0BDE8F087059808B11EB178
:1051300006E0FFF7E9FC27E06846FFF763FD01267C
:10514000FFF7E2FCFFF7BCFDFFF7BEFC94F944005B
:10515000401C01D184F8449094F94500401C01D1D1
:1051600084F84590FFF7D0FC05A9684600F02CF8BC
:10517000002820460AD0FFF73BFB00F0B1F920469B
:10518000FFF704FB0028B3D00020CBE7FFF7FEFABF
:1051900090B104F124000599FFF742FD2046FFF786
:1051A00027FB00F09DF90028A2D1C8F80070BFF3DA
:1051B0004F8FBFF36F8F9BE72046FFF719FB00F07F
:1051C0008FF995E704ED00E02DE9F0410C4605006C
:1051D00011D0C4B1FFF778FC174BDA686E6820680D
:1051E000911B471C17D02F681B6A9F4219D096420B
:1051F00017D8012410E0502080F31188BFF34F8F9F
:10520000BFF36F8FFEE7502080F31188BFF34F8FFD
:10521000BFF36F8FFEE70024FFF776FC2046BDE862
:10522000F081884205D9401A20602846FFF7EAFC41
:10523000F1E700202060DCE7D00000202DE9FF5FCF
:105240008346DDE90E87994616468A469000FFF7A9
:1052500005FB05001CD06420FFF700FB040014D000
:105260000020256384F86100CDE90240CDE9008784
:105270004B46324651465846FFF709FA2046FFF79B
:10528000D3F8012004B0BDE8F09F2846FFF750FC9A
:105290004FF0FF30F6E7F0B585B0DDE90B640A9D0D
:1052A000A6B1DCB1642700972663022684F861600A
:1052B000002604AFCDE90246CDE90057FFF7E7F934
:1052C0002046FFF7B1F8049805B0F0BD502080F3F8
:1052D0001188BFF34F8FBFF36F8FFEE7502080F32D
:1052E0001188BFF34F8FBFF36F8FFEE70548416909
:1052F00019B1006B18B100207047012070470220DF
:1053000070470000D00000202DE9F0412F4C00260E
:10531000206B28B1A069401CA0613046BDE8F08137
:10532000E5686D1CE56013D1E06B006838B1502072
:1053300080F31188BFF34F8FBFF36F8FFEE7E06BF1
:10534000216CE1632064206A401C2062FFF72CFA84
:10535000A06ADFF87C80854209D3E06B0068A0B1C9
:10536000E06BC068C7687868854211D2A062206887
:10537000C06A00EB800158F82100012800D90126FD
:10538000E0690028C9D00126C7E74FF0FF30EDE7FC
:10539000381DFFF747FBB86A18B107F11800FFF78F
:1053A00041FBF96A0120226988401043206101EB2A
:1053B000810108EB8100391DFFF77AFBF86A21684B
:1053C000C96A8842C9D30126C7E70000D00000207F
:1053D0005006002070B504004FF0000140D0214D70
:1053E0002868844207D0502080F31188BFF34F8F84
:1053F000BFF36F8FFEE7606D38B1401E6065236DAF
:10540000E26A9A422CD040B12AE0502080F3118801
:10541000BFF34F8FBFF36F8FFEE7201DFFF702FB37
:10542000114A012150B9E06A00EB800352F82330A1
:1054300023B92B6901FA00F083432B61206DE062F0
:10544000C0F10700A061E06A2B698140194329611E
:1054500000EB800002EB8000211DFFF729FB0121FA
:10546000084670BDD0000020500600202DE9F04114
:10547000C068C468ACB104F118000746FFF7D2FA5F
:10548000154D286B0126A0B139461448FFF710FBD3
:10549000E06A2968C96A88421CD90120EE61BDE82A
:1054A000F081502080F31188BFF34F8FBFF36F8FCF
:1054B000FEE7201DFFF7B6FAE16A2A6906FA01F055
:1054C0001043286101EB81000449B43901EB8000ED
:1054D000211DDBE70020E2E7D000002004070020C8
:1054E0002DE9F0472C4D00242746286B38B1FFF7F3
:1054F000EBFA286B401E2863286B40B146E0502031
:1055000080F31188BFF34F8FBFF36F8FFEE7A96859
:10551000224E0120D1B3A6F1B40980463068E8B12B
:10552000F068C46804F11800FFF77CFA201DFFF74B
:1055300079FAE06A2A6908FA00F11143296100EB5F
:10554000800109EB8100211DFFF7B2FAE06A2968AA
:10555000C96A8842E2D3C5F81C80DFE70CB1FFF7C7
:1055600023F9AC6944B14646FFF7CEFE00B1EE61C7
:10557000641EF9D10020A861E86938B10849012703
:1055800038070860BFF34F8FBFF36F8FFFF7BCFA88
:105590003846BDE8F0870000D00000200407002056
:1055A00004ED00E0345700081D4A0008FDFF00002C
:1055B000000000008000000000000000000000006B
:1055C0002857000891490008010000000000000071
:1055D0000001000000000000000000000857000863
:1055E000314000080200000000000000000100003F
:1055F0000000000000000000FC560008FD4100080B
:105600000200000000000000000100000000000097
:1056100000000000185700082542000802000000A2
:105620000000000000010000000000000000000079
:10563000F45600085540000801000000000000007A
:10564000000200000000000000000000000610162C
:105650000006101600000000000000000102030414
:105660000607080900000000010203040040404052
:105670004040404040404141414141404040404025
:1056800040404040404040404040404040050202D1
:105690000202020202020202020202020220202090
:1056A00020202020202020020202020202029090EC
:1056B00090909090101010101010101010101010EA
:1056C000101010101010101002020202020288883E
:1056D000888888880808080808080808080808084A
:1056E0000808080808080808020202024000000032
:1056F0006D56000842616C616E6365004D6F746F9A
:10570000725F72756E000000416E676C655F736555
:105710006E736F72000000004D6F746F725F73657F
:105720006E736F72000000005573617274335F72A4
:10573000780000005573617274335F747800000064
:10574000605700080000002040010000280E0008FB
:105750009457000840010020004600001240000855
:1057600001310217015240F5CDCC4C3F337A44F35E
:105770007AC4FB803F0AD7A33CCDCCCC3D337042EA
:10578000032170C202100142019210036A24F455F1
:04579000AAAAAAAA6D
:040000050800018965
:00000001FF
