:020000040800F2
:10000000B8460020610200088F230008191F00086D
:100010008D23000849050008412800080000000061
:10002000000000000000000000000000A101000826
:10003000FD05000800000000FD01000899230008EC
:100040007B0200087B0200087B0200087B0200089C
:100050007B0200087B0200087B0200087B0200088C
:100060007B0200087B0200087B0200087B0200087C
:100070007B0200087B0200087B0200087B0200086C
:100080007B0200087B0200087B0200087B0200085C
:100090007B0200087B0200087B0200087B0200084C
:1000A0007B020008692400087B0200087B0200082C
:1000B0007B0200087B0200087B0200087B0200082C
:1000C0007B0200087B0200087B0200087B0200081C
:1000D0007B0200087B0200087B0200087B0200080C
:1000E0007B0200087B0200087B0200087B020008FC
:1000F0007B0200087B0200087B0200087B020008EC
:100100007B0200087B0200087B0200087B020008DB
:100110007B0200087B0200087B0200087B020008CB
:100120004D0500087B0200087B0200087B020008E6
:100130007B0200087B0200087B0200087B020008AB
:100140007B0200087B0200087B0200087B0200089B
:100150007B0200087B0200087B0200087B0200088B
:100160007B0200087B0200087B0200087B0200087B
:100170007B0200087B0200087B02000800000000F0
:100180007B0200087B020008DFF810D000F0EEF8D8
:100190000048004799280008AFF30080B8460020C7
:1001A0002C4B19680868B0E8F04F80F30988BFF35A
:1001B0006F8F4FF0000080F311887047000000003F
:1001C00008480068006880F308884FF0000080F35A
:1001D000148862B661B6BFF34F8FBFF36F8F00DF35
:1001E00000BF00BF08ED00E0DFF80C00016841F43B
:1001F00070010160704700BF88ED00E0EFF30980F7
:10020000BFF36F8F134B1A681EF0100F08BF20ED5D
:10021000108A20E9F04F106009B44FF0500080F3CD
:100220001188BFF34F8FBFF36F8F02F027FF4FF09E
:10023000000080F3118809BC19680868B0E8F04F25
:100240001EF0100F08BFB0EC108A80F30988BFF3CE
:100250006F8F704744000020EFF305807047000067
:100260000648804706480047FEE7FEE7FEE7FEE750
:10027000FEE7FEE7FEE7FEE7FEE7FEE7592400089B
:10028000890100082DE9F05F0546002092469B4653
:1002900088460646814640241BE02846414647469C
:1002A000224600F053F853465A46C01A914110D3E3
:1002B00011461846224600F03AF82D1A67EB01085D
:1002C0004F4622460120002100F031F817EB0009CB
:1002D0004E41201EA4F10104DFDC484631462A4687
:1002E0004346BDE8F09F40EA01039B0703D009E0C5
:1002F00008C9121F08C0042AFAD203E011F8013B12
:1003000000F8013B521EF9D27047D2B201E000F86A
:10031000012B491EFBD270470022F6E710B51346A9
:100320000A4604461946FFF7F0FF204610BD202A72
:1003300004DB203A00FA02F1002070479140C2F13C
:10034000200320FA03F3194390407047202A04DB6E
:10035000203A21FA02F00021704721FA02F3D0403E
:10036000C2F120029140084319467047064C074DE0
:1003700006E0E06840F0010394E807009847103475
:10038000AC42F6D3FFF704FF503600087036000881
:1003900010B50146806B026C12F0500F05D0026C54
:1003A000D20626D500F0D6F910BD016C41F40071DB
:1003B000016401688A6812F0405F17D1027EAAB911
:1003C000CA6A12F4700F02D08A6852050ED44A68C5
:1003D00022F020024A60016C21F480710164016CFA
:1003E000C90403D4016C41F00101016400F0B0F9CB
:1003F00010BD806BC26CBDE810400846104710B5B8
:10040000806B40210164416C41F00401416400F0C3
:10041000A1F910BD10B5806B00F09BF910BD000074
:10042000464910B54A6822F440324A604A68436837
:100430001A434A6001684A6822F480724A6001687F
:100440004A68036942EA03224A6001684A6822F066
:1004500040724A6001684A6883681A434A600168CA
:100460008A6822F400628A6001688A68C3681A4355
:100470008A60816A6FF07062D14201688A6822F0F6
:1004800070628A6001688A680CD0836A1A438A6045
:1004900001688A6822F040528A6001688A68C36AEB
:1004A0001A4301E022F040528A6001688A6822F013
:1004B00002028A6001688A68037E42EA43028A6017
:1004C00090F82010002901684A680FD042F40062B9
:1004D0004A6001684A6822F460424A6001684A68DA
:1004E000174C436A04EB43331A4301E022F40062E1
:1004F0004A600168CA6A22F47002CA620168CA6A64
:10050000838B104C04EB03531A43CA6201688A6858
:1005100022F400728A6001688A6890F8303042EAFA
:1005200043228A6001688A6822F480628A600168D6
:100530008A68406942EA8020886010BD002301403B
:1005400000E0FFFF0000F0FFFEE70000014800F0C0
:1005500025BA00006003002001681823CAB2103ACF
:10056000B2FBF3F2054B6FF30901032A9B5CC365F1
:1005700000D9091D8165084670470000A0350008B4
:1005800010B5014600208B698A6A4FF0C07453B1E0
:10059000B3F5005F15D072B1012A0CD0022A0AD03F
:1005A000032A09D104E01AB1012A06D0022A03D194
:1005B000C96AC90100D5012010BDC96AA142FAD09B
:1005C00010BD002AF7D0012AF2D0022AF3D0032A64
:1005D000F3D010BD30B50468256825F4802525606A
:1005E000046863608368402B036803D099600068E7
:1005F000C26030BD9A600068C16030BD704772B69D
:10060000FEE7000078B50024009490F83C20012A11
:1006100019D0012280F83C200A6807230568092ABE
:1006200013D9EE680A3A02EB420293409E43EE6011
:100630000B788A680A3B03EB43039A400368DD6842
:100640002A43DA6010E0022078BD2E6902EB4202F4
:1006500093409E432E610B788A6803EB43039A40D4
:1006600003681D692A431A614A681F23072A13D2A7
:1006700005686E6B521E02EB820293409E436E63CE
:100680000B790A885B1E92B203EB83039A400368DE
:100690005D6B2A435A6327E005680D2A12D22E6B40
:1006A000D21F02EB820293409E432E630B790A888D
:1006B000DB1F92B203EB83039A4003681D6B2A434E
:1006C0001A6311E0EE6A0D3A02EB820293409E43F8
:1006D000EE620B790A880D3B92B203EB83039A40DA
:1006E0000368DD6A2A43DA62164B0568144A9D42A4
:1006F00006D10D68122D03D1556845F4800555606B
:1007000005689D4218D10B68102B01D0112B13D115
:10071000536843F400035360096810290CD10A4957
:100720000A4A0968B1FBF2F101EB8101490000E0DE
:10073000491E00910029FBD180F83C40002078BD83
:1007400000230140002001404000002040420F00F3
:1007500070477047704770B504004FF0000503D034
:10076000206C002610B107E0012070BD204600F08B
:100770001DF8666484F83C60206CC00610D4206CC0
:1007800020F4885040F0020020642046FFF748FE25
:100790006664206C20F0020040F00100206400E05C
:1007A000012584F83C60284670BD000070B586B015
:1007B000064614216846FFF7AFFD1D4930688842A0
:1007C00034D11C480025016841F480710160006843
:1007D00000F48070059017481438016841F0010159
:1007E00001600068694600F0010005901420009047
:1007F0000320CDE90105104800F042FA104C0F48E3
:10080000C4E900050015A560C4E90350400060611B
:100810008000A0614011C4E907052046656200F030
:100820008DF908B1FFF7EBFEB463A66306B070BDA7
:1008300000200140443802400000024010640240A1
:1008400060030020F8B50E4600210446009190F8A0
:100850003C0013460A46012807D0012084F83C00DA
:1008600020688568ED0702D011E00220F8BD856898
:1008700045F0010585604048404D0068B0FBF5F04B
:1008800000EB400000E0401E00900028FBD12068F3
:100890008568ED0503D5856825F480758560206839
:1008A0008568ED075DD0226C40F20165AA4342F4F1
:1008B000807222644068400505D5206C20F4005009
:1008C00040F480502064206CC00404D5606C20F09B
:1008D0000600606400E0616484F83C10A16B294864
:1008E000274DC863A16B28480864A16B2748C864DA
:1008F00021686FF0220008602068416841F0806143
:1009000041602068816841F48071816021683246CD
:100910004C31A06B00F07CF9024668681C49C006A7
:10092000206806D0884224D1816811F0405F13D03E
:100930001FE08842F8D0174B984203D1D1F8043316
:10094000DB06F1D0144B984213D1D1F8041301F017
:100950001F011029E8D30CE0816841F080418160DB
:1009600007E0206C40F010002064606C40F0010053
:1009700060641046F8BD00004000002040420F00B7
:10098000002301409103000815040008FF0300083C
:100990000020014000210140002201402DE9F843E0
:1009A00004464FF00009CDF8009063484FF416510B
:1009B000A56D0068B0FBF1F72E6894F85C10082074
:1009C00000FA01F131420FD021680A6852070BD5B5
:1009D0000A6822F004020A6094F85C108840A8605B
:1009E000606D40F00100606594F85C104FF0010804
:1009F00008FA01F0304208D021684969090604D597
:100A0000A860606D40F00200606594F85C100420FE
:100A10008840304208D021680968890704D5A86059
:100A2000606D40F00400606594F85C101020884010
:100A3000304218D021680968090714D5A8602068D9
:100A40000168490304D50068000308D5A16C07E0DC
:100A50000168C90503D4016821F008010160216C17
:100A600009B12046884794F85C1020208840304225
:100A700031D021680968C9062DD5A86094F83500E1
:100A800005282068016806D0490347D5006800039F
:100A90001DD4616C1CE021F01601016020684169E1
:100AA00021F080014161206C08B9A06C20B1206860
:100AB000016821F00801016094F85C103F20884033
:100AC000A86084F8358084F83490216D1FE0E16BD4
:100AD00009B120468847606D00282BD0606DC007A3
:100AE00014D0052084F835002068016821F0010148
:100AF00001600098401C0090B84203D8206800684C
:100B0000C007F6D184F8358084F83490E16C002970
:100B100010D001B02046BDE8F04308470168C90580
:100B2000D5D4016821F01001016084F8358084F883
:100B30003490CCE7BDE8F883400000202DE9F04177
:100B4000044600F09BF906465CB1022084F83500AB
:100B5000002584F834502068016821F0010101600B
:100B60000DE00120BDE8F08100F088F9801B052828
:100B700005D920206065032084F83500F2E720685D
:100B80000068C007F0D12268116820480140D4E90C
:100B900001031843D4E90336334318436369184308
:100BA000A3691843E3691843236A18430843616A39
:100BB000042903D1D4E90B131943084310602068BA
:100BC0004069666A20F0070130460E430127042879
:100BD0000CD1A06A0643E06A40B12046FFF7D0FC82
:100BE00020B14020606584F83570BAE7206846611E
:100BF0002046FFF7B1FC94F85C203F2191408160D2
:100C0000656584F835700020ACE700003F8010F087
:100C10002DE9F0410446866D90F834000025012846
:100C20000DD0012084F8340094F835700020012F95
:100C300007D084F8340002252846BDE8F081022060
:100C4000FBE7022784F8357060652046FFF7C2FC99
:100C500094F85C103F208840B0602068016841F043
:100C600016010160206C20B12068016841F0080184
:100C700001602068016841F001010160DCE70000CB
:100C80002DE9F84FDFF8BCA10022012503264FF023
:100C90000F090AF1040BAAF1040E00BF0B6805FA54
:100CA00002F42340A34270D10F7907F00307012F0C
:100CB00001D0022F16D187684FEA420806FA08FCD5
:100CC00027EA0C07D1F80CC00CFA08FC4CEA070C18
:100CD000C0F808C04768A7430C79C4F300149440D7
:100CE0003C4344600C79E443A4070AD0C4684FEA4B
:100CF000420C06FA0CF7BC438F6807FA0CF727433F
:100D0000C7600C7904F00304022C12D1D40800EB64
:100D1000840CDCF820405707FF0E09FA07F824EA94
:100D20000804D1F8108008FA07F848EA0408CCF85B
:100D3000208004684FEA420C06FA0CF7BC430F7996
:100D400007F0030707FA0CF7274307604C6814F411
:100D5000403F70D03C4C276847F4804727602468A8
:100D600022F0030704F480440094384C07EB040C91
:100D7000DCF8084897074FEA177809FA08F7BC43E8
:100D8000334FB84202D1002724E054E0314FB8423B
:100D900001D101271EE0304FB84201D1022719E0EE
:100DA0002E4FB84201D1032714E02D4FB84201D194
:100DB00004270FE02B4FB84201D105270AE02A4F44
:100DC000B84201D1062705E0284FB84201D10727D4
:100DD00000E0082707FA08F72743CCF80878DAF884
:100DE00000405746D1F804C09C435FEACC2C00D5A4
:100DF0001C433C60DBF800405F46D1F804C09C43D4
:100E00005FEA8C2C00D51C433C60DEF8004077463E
:100E1000D1F804C09C435FEA8C3C00D51C433C6085
:100E2000084F083F3C68D1F804C09C435FEACC3CC3
:100E300000D51C433C60521C102AFFF42FAFBDE8C4
:100E4000F88F0000083C0140443802400030014067
:100E5000000002400004024000080240000C024072
:100E6000001002400014024000180240001C024022
:100E70000AB1816170470904FBE7000001488068FE
:100E8000704700003400002070B5040025D094F8AD
:100E90003D00002520B984F83C50204600F0B8F809
:100EA000242084F83D002068016821F001010160E0
:100EB0002068016841F4004101602068016821F464
:100EC0000041016000F056FA4D4A6168914201D834
:100ED0004C4900E04C49884201D2012070BD4B4989
:100EE0002368B0FBF1F15E6826F03F060E435E60BA
:100EF0006368934206D94FF4967359434FF47A735B
:100F0000B1FBF3F12368491C1E6A26F03F0631430A
:100F100019626168914210D84900401EB0FBF1F29D
:100F2000521CC2F30B02042A01D2042022E0B0FBBF
:100F3000F1F0401CC0F30B001CE0A268F2B301EB1F
:100F4000C10303EB0116431EB3FBF6F35B1C43F432
:100F500080431B0549D092B301EBC10202EB0111A2
:100F6000401EB0FBF1F0401CC0F30B0040F4804089
:100F700040F400402168CA694CF6FF739A4310435D
:100F8000C861D4E9071001432068026822F0C0025A
:100F900011430160D4E9030101432068826848F2EB
:100FA000FF339A4311438160D4E905010843216866
:100FB000CA6822F0FF021043C86001E00EE016E0AC
:100FC0002068016841F0010101602564202084F857
:100FD0003D00256384F83E50002070BD01EB4106C2
:100FE000431EB3FBF6F35B1CB3E70120C2E701EB42
:100FF0004101401EB0FBF1F0401CC0F30B00B7E70D
:10100000A086010080841E0000093D0040420F00C0
:1010100010B586B0044614216846FFF77DF91349E0
:101020002068884220D112480021026842F0020262
:101030000260006800F002000590C02000901220BD
:10104000CDE901010320039004200490694609487A
:10105000FFF716FE06481030016841F400110160E8
:10106000006800F40010059006B010BD0054004068
:10107000303802400004024002488168027811447E
:1010800081607047340000200B4810B5016841F4BE
:1010900000710160016841F480610160016841F400
:1010A00080710160032000F099F80F2000F006F82D
:1010B00000F04AF8002010BD003C024030B5054663
:1010C0001C4887B00024016841F0010101600068FC
:1010D00006A900F00100009001A800F02BF900F033
:1010E00059F915494000B0FBF1F11548134A491E62
:1010F000026040F2E732C0E90324C0E901148461D0
:1011000000F088FB040012D10D4800F0C5FB04007C
:101110000DD1192000F034F8102D07D200222946F5
:10112000192000F03BF80748056000E0012407B0F3
:10113000204630BD4438024040420F0000000140CC
:101140007C050020380000200C4882B0016841F482
:1011500080410160006800F4804000900748001F53
:10116000016841F0805101600068002200F0805069
:1011700000900F21901E02B000F010B844380240D9
:10118000002809DB00F01F02012191404009800086
:1011900000F1E020C0F8001170470000F0B40E4BE1
:1011A0001B680C46C3F30223C3F10705042D00D9C5
:1011B0000425191D072901D2002300E0DB1E0126AA
:1011C00006FA05F1491E214099409E40761E1640C0
:1011D0003143F0BC01F035BB0CED00E0064900F0F6
:1011E000070208684FF6FF03184040EA0220034A4E
:1011F00010430860704700000CED00E00000FA05A5
:101200002DE9F0470E46050065D0DFF81481D8F8C7
:101210000000F7B200F00700B04207D288F8007073
:10122000D8F8000000F00700B04254D128683D4CC7
:10123000810712D5400703D5206840F4E0502060B4
:101240002878000703D5206840F4604020602068BB
:10125000A96820F0F000084320602878C0072DD04E
:10126000304968680839012812D0022813D00328B1
:1012700011D00968890700292DDA216821F00301BE
:1012800001432160FFF7FAFD814641F2883A0EE002
:1012900009688903EFE709688901ECE7FFF7EEFDCC
:1012A000A0EB0901514502D90320BDE8F087206871
:1012B000696800F00C00B0EB810FEFD1D8F8001096
:1012C000404601F00701B14207D90770006800F0FD
:1012D0000700B04201D00120E7E72878400705D594
:1012E0002068E96820F4E05008432060287800076F
:1012F00006D52068296920F4604040EAC1002060DA
:1013000000F058F82168084AC1F30311515CC84045
:101310000649086006480068FFF7D0FE0020C4E7D1
:10132000003C024008380240A83500084000002078
:10133000380000200F2202600C4A136803F00303F8
:101340004360136803F0F0038360136803F4E05311
:10135000C36012684FF4E05303EAD202026104480A
:10136000006800F00700086070470000083802407D
:10137000003C02400448054900680968044AC1F37A
:101380008221515CC840704740000020083802406C
:10139000B83500080448054900680968044AC1F3E3
:1013A0004231515CC840704740000020083802407C
:1013B000B8350008154810B5006810F00C02144844
:1013C00013D04110042A0FD0082A0ED10F4C241F2D
:1013D0002268236802F03F025B0207D52068C0F351
:1013E0008810A0FB010106E0084610BD2168C1F38A
:1013F0008811A1FB00010023FEF744FF2168C1F31F
:101400000141491C4900B0FBF1F010BD0838024011
:101410000024F4002DE9F84F04006ED02078DFF8A6
:101420004C93C007A9F104054AD009F104000168F2
:10143000C1F38101012908D00068C0F381000228AE
:101440000AD1D9F80000400206D52868800337D5B4
:1014500060680028E1D033E06068B0F5803F10D0CC
:10146000B0F5A02F286810D020F4803028602868BC
:1014700020F4802028606068A8B1FFF7FFFC0646D2
:101480000DE0286840F48030F4E740F480202860C4
:10149000F7E700BFFFF7F2FC801B642873D82868C9
:1014A0008003F7D50CE0FFF7E9FC064605E000BF36
:1014B000FFF7E4FC801B6428F0D828688003F7D489
:1014C0002078DFF8AC8280074FF0000A3ED5A748AD
:1014D000001D016811F00C0F08D00068C0F38100F6
:1014E00002280BD1D9F80000400207D428688007F1
:1014F00016D5E068012800D112E033E1E068B8B108
:101500000120C8F80000FFF7B9FC064605E000BF5F
:10151000FFF7B4FC801B0228C0D828688007F7D5E5
:101520002868216920F0F80040EAC10028600DE039
:10153000C8F800A0FFF7A2FC064604E0FFF79EFCF7
:10154000801B02281FD828688007F7D4207800075E
:1015500022D5864F87486169703771B101210160DA
:10156000FFF78CFC064604E0FFF788FC801B02288E
:1015700009D838688007F7D50EE0C0F800A0FFF75B
:101580007DFC064605E082E0FFF778FC801B022820
:101590007DD838688007F7D42078400768D5DFF811
:1015A000CCB100270BF13C0BDBF80000C0000BD4E2
:1015B000DBF8001041F08051CBF80010DBF80000A0
:1015C000012700F0805000906B4E3068C00510D4A9
:1015D000306840F480703060FFF750FC009005E008
:1015E000FFF74CFC0099401A022850D83068C0051B
:1015F000F6D55E4EA0686C3601280FD005283068FD
:1016000010D020F001003060306820F0040030601D
:10161000A068B8B1FFF732FC00900FE0306840F0EE
:101620000100F4E740F004003060F7E7FFF726FC24
:101630000099411A41F28830814266D830688007AB
:10164000F4D50EE0FFF71AFC009007E0FFF716FC58
:101650000099411A41F28830814256D8306880079B
:10166000F4D42FB1DBF8001021F08051CBF800103A
:10167000A069C8B33D49091D0968C1F38101022968
:101680004AD00228504607D0C8F8600000E03CE08D
:10169000FFF7F4FB04463BE04746C8F86000FFF75D
:1016A000EDFB064605E000BFFFF7E8FB801B0228C4
:1016B0002BD828688001F7D4D4E907010843A16A30
:1016C0002E4A490802EB0141626A41EA821108434D
:1016D00094F82C1040EA0161C9F800100120386626
:1016E000FFF7CCFB044606E03EE000BFFFF7C6FB79
:1016F000001B022809D828688001F7D534E000BF14
:10170000FFF7BCFB001B022802D90320BDE8F88FBD
:1017100028688001F4D427E00128F7D0D9F8000028
:10172000E26900F4800191421CD1226A00F03F017D
:10173000914217D147F6C071626A0140B1EB821F36
:1017400010D1A26A4FF0FF3300F4403103EB520294
:10175000B1EB024F06D194F82C1000F07060B0EBA2
:10176000016F01D00120D1E70020CFE7043802400B
:1017700000004742800E4742007000400000FFFF1B
:101780007047704770B590F83C20012A32D0012490
:1017900080F83C40022280F83D2003685A689D682A
:1017A00022F070060A6832435A60134B02689A426C
:1017B00014D0B2F1804F11D0104B9A420ED0104B82
:1017C0009A420BD00F4B9A4208D00F4B9A4205D049
:1017D0000E4B9A4202D00E4B9A4204D1496825F032
:1017E00080031943916080F83D40002180F83C104F
:1017F000084670BD022070BD00000140000400409A
:1018000000080040000C004000040140004001407E
:101810000018004010B5040003D094F83D0010B14A
:1018200007E0012010BD002084F83C00204600F0B5
:101830001FF8022084F83D00211D206800F01AFEE8
:10184000012084F8460084F83E0084F83F0084F8C4
:10185000400084F8410084F8420084F8430084F892
:10186000440084F8450084F83D00002010BD0000CD
:1018700008B500680649884208D10648016841F069
:1018800002010160006800F00200009008BD000045
:10189000000400404038024090F83D10012901D07A
:1018A00001207047022180F83D100168CA6842F0AB
:1018B0000102CA6000681149884214D0B0F1804F1B
:1018C00011D00F4988420ED00E4988420BD00E49E4
:1018D000884208D00D49884205D00D49884202D07F
:1018E0000C49884204D1816801F00701062903D020
:1018F000016841F0010101600020704700000140D3
:101900000004004000080040000C004000040140BA
:10191000004001400018004070B5044690F83C00BB
:101920000025012817D0012684F83C60022084F8A5
:101930003D002068826822F0770222F47F428260B4
:101940000868502838D00DDC20284FD005DC90B333
:10195000102811D14AE0022070BD302846D040281E
:101960000AD13BE060282FD070280DD0B0F5805F01
:1019700003D0B0F5005F12D0012584F83D6000204F
:1019800084F83C00284670BDCB68D1E9012120686D
:1019900000F0D8FD2068816841F0770109E0CB684C
:1019A000D1E90121206800F0CDFD2068816841F473
:1019B00080418160E1E719E0CA684968206800F069
:1019C00095FE5021206806E0CA684968206800F04A
:1019D0009EFE6021206800F0BFFDCEE7CA6849681E
:1019E000206800F083FE40212068F4E72268014669
:1019F0001046F0E72DE9F0410D46040003D094F8BD
:101A00003D0018B108E00120BDE8F081002084F815
:101A10003C00204600F040F8022084F83D00206899
:101A2000816844F2070291438160211D206800F023
:101A300021FD226890689169166A2B68AF6903439B
:101A400040F20330814341EA0721A868EF69084367
:101A50004FF6FC418843E96840EA072001432869C2
:101A60002F6A000140EA0730084369686D6926F073
:101A7000AA0646EA0515294393602268906154F846
:101A8000460B0162012004F81F09E0752076E0761C
:101A90002077A0750020B7E710B586B00446142162
:101AA0006846FEF739FC2068B0F1804F1FD111481D
:101AB0000021026842F001020260006800F00100AB
:101AC00005900C481038026842F00102026000687C
:101AD00000F001000590032000900220CDE90101F3
:101AE0000120CDE9031069460348FFF7C9F806B0A5
:101AF00010BD0000403802400000024070472DE950
:101B0000F04104460068C66805694FF00007A90760
:101B100013D5B10711D5F91E016101202077206886
:101B200080698007204602D0FFF7E8FF04E000F05C
:101B3000A7F8204600F039F92777680716D570070F
:101B400014D521686FF00400086102202077206816
:101B5000806910F4407F204602D0FFF7CFFF04E0F9
:101B600000F08EF8204600F020F92777280715D5D9
:101B7000300713D521686FF0080008610420207732
:101B80002068C0698007204602D0FFF7B7FF04E055
:101B900000F076F8204600F008F92777E80616D519
:101BA000F00614D521686FF0100008610820207736
:101BB0002068C06910F4407F204602D0FFF79EFFE6
:101BC00004E000F05DF8204600F0EFF82777E80722
:101BD00008D0F00706D021686FF0010008612046A8
:101BE00000F0E4F8280608D5300606D521686FF025
:101BF000800008612046FFF7C3FD680608D570061F
:101C000006D521686FF040000861204600F0D8F842
:101C1000A8060AD5B00608D521686FF02000086133
:101C20002046BDE8F041FFF7ACBDBDE8F081000003
:101C300010B586B0044614216846FEF76DFB0D49C9
:101C40002068884214D10C480021026842F0010249
:101C50000260006800F001000590C02000900220A2
:101C6000CDE90101CDE9031069460448FFF708F802
:101C700006B010BD000400403038024000000240B1
:101C8000704770B5044690F83C0000260D460128C8
:101C90000FD0012084F83C006AB1042A1DD0082A24
:101CA0002FD00C2A3FD00126002084F83C0030467B
:101CB00070BD022070BD206800F056FC206881696C
:101CC00041F0080181612068816921F0040181618E
:101CD000206881692A69114311E0206800F074FCD2
:101CE0002068816941F4006181612068816921F483
:101CF00080618161206881692A6941EA02218161EC
:101D0000D2E7206800F096FC2068C16941F0080124
:101D1000C1612068C16921F00401C1612068C16905
:101D20002A69114311E0206800F0B8FC2068C169FD
:101D300041F40061C1612068C16921F48061C16121
:101D40002068C1692A6941EA0221C161ACE710B586
:101D5000040003D094F83D0010B107E0012010BD4D
:101D6000002084F83C00204600F01EF8022084F891
:101D70003D00211D206800F07DFB012084F8460015
:101D800084F83E0084F83F0084F8400084F8410065
:101D900084F8420084F8430084F8440084F8450045
:101DA00084F83D00002010BD70477047006803496B
:101DB000884201D1FFF760B9704700000000014080
:101DC000704770B5040004D094F84100002510B1AC
:101DD00006E0012070BD84F84050204600F024F851
:101DE000242084F841002068C16821F40051C160BA
:101DF000204600F09FFC2068016921F490410161B8
:101E00002068416921F02A0141612068C16841F4DC
:101E10000051C1606564202084F8410084F84200CC
:101E20006563002070BD0000F0B587B00446142142
:101E30006846FEF771FA314A2668002130480223CD
:101E40000324072596421AD12D4A1432166846F00B
:101E500010061660126802F010020592026842F045
:101E600001020260006802AA00F00100059082E809
:101E700032006002CDE90003694622481CE0204A96
:101E8000214F1032BE421BD1166846F40036166050
:101E9000126802F400320592026842F00802026001
:101EA000006802AE00F00800059086E8320060206D
:101EB000CDE9000369461548FEF7E2FE07B0F0BD24
:101EC000134FBE42FAD1166846F480261660126897
:101ED00002F480220592026842F002020260006869
:101EE00002AE00F00200059086E832004FF4406038
:101EF000CDE9000369460748DEE700000010014015
:101F0000303802400000024000440040000C024013
:101F10000048004000040240FEE700007FB50021B9
:101F20001B48009101910291184A0391026001241B
:101F30004FF480320461C0E90121047680F820105A
:101F4000144AC0E90A210225C561C16080F8304009
:101F50004461FEF700FC08B1FEF751FB0720009535
:101F6000CDE9014069460A48FEF74CFB08B1FEF78F
:101F700046FB0420CDE9000569460548FEF742FB13
:101F8000002801D0FEF73BFB7FBD00000020014090
:101F9000180300200100000F094808B5016841F44A
:101FA000800101600068002200F48000009005219B
:101FB0003820FFF7F3F8BDE808403820FFF7E0B815
:101FC0003038024010B5D4B01C2242496846FEF7B2
:101FD0008AF90021684600F0A1FC3F4C3D491C22D3
:101FE00020601C3107A8FEF77EF9002107A800F049
:101FF00095FC384960601C2238310EA8FEF773F951
:1020000000210EA800F08AFC3249A0601C22543145
:1020100015A8FEF768F9002115A800F07FFC2D49EE
:10202000E0601C2270311CA8FEF75DF900211CA89D
:1020300000F074FC274920611C228C3123A8FEF794
:1020400052F9002123A800F069FC224960611C229A
:10205000A8312AA8FEF747F900212AA800F05EFC63
:102060001C49A0611C22C43131A8FEF73CF90021B3
:1020700031A800F053FC1749E0611C22E03138A878
:10208000FEF731F9002138A800F048FC1149206220
:102090001C22FC313FA8FEF726F900213FA800F0E2
:1020A0003DFC60621C220D4946A8FEF71CF9002188
:1020B00046A800F033FC0949A0621C221C314DA83F
:1020C000FEF711F900214DA800F028FCE06254B0A1
:1020D00010BD0000503400080400002068350008DE
:1020E000F0B587B014216846FEF716F9254800249C
:1020F000016841F080010160016801F080010591F3
:10210000016841F001010160016801F001010591E0
:10211000016841F002010160016801F002010591CE
:10212000016841F008010160016801F008010591B2
:10213000016841F0040101600068134E00F00400E2
:102140004FF488550590002229463046FEF790FE50
:102150000E4F002240213846FEF78AFE00950125E9
:10216000CDE90154694630460394FEF789FD4020CD
:102170000090CDE90154694638460394FEF780FD8E
:1021800007B0F0BD30380240000C024000080240A9
:102190000D4810B50B4901600C49416000214FF416
:1021A00080428160C0E9031241618161C1610162C5
:1021B000FEF76AFE002803D0BDE81040FEF71FBA04
:1021C00010BD000000540040C0030020A0860100A4
:1021D00010B58CB024216846FEF79EF800241548FF
:1021E00009944FF080410A94C0E90014611EC0E9CF
:1021F0000241046184610320CDE900040120CDE99E
:1022000002040494CDE905400794694609480894FE
:10221000FFF7F0FB08B1FEF7F2F9099409A90548A8
:102220000A94FFF7AFFA002801D0FEF7E8F90CB0E6
:1022300010BD00001404002010B58EB000240794D7
:10224000089409940A940B941C2168460C94FEF798
:1022500063F82348214901600121C0E9011440F6D7
:102260003301C0E9031480218161FFF7D3FA08B17B
:10227000FEF7C5F94FF48050079007A91848FFF7FB
:102280004BFB08B1FEF7BBF91548FFF760FD08B13D
:10229000FEF7B5F90B940BA911480C94FFF772FAED
:1022A00008B1FEF7ACF96020CDE9000402940022E9
:1022B00069460B480494FFF7E4FC08B1FEF79FF968
:1022C000042269460648FFF7DCFC08B1FEF797F9DF
:1022D0000348FFF7ADFC0EB010BD00000004004045
:1022E0005C0400200C4810B50A4901604FF4E1314C
:1022F0004160002181600C22C160C0E9041281614B
:10230000C161FFF75EFD002803D0BDE81040FEF775
:1023100076B910BD00100140A40400200C4810B58F
:102320000A4901604FF4E1314160002181600C22D3
:10233000C160C0E904128161C161FFF742FD00285C
:1023400003D0BDE81040FEF75AB910BD004400406C
:10235000EC0400200C4810B50A4901604FF4E1314B
:102360004160002181600C22C160C0E904128161DA
:10237000C161FFF726FD002803D0BDE81040FEF73D
:102380003EB910BD0048004034050020FEE7FEE7DE
:10239000012000F0B7FAFBE710B5502080F3118858
:1023A000BFF34F8FBFF36F8F00F08AFF18B104495E
:1023B0004FF080500860002080F3118810BD0000AD
:1023C00004ED00E030B593B030216846FDF7A4FF7E
:1023D00014210CA8FDF7A0FF1D480025016841F05D
:1023E00080510160006800F0805011901948016828
:1023F00041F4804101600068022400F480401190A3
:1024000001200090000401908001CDE9064008AA57
:102410000420A82182E813000B906846FEF7FAFF1B
:1024200008B172B6FEE70CA90F2081E831004FF425
:10243000A0500F904FF48050109005210CA8FEF78B
:10244000DFFE002801D072B6FEE713B030BD0000F9
:1024500040380240007000400248016841F47001B9
:102460000160704788ED00E00148FFF748BB0000BD
:102470007C050020F0B50268274B284D284E294FD7
:10248000294C4FF0804C984209D0604507D0A842B3
:1024900005D0B04203D0B84201D0A04204D122F00E
:1024A000700E4A6842EA0E0298421BD0604519D06D
:1024B000A84217D0B04215D0B84213D0A04211D0D4
:1024C0001A4DA8420ED01A4DA8420BD0194DA84261
:1024D00008D0194DA84205D0184DA84202D0184D79
:1024E000A84203D122F44075CA682A434D6922F0FC
:1024F00080022A438D68C5620D688562984201D0CA
:10250000A04201D109690163016841F00401016041
:10251000012141610260F0BD000001400004004063
:1025200000080040000C0040000401400040014051
:10253000004401400048014000180040001C0040D9
:102540000020004010B5846842EA032224F47F444E
:102550000A432243826010BD826822F070020A435F
:1025600042F0070181607047F0B5036A026A22F009
:102570000102026242688469124E24F073050C68FD
:102580002C4323F002058B682B430D4DA84201D04C
:10259000B04205D123F00807CB683B4323F0040386
:1025A000A84201D0B04205D14D6922F440721543D2
:1025B0008A692A4342608461496841630362F0BDCD
:1025C0000000014000040140F0B5026A036A23F0F4
:1025D00010030362436884690D6824F4E64444EA06
:1025E00005248D6822F0200242EA05120F4D104E9C
:1025F000A84201D0B04206D1CF6822F0800242EA60
:10260000071222F04002A84201D0B04207D14D6922
:1026100023F4406343EA85038D6943EA85034360FD
:102620008461496881630262F0BD000000000140DE
:1026300000040140F0B5026A036A23F48073036268
:102640004368C46922F4007224F073050C68124ECA
:102650002C438D6842EA05220E4DA84201D0B042BB
:1026600006D1CF6822F4006242EA072222F4806297
:10267000A84201D0B04207D14D6923F4405343EA48
:1026800005138D6943EA05134360C4614968C1635A
:102690000262F0BD000001400004014030B5046A50
:1026A000026A22F4805202624268C3690D6823F410
:1026B000E64343EA05238D6824F4005444EA0534D4
:1026C000084DA84202D0084DA84204D14D6922F419
:1026D000804242EA85124260C36149680164046233
:1026E00030BD0000000001400004014010B5036A45
:1026F000046A24F001040462846924F0F00444EACA
:10270000021423F00A020A438461026210BD10B56C
:10271000036A046A24F010040462846923F0A003AD
:1027200024F4704444EA023243EA011182610162F6
:1027300010BD000070B5044600680169E26821F42C
:102740004051114301612169A068E2690843616950
:10275000114308432168CA6849F20C639A43024353
:10276000CA6020684169A26921F440711143416146
:1027700031492068884202D03049884202D1FEF7B0
:1027800009FE01E0FEF7F6FDE26900231921642548
:102790003226B2F5004F626828D0A0FB0101930FEA
:1027A0009200FDF76FFD0146B0FBF5F06FF01802E7
:1027B000504301EB800006EB0010B0FBF5F000F099
:1027C000F002B1FBF5F002EB0012B1FBF5F06FF097
:1027D0001803584301EB800006EB0010B0FBF5F046
:1027E00000F00F0021681044886070BDA0FB01015B
:1027F00092185B41FDF746FD0146B0FBF5F0020182
:10280000B1FBF5F06FF01803584301EB800006EBC5
:10281000C000B0FBF5F000F0F80002EB4002B1FBA5
:10282000F5F0584301EB800006EBC000B0FBF5F07B
:1028300000F00700D6E7000000100140001401403E
:10284000FEE70907090E002804DB00F1E02080F80C
:102850000014704700F00F0000F1E02080F8141D14
:10286000704702E008C8121F08C1002AFAD1704759
:102870007047002001E001C1121F002AFBD1704700
:10288000012000F03FF8FBE7012000F03BF8FBE7F8
:102890007047002070470000FEF7F6FBFFF792FD3F
:1028A000FFF71EFCFFF778FBFFF792FCFFF7C4FC75
:1028B000FFF718FDFFF732FBFFF76AFCFFF72EFD6D
:1028C000FFF748FD022204490448FDF7BBFFFFF76C
:1028D00079FB00F01EF8FEE700000020180300203E
:1028E00001460020842900D0C81C7047012000F058
:1028F00009F8FBE7012000F005F8FBE7012000F0F4
:1029000001F8FBE710B500B9012000F051FB0020F1
:1029100010BD10B500F072FB002010BD7FB50D4654
:1029200004464169B0F9080081B1A16971B1FFF7AE
:10293000D7FFD4E905128DE80700D4E900102B4633
:10294000226900F092FC039004B070BDFFF7C8FF4D
:1029500003A9CDE90001208A2B4682B2D4E90010F8
:1029600000F056FC012801D00020EDE70398EBE7CA
:102970002DE9F041184C0F460546E6682068001D19
:1029800000F04CFA38B9206890F82C1001208840EB
:10299000216981432161681C07D137B12168BDE8F5
:1029A000F0410E48091D00F07FBA20683544B54259
:1029B0004560216805D2206CBDE8F041091D00F09A
:1029C0005BBAE06B091D00F057FAA06A854200D29D
:1029D000A562BDE8F081000044000020A0060020B0
:1029E0002DE9F041054600F06BFA2E4CA068401C22
:1029F000A06020682C4F10B1606940B32DE02560C5
:102A0000A068012829D1002606EB860007EB80008C
:102A100000F024FA761C072EF6D323488C3000F001
:102A20001DFA2148A03000F019FA1F48B43000F018
:102A300015FA1D48C83000F011FA1B48DC3000F0D0
:102A40000DFA19488C30E0631430206405E02068EA
:102A5000E96AC06A884200D82560606A401C6062EA
:102A6000A864E96A0120226988401043206101EBD3
:102A7000810007EB8000291D00F016FA00F040FAF3
:102A8000606900280CD02068E96AC06A884207D2D1
:102A900006494FF080500860BFF34F8FBFF36F8F30
:102AA000BDE8F08144000020C405002004ED00E0F2
:102AB00010B5044690F8610058B101280CD00228E6
:102AC0000FD0502080F31188BFF34F8FBFF36F8F6B
:102AD000FEE7206B00F028FA2046BDE8104000F029
:102AE00023BA10BD10484FF47051420706D0C01DE4
:102AF0000D4920F00700411AC1F570510B4A00231F
:102B00000144C2E900030839183A21F007011160B5
:102B10004B600B600B1AC0E9001393604FF000404C
:102B20005360506170470000B4060020A0000020F0
:102B3000144E154CA6F1C8074FF08058DFF84C90A2
:102B400012E000BF00F0BCF9F068C568281D00F075
:102B500065F9A068401EA0606068401E606000F0DB
:102B6000CFF92846FFF7A4FF60680028EAD138684B
:102B70000128F9D9C9F80080BFF34F8FBFF36F8FD9
:102B8000F2E700008C0600204400002004ED00E085
:102B90002DE9F05F8846DDE90B94154683469100E8
:102BA0009A460A9EA522206BFDF7AFFB6FF003014A
:102BB000206B01EB8501084420F00707780707D058
:102BC000502080F31188BFF34F8FBFF36F8FFEE764
:102BD00000256764B8F1000F0ED00020221818F805
:102BE000001082F8341018F8001011B1401C1028A1
:102BF000F4D384F8435001E084F83450072E00D316
:102C00000626E662C4E91465201D00F032F904F1DD
:102C1000180000F02EF92461C6F107006462A0617B
:102C2000A565E56584F8605052465946384600F07F
:102C3000C7F82060B9F1000F01D0C9F80040BDE825
:102C4000F09F000030B5114900E011460A68824249
:102C5000FBD34B685C18844203D140681844486039
:102C6000084643681C18944209D1084C183C246853
:102C7000A24209D052681A4442600A68126802608F
:102C8000814200D0086030BD0460F9E7A000002058
:102C90000648C16B096829B1C16BC968C968496830
:102CA000816270474FF0FF31FAE7000044000020D6
:102CB00008484068401C4FF0500080F3118804D051
:102CC000BFF34F8FBFF36F8FFEE7BFF34F8FBFF39D
:102CD0006F8FFEE7A80000202DE9F0410546002790
:102CE00000F0C4F9354E306808B9FFF7FBFE706993
:102CF000054216D1ADB1083568070ED005F00700C2
:102D0000C0F108000544680707D0502080F31188FF
:102D1000BFF34F8FBFF36F8FFEE715B17068854229
:102D200002D900F033FB39E02448183001460C6822
:102D300001E020460C466168A94202D221680029C0
:102D4000F7D131688C42ECD0076821680160606877
:102D50000837411B10290ED96019420707D05020AF
:102D600080F31188BFF34F8FBFF36F8FFEE7416091
:102D70006560FFF767FF61687068401A7060B2684D
:102D8000904200D2B060706901430020C4E90001A4
:102D9000F068401CF06000F0F9FA0FB900F05CF840
:102DA000780707D0502080F31188BFF34F8FBFF30F
:102DB0006F8FFEE73846BDE8F081000088000020F4
:102DC00010B5031F4FF080741C601B1F21F0010120
:102DD0001960191F044B0B6014390A60091F6FF04A
:102DE000020244380A6010BDB12C00080120FFF730
:102DF00089FDFBE70120FFF785FDFBE70120FFF7D9
:102E000081FDFBE70120FFF77DFDFBE70120FFF7D8
:102E100079FDFBE70120FFF775FDFBE7D0E9013203
:102E200001699A60D0E901235A604A68824201D15F
:102E300082684A60002202610868401E08600868D3
:102E400070470000034B036003F1640008608020BA
:102E500010607047B40000207047704700F108010F
:102E60004FF0FF32C0E90112C16001610021016031
:102E7000704700210161704730B50B685A1C02D0C1
:102E800000F1080202E0026904E022465468256865
:102E90009D42FAD953684B6099608A60516008611D
:102EA0000168491C016030BD42684A6093688B60CC
:102EB00093685960916008610168491C016070471E
:102EC000502080F31188BFF34F8FBFF36F8F0A49F3
:102ED0004868401C486001280CD10848006810F080
:102EE000FF0F07D0502080F31188BFF34F8FBFF33F
:102EF0006F8FFEE770470000A800002004ED00E09F
:102F00000849486828B1401E486001D180F3118803
:102F10007047502080F31188BFF34F8FBFF36F8F3E
:102F2000FEE70000A800002070B500282AD0164D4A
:102F3000A0F1080460686969084207D1502080F355
:102F40001188BFF34F8FBFF36F8FFEE722683AB14E
:102F5000502080F31188BFF34F8FBFF36F8FFEE7D0
:102F60008843606000F082F86068696808446860BF
:102F70002046FFF767FE2869401C2861BDE87040C5
:102F800000F004BA70BD0000880000204FF0E0207F
:102F900000210161816105494FF47A720968B1FB32
:102FA000F2F1491E41610721016170474000002094
:102FB00010B5020014D00F48006B38B1502080F3D8
:102FC0001188BFF34F8FBFF36F8FFEE700F04EF80D
:102FD00000211046FFF7CCFC00F0D8F9002807D1FB
:102FE00005494FF080500860BFF34F8FBFF36F8FDC
:102FF00010BD00004400002004ED00E010B586B0D4
:103000000024039405AA04A903A80494FFF71AFF57
:10301000DDE903010094CDE9011000230FA111485F
:10302000059A00F022F910490028C86213D05020F8
:1030300080F31188BFF34F8FBFF36F8F4FF0FF30D6
:10304000886201204861CC60FFF722FC06B0BDE831
:10305000104000F063B806B010BD000049444C4574
:1030600000000000312B0008440000200248016BE2
:10307000491C0163704700004400002010B5254C36
:10308000206B10B10120E06110BD0020E061FFF76E
:1030900000FCA063626B904204D92168821A8B6D98
:1030A0001A448A65606320684FF0A531006B02689E
:1030B0008A4208D142688A4205D182688A4202D196
:1030C000C068884204D0216820683431FFF7C5FE0B
:1030D00020691149B0FA80F0C0F11F0000EB8000B8
:1030E00051F820206AB101EB800000F1080241682C
:1030F00049684160914201D149684160C8682060D7
:1031000010BD502080F31188BFF34F8FBFF36F8F36
:10311000FEE7000044000020C40500201CB537482D
:103120000168374A914207D1502080F31188BFF3DC
:103130004F8FBFF36F8FFEE700683149491E884209
:1031400007D1502080F31188BFF34F8FBFF36F8FEB
:10315000FEE72C4908780190FF20087008788DF868
:1031600000009DF800009DF8002000F0F000904263
:1031700007D0502080F31188BFF34F8FBFF36F8FBC
:10318000FEE79DF80000204C00F050002070072062
:10319000A06005E09DF8002052008DF80020401E40
:1031A0009DF800201206F5D4A060032807D0502017
:1031B00080F31188BFF34F8FBFF36F8FFEE74FF49B
:1031C0004070A060019808700C482030016841F4FC
:1031D00070010160016841F070410160FFF7D6FEA7
:1031E00000206060FDF700F80848016841F04041A8
:1031F0000160FCF7E5FF00201CBD000000ED00E0D1
:1032000071C20F4100E400E0A800002034EF00E0AC
:103210002DE9FF5F8346DDE90E87994616468A460B
:103220009000FFF759FD05001CD06420FFF754FD06
:10323000040014D00020256384F86100CDE9024029
:10324000CDE900874B46324651465846FFF7A0FC71
:103250002046FFF7C5FB012004B0BDE8F09F2846DB
:10326000FFF762FE4FF0FF30F6E7F0B585B0DDE91D
:103270000B640A9DA6B1DCB1642700972663022681
:1032800084F86160002604AFCDE90246CDE900571D
:10329000FFF77EFC2046FFF7A3FB049805B0F0BDC6
:1032A000502080F31188BFF34F8FBFF36F8FFEE77D
:1032B000502080F31188BFF34F8FBFF36F8FFEE76D
:1032C0002DE9F0412F4C0026206B28B1A069401C4D
:1032D000A0613046BDE8F081E5686D1CE56013D162
:1032E000E06B006838B1502080F31188BFF34F8F36
:1032F000BFF36F8FFEE7E06B216CE1632064206A0F
:10330000401C2062FFF7C4FCA06ADFF87C80854285
:1033100009D3E06B0068A0B1E06BC068C76878684B
:10332000854211D2A0622068C06A00EB800158F883
:103330002100012800D90126E0690028C9D0012612
:10334000C7E74FF0FF30EDE7381DFFF767FDB86ABC
:1033500018B107F11800FFF761FDF96A0120226931
:1033600088401043206101EB810108EB8100391D89
:10337000FFF79AFDF86A2168C96A8842C9D3012615
:10338000C7E7000044000020C40500202DE9F047F5
:103390002C4D00242746286B38B1FFF791FD286B90
:1033A000401E2863286B40B146E0502080F311880E
:1033B000BFF34F8FBFF36F8FFEE7A968224E012046
:1033C000D1B3A6F1B40980463068E8B1F068C468AA
:1033D00004F11800FFF722FD201DFFF71FFDE06A32
:1033E0002A6908FA00F11143296100EB800109EB19
:1033F0008100211DFFF758FDE06A2968C96A8842EB
:10340000E2D3C5F81C80DFE70CB1FFF741FCAC69E3
:1034100044B14646FFF754FF00B1EE61641EF9D196
:103420000020A861E86938B1084901273807086019
:10343000BFF34F8FBFF36F8FFFF762FD3846BDE8D4
:10344000F0870000440000207806002004ED00E032
:10345000D0350008912300080000000000000000A3
:103460008000000000000000000000002C36000872
:10347000F52D0008FDFF00000000000080000000A6
:10348000000000000000000008360008ED2D0008D4
:10349000FDFF0000000000008000000000000000B0
:1034A0000000000038360008052E0008FDFF00006F
:1034B000000000008000000000000000000000008C
:1034C00014360008FD2D0008FDFF0000000000007C
:1034D00080000000000000000000000044360008EA
:1034E000152E0008FDFF0000000000008000000015
:1034F0000000000000000000203600080D2E00082B
:10350000FDFF00000000000080000000000000003F
:1035100000000000C0350008FD280008FDFF000085
:10352000000000008000000000000000000000001B
:10353000E835000881280008FDFF000000000000B9
:10354000800000000000000000000000DC350008E2
:10355000ED280008FDFF00000000000080000000D2
:103560000000000000000000F8350008F528000801
:10357000FDFF0000000000008000000000000000CF
:1035800000000000C835000889280008FDFF000081
:1035900000000000800000000000000000000000AB
:1035A00000061016000610160000000000000000C3
:1035B00001020304060708090000000001020304D9
:1035C0004F4C45440000000042616C616E63650031
:1035D00064656661756C745461736B004D6F746FD4
:1035E000725F72756E000000416E676C655F736597
:1035F0006E736F72000000004D6F746F725F7365C1
:103600006E736F72000000005573617274315F72E7
:10361000780000005573617274325F7278000000A8
:103620005573617274335F72780000005573617274
:1036300074315F74780000005573617274325F7486
:10364000780000005573617274335F747800000075
:103650007036000800000020B40000006228000856
:1036600024370008B4000020044600007228000837
:10367000000000000000000000000000000000004A
:10368000000000000000000000000000000000003A
:10369000000000000000000000000000000000002A
:1036A0000000000001000000100000000000000009
:1036B0000024F400000000000000000000000000F2
:1036C00000000000000000000000000000000000FA
:1036D00000000000000000000000000000000000EA
:1036E00000000000000000000000000000000000DA
:1036F00000000000000000000000000000000000CA
:1037000000000000000000000000000000000000B9
:10371000000000000000000000000000AAAAAAAA01
:0437200000000000A5
:040000050800018965
:00000001FF
