:020000040800F2
:1000000080480020610200089F3A0008F53200088D
:100010009D3A0008451400089D42000800000000B9
:10002000000000000000000000000000A101000826
:10003000F914000800000000FD010008C53C00089C
:100040007B0200087B0200087B0200087B0200089C
:100050007B0200087B0200087B0200087B0200088C
:100060007B0200087B0200087B0200087B0200087C
:100070007B0200087B0200087B0200087B0200086C
:100080007B0200087B0200087B0200087B0200085C
:100090007B0200087B0200087B0200087B0200084C
:1000A0007B0200088D3D00087B0200087B020008EF
:1000B0007B0200087B0200087B0200087B0200082C
:1000C0007B0200087B0200087B0200087B0200081C
:1000D0007B0200087B0200087B0200087B0200080C
:1000E0007B0200087B0200087B0200087B020008FC
:1000F0007B0200087B0200087B0200087B020008EC
:100100007B0200087B0200087B0200087B020008DB
:100110007B0200087B0200087B0200087B020008CB
:10012000491400087B0200087B0200087B020008DB
:100130007B0200087B0200087B0200087B020008AB
:100140007B0200087B0200087B0200087B0200089B
:100150007B0200087B0200087B0200087B0200088B
:100160007B0200087B0200087B0200087B0200087B
:100170007B0200087B0200087B02000800000000F0
:100180007B0200087B020008DFF810D000F096FD2B
:1001900000480047254C0008AFF30080804800204D
:1001A0002C4B19680868B0E8F04F80F30988BFF35A
:1001B0006F8F4FF0000080F311887047000000003F
:1001C00008480068006880F308884FF0000080F35A
:1001D000148862B661B6BFF34F8FBFF36F8F00DF35
:1001E00000BF00BF08ED00E0DFF80C00016841F43B
:1001F00070010160704700BF88ED00E0EFF30980F7
:10020000BFF36F8F134B1A681EF0100F08BF20ED5D
:10021000108A20E9F04F106009B44FF0500080F3CD
:100220001188BFF34F8FBFF36F8F05F07FFB4FF047
:10023000000080F3118809BC19680868B0E8F04F25
:100240001EF0100F08BFB0EC108A80F30988BFF3CE
:100250006F8F7047D0000020EFF3058070470000DB
:100260000648804706480047FEE7FEE7FEE7FEE750
:10027000FEE7FEE7FEE7FEE7FEE7FEE77D3D00085E
:10028000890100082DE9F05F0546002092469B4653
:1002900088460646814640241BE02846414647469C
:1002A000224600F0E1FA53465A46C01A914110D353
:1002B00011461846224600F0C8FA2D1A67EB0108CD
:1002C0004F4622460120002100F0BFFA17EB00093B
:1002D0004E41201EA4F10104DFDC484631462A4687
:1002E0004346BDE8F09F40EA01039B0703D009E0C5
:1002F00008C9121F08C0042AFAD203E011F8013B12
:1003000000F8013B521EF9D27047D2B201E000F86A
:10031000012B491EFBD270470022F6E710B51346A9
:100320000A4604461946FFF7F0FF204610BD10B5F7
:10033000044604E00B7800F8013B03B1491C521E4F
:10034000F8D2204610BD421C10F8011B0029FBD139
:10035000801A70472DE9F0410E460546002400E062
:10036000641C285D00F090FA0746305D00F08CFABE
:10037000381A02D1295D0029F2D1BDE8F0810000D0
:100380000FB400B58DB010A909900B9000914FF0FB
:10039000FF300A9000200C90054806900548079011
:1003A0006A4609A80F9900F07BFA0DB05DF814FBBE
:1003B000BD080008DB0800082DE9FF5FD2E901A7AE
:1003C0004FF00008916999461446DDF838B046466A
:1003D00001988847054659EA0B0005D009E0A16954
:1003E000761C019888470546216A284688470028D8
:1003F000F5D1681C03D05FEACA7005D015E04FF054
:10040000FF3004B0BDE8F09F2068011D2160D0F8E6
:1004100000800AE05FEACA7001D108F8015BA169B7
:10042000761C7F1E019888470546002F1ADD681C40
:1004300018D0B9F1000F0DD0E81705EBD0604211CC
:1004400020F01F0059F822102A1A01209040014282
:10045000E0D107E0BBF1000FDCD1216A28468847D4
:100460000028D7D0E16901988847BBF1000F07D178
:10047000002E05DD5FEACA7002D1002188F8001065
:10048000A068B84203DDBBF1000F03D017B16FF0D5
:100490000100B6E73046B4E72DE9FF4F087883B096
:1004A0009946FF2805D0491C2D2804D0002400209F
:1004B00008E000200BE00124F9E700EB800003EBEB
:1004C0004000491C0B78FF2BF7D104B140420023B8
:1004D0000293147819461D462D2C01D02B2C04D1E3
:1004E000521C2D2C13D000240294AA461478FF2C01
:1004F0000FD00A25A3FB057801FB05814FF0000C06
:1005000003FB0C11521CE3194AEB0101EEE7012435
:10051000EAE7814453EA010002D019F5C87F06DA00
:1005200003980021C0E9001107B0BDE8F08F002555
:10053000AE4E2F46DFF8B882184600F067FBCDE9D3
:100540000001B9F1000002DAC9F1000400E004463C
:100550000023A74A1AEB030B42EB045A12E0E00710
:1005600007D02A4633463846414600F06EFA074621
:1005700088462A4633461046194600F066FA054674
:100580000E466410002CEAD1DDE90001B9F1000F3C
:100590005A46534606DA00F0CAFA3A46434600F095
:1005A000C6FA05E000F051FA3A46434600F04DFA2B
:1005B000029A0AB181F00041039AC2E90001B3E74F
:1005C0002DE9FF4F1F468DB0D7E901464FF0FF38A8
:1005D0002E2045464FF000090B90B9696D1C0E980E
:1005E0008847396A824688470028F6D1BAF1FF3F2A
:1005F0000AD024F4D064002E11DDBAF12B0F08D0FC
:10060000BAF12D0F0BD102E0404611B08DE744F452
:100610008064B9696D1C0E9888478246761E6946CB
:10062000600501D52D2000E02B208DF8000001F1A0
:10063000010B0DF1200809E0B9696D1C0E9888477F
:1006400082460F9844F40074761E0560002E02DD89
:10065000BAF1300FF0D00B998A453ED144F08004B6
:1006600006E00F99681CA9F1010944F400740860C0
:10067000B9696D1C761E0E98884782463028F0D0E6
:100680002BE00B998A4505D1200603D444F0800461
:10069000761E18E0504603F013FF08B30DF1130166
:1006A000761E44F400748B4508D2AAF130000BF892
:1006B000010B200607D5A9F1010003E0200602D4B2
:1006C00009F101008146A00502D50F99681C086058
:1006D000B9696D1C0E9888478246002ED1DC53E024
:1006E000002E51DDBAF1650F02D0BAF1450F4BD1A2
:1006F000A00549D5B9696D1C24F44074761E0E9886
:1007000088478246002E0CDD2B2804D0BAF12D0F2D
:1007100007D144F48074B9696D1C0E9888478246ED
:10072000761EE00501D52D2100E02B2108F8011BE4
:10073000CDF82C8021E00DF12901761E44F40074DF
:1007400088450CD2AAF1300010F0FF0088F80000B4
:1007500002D10B99884509D908F1010806E0E005A6
:1007600001D5244801E042F20F708146B9696D1C41
:100770000E98884782460F980560002E04DD50468B
:1007800003F09EFE0028D6D1F9690E988847FF2015
:100790008BF8000088F800000020069007904B4678
:1007A0006A4608A906A8FFF777FEA00502D46FF0F5
:1007B00001002AE714F0240F0AD0E00714D1DDE984
:1007C00006123868031D3B600068C0E900120BE0A8
:1007D000DDE9060100F056FA0146E00704D1386869
:1007E000021D3A600068016028460EE700001440D0
:1007F0000000F03FF1D8FFFF00F0004230F0004071
:100800000AD0C10D01F56071C0F3160042EA015132
:10081000C20840071143704700200146704730B5B9
:100820000B46014600202022012409E021FA02F5AE
:100830009D4205D303FA02F5491B04FA02F5284448
:10084000151EA2F10102F1DC30BD202A04DB203AA2
:1008500000FA02F1002070479140C2F1200320FA13
:1008600003F3194390407047202A04DB203A21FA11
:1008700002F00021704721FA02F3D040C2F12002B9
:100880009140084319467047A0F14101192900D849
:100890002030704702681144137801601846704791
:1008A000D16004495161044911620021116111466E
:1008B00000F036BA950800080D0D0008426842B1F4
:1008C000016811F8013B23B1521EC0E9001218461D
:1008D00070470121C160881E704742685AB1C368E1
:1008E000016843B983688B4205D0491E521CC0E998
:1008F0000012002070474FF0FF3070472DE9FE4F87
:10090000804681EA0300C00F0C46009021F00041B0
:1009100023F00045B8EB0200A94105D2404621462C
:1009200090461C460B46024623F00040104347D039
:10093000270DC7F30A00C3F30A510290401A019031
:1009400040286BDAC3F3130040F4801B00989246F2
:1009500020B10023D2EB030A63EB0B0B019859463D
:10096000C0F140025046FFF770FF06460D46504664
:100970005946019A00F0B4F910EB080061410024D7
:1009800087EA115284EAE7731A4340D0009A62B3AF
:10099000019A012A4FEA075215DC001B61EB0201A4
:1009A0004FF0004202EA0752CDE90042001C41F537
:1009B000801132462B4600F091FB03B0BDE8F08F6A
:1009C00040462146F9E7001B61EB0201001C41F59E
:1009D000801300185B412018A2F5001747EB0301B4
:1009E00040EAD570B6196D4111E06D084FEA360640
:1009F00045EAC0754FEA0752001B61EB0201001C7B
:100A000041F5801149084FEA300000195141324642
:100A10002B4603B0BDE8F04F00F051BB0098012217
:100A200040000023D0EB020263EBE0730098214604
:100A30004FEAE074B8EB000061EB0401E9E783F0F2
:100A400000435BE781F0004158E72DE9FE4F81EA62
:100A5000030404F0004421F0004100944FF0000B27
:100A600023F0004350EA01045ED052EA03045BD055
:100A7000C3F30A54C1F30A552C44A4F2F33401948D
:100A8000A0FB0254C1F3130141F48011C3F313031B
:100A900043F4801301FB024400FB034E840A970ACF
:100AA00044EA815447EA8357A4FB076802958D0AFC
:100AB00005FB07854FEA932C04FB0C542705029D88
:100AC0004FEA065847EA1637B5EB08056EEB070CF8
:100AD000870E920E47EA811742EA8312A7FB0201B2
:100AE000B6EB0B0164EB00042B0D43EA0C335E18EC
:100AF00044EB1C50DA465146E7FB0201C5F31304F0
:100B00004FEA0B3343EA14534FEA0432019C43EAA1
:100B10000603A4F10C040294009CCDE900B400F09B
:100B2000DDFA03B0BDE8F08F00200146F9E72DE9BA
:100B3000F04D81EA030404F0004B21F00045144617
:100B40004FF0000A23F0004150EA050220D054EA99
:100B500001021DD0C5F30A570246C5F31303C1F3C2
:100B60001300C1F30A5640F4801543F48013A7EB39
:100B70000608101BD64608F2FD3873EB050002D3B9
:100B800008F1010801E092185B41B8F1000F03DAA7
:100B900000200146BDE8F08D00204FF4801106468C
:100BA00084460EE0171B73EB050705D3121B63EB9E
:100BB000050306434CEA010C49084FEA300092183D
:100BC0005B4150EA0107EDD152EA030012D082EAFC
:100BD000040083EA0501084305D0101BAB4106D28F
:100BE0000122002306E000224FF0004302E06FF0F4
:100BF000010253101AEB06004CEB085110EB0A00EF
:100C000041EB0B01BDE8F04D00F059BA0EB540F2D2
:100C1000334202920022CDE90022134600F05EFA30
:100C200003B000BDC1F30A52C1F3130140F2FF3318
:100C300041F480119A4202DA00200146704740F2E6
:100C400033439A42A2F2334202DC5242FFF70CBE17
:100C5000FFF7FBBD30B5041E71F1000404DB4FF05B
:100C60000044404264EB0101141E73F1000405DBF3
:100C70001C464FF00043524263EB0403994208BF05
:100C8000904230BD01F0004330B421F0004150EA01
:100C9000010206D00A0DA2F56072C1F31301002A09
:100CA00002DC30BC00207047440F44EAC104C1009C
:100CB000E01830BC00EBC25000F0CAB9064C074D3A
:100CC00006E0E06840F0010394E80700984710341C
:100CD000AC42F6D3FFF75CFA146F0008346F0008DB
:100CE000202A06DBCB17203A41FA02F043EAE073F0
:100CF00006E041FA02F3D040C2F1200291400843DD
:100D00001946704700487047E06E000810B5044669
:100D1000FFF7F8FF0068005D00F0010010BD000063
:100D20002DE9F34F8BB04FF0000801F10C000C4699
:100D30004FF0010B46460DF1080A0190626901214E
:100D400001989047051E2DD0252D2CD0216A88476B
:100D5000C0B16269012101989047216A8847002843
:100D6000F7D1411E62690198904700E0761CA169A5
:100D70000B988847216A88470028F7D1E1690B98CA
:100D80008847DBE7A1690B9888470746A84201D14D
:100D9000761CD3E7E1690B9888477F1C02D1B8F134
:100DA000000F6FD047E1002762693D463946019840
:100DB00090472A2804D162690121019890470125B2
:100DC000DFF888926269012101989047A0F1300113
:100DD0000A290AD24F45E5DC07EB870100EB410702
:100DE000303FDFD445F01005ECE7E90601D46FF0A1
:100DF00000476C280AD04C2814D0682815D06A28DF
:100E00000DD074281CD07A281AD01DE06269012107
:100E1000019890476C2802D045F0040514E045F095
:100E200002050DE045F020050AE062690121019804
:100E30009047682802D045F0080505E045F40065B4
:100E40006269012101989047C4E9015765283DD0A6
:100E500019DC58287AD00CDC452837D004DC25284A
:100E600026D0412831D131E046282FD047282CD137
:100E70002CE05B2877D0612828D063287CD06428B8
:100E800023D15AE0D1E06F2848D008DC66281DD075
:100E900067281BD0692821D06E2816D127E070283A
:100EA00045D0732868D0752847D078280DD14DE0FB
:100EB000A1690B988847054625283FF469AFE16989
:100EC0000B9888476D1C3FF46AAFB4E023466A462E
:100ED0006FF001000B99FFF773FB9FE045F04000B6
:100EE0006060A80723464FF0000236D43EE0E807D2
:100EF0007FF447AF2068011D21600068290501D5F6
:100F000006701BE7290701D5068017E7A90703D557
:100F1000F117C0E9006111E706600FE745F04000F6
:100F20006060A80723464FF0080216D41EE040F682
:100F30000E0125EA0100606016E045F040006060A7
:100F4000A80723464FF00A0207D40FE045F04000FF
:100F50006060A80708D5234610226FF001000B99A6
:100F6000AFF300805AE007E0234610226FF0010043
:100F70000B99AFF3008051E04FF000094F464B460C
:100F8000632802D05B2807D041E02079C00601D455
:100F90000120A06001273AE0626901210198904791
:100FA0005E2805D14FF001096269494601989047D2
:100FB000216939B900210A46534643F82120491CCA
:100FC0000829FADBB0B3216969B9C11700EBD16216
:100FD00053110AEB830122F01F02821A01200B68D1
:100FE000904003430B6062690121019890475D289E
:100FF000E8D1B9F1000F09D00020514651F8202066
:10100000D24341F82020401C0828F7DB02AB2246DF
:1010100000976FF001000B99FFF7CEF900280CDA6A
:10102000401C08D1BBF1000F05D04FF0FF300DB0D0
:10103000BDE8F08FFFE74046F9E7E90701D108F185
:10104000010806444FF0000B78E60000CCCCCC0C35
:101050000029A8BF7047401C490008BF20F00100CC
:10106000704710B4B0FA80FC00FA0CF050EA0104AA
:1010700004BF10BC704749B1CCF1200421FA04F43C
:1010800011FA0CF118BF012121430843A3EB0C0115
:10109000CB1D4FEA00614FEA102042BF002010BC78
:1010A000704700EBC35010440029A4BF10BC704728
:1010B000401C490008BF20F0010010BC704710B56B
:1010C000141E73F1000408DA401C41F1000192186B
:1010D0005B411A4301D120F0010010BD2DE9F04D14
:1010E00092469B4611B1B1FA81F202E0B0FA80F269
:1010F00020329046FFF7A9FB04460F4640EA0A005B
:1011000041EA0B0153465A46084313D0114653EAAD
:10111000010019D0C8F140025046FFF7A5FB054673
:101120000E46504659464246FFF78FFB084305D00E
:10113000012004E020463946BDE8F08D002005433B
:1011400046EAE0762C4337430A986305E40AA0EBAD
:1011500008000022FD0A44EA47540A3002D5002064
:101160000146E9E7010510196941DDE90845001963
:101170006941BDE8F04DA2E770B58C1810F8015B2D
:1011800015F0070301D110F8013B2A1106D110F820
:10119000012B03E010F8016B01F8016B5B1EF9D124
:1011A0002B0705D40023521E0DD401F8013BFAE7AA
:1011B00010F8013BCB1A921C03E013F8015B01F815
:1011C000015B521EF9D5A142D8D3002070BD10B5E5
:1011D0000146806B026C12F0500F05D0026CD206F3
:1011E00026D500F043FA10BD016C41F40071016492
:1011F00001688A6812F0405F17D1027EAAB9CA6AF4
:1012000012F4700F02D08A6852050ED44A6822F098
:1012100020024A60016C21F480710164016CC904F0
:1012200003D4016C41F00101016400F01DFA10BD0E
:10123000806BC26CBDE810400846104710B5806B4B
:1012400040210164416C41F00401416400F00EFA58
:1012500010BD10B5806B00F008FA10BD464910B5FE
:101260004A6822F440324A604A6843681A434A6036
:1012700001684A6822F480724A6001684A6803691A
:1012800042EA03224A6001684A6822F040724A60DA
:1012900001684A6883681A434A6001688A6822F4D0
:1012A00000628A6001688A68C3681A438A60816A3A
:1012B0006FF07062D14201688A6822F070628A60C1
:1012C00001688A680CD0836A1A438A6001688A6858
:1012D00022F040528A6001688A68C36A1A4301E0BA
:1012E00022F040528A6001688A6822F002028A6015
:1012F00001688A68037E42EA43028A6090F82010FF
:10130000002901684A680FD042F400624A6001680F
:101310004A6822F460424A6001684A68174C436A8E
:1013200004EB43331A4301E022F400624A6001688F
:10133000CA6A22F47002CA620168CA6A838B104CBE
:1013400004EB03531A43CA6201688A6822F40072EC
:101350008A6001688A6890F8303042EA43228A60E5
:1013600001688A6822F480628A6001688A6840693C
:1013700042EA8020886010BD0023014000E0FFFFAA
:101380000000F0FF70B5054627482DED028B01885F
:10139000408800EE101AB8EE400A00EE900A234C86
:1013A000F8EE608AD4ED010A04F00CF9F0EE400A80
:1013B000B0EE680AB0EE608AD4ED020A04F002F9D9
:1013C000DFED1B0A9FED1D2A78EE601ADFED190A8A
:1013D00030EE422A81EEA01ADFED171AC2EE202A63
:1013E00021EE211A62EEA11A85EC021AD4ED030A4D
:1013F00031EE602ADFED120AC2EE202AC5ED022A84
:1014000094ED042A31EEC22AC2EE202AC5ED032A49
:1014100084ED018A84ED020A84ED031AC4ED041AF6
:10142000BDEC028B70BD0000000000201400002005
:1014300000803B4500F07F450000B44300A02A45F2
:101440000AD7233CFEE70000014800F033BA000051
:10145000EC03002001681823CAB2103AB2FBF3F281
:10146000054B6FF30901032A9B5CC36500D9091D75
:1014700081650846704700003C6E000810B50146C3
:1014800000208B698A6A4FF0C07453B1B3F5005FD6
:1014900015D072B1012A0CD0022A0AD0032A09D130
:1014A00004E01AB1012A06D0022A03D1C96AC9018F
:1014B00000D5012010BDC96AA142FAD010BD002A92
:1014C000F7D0012AF2D0022AF3D0032AF3D010BDBC
:1014D00030B50468256825F48025256004686360BC
:1014E0008368402B036803D099600068C26030BDF8
:1014F0009A600068C16030BD704772B64FF4807466
:10150000204602F061F8C82000F046FB204602F0B9
:1015100073F8C82000F040FBF2E7000078B5002423
:10152000009490F83C20012A19D0012280F83C2038
:101530000A6807230568092A13D9EE680A3A02EBFC
:10154000420293409E43EE600B788A680A3B03EBAD
:1015500043039A400368DD682A43DA6010E0022002
:1015600078BD2E6902EB420293409E432E610B78B8
:101570008A6803EB43039A4003681D692A431A6192
:101580004A681F23072A13D205686E6B521E02EBAE
:10159000820293409E436E630B790A885B1E92B26F
:1015A00003EB83039A4003685D6B2A435A6327E089
:1015B00005680D2A12D22E6BD21F02EB82029340D5
:1015C0009E432E630B790A88DB1F92B203EB8303E1
:1015D0009A4003681D6B2A431A6311E0EE6A0D3AC4
:1015E00002EB820293409E43EE620B790A880D3B28
:1015F00092B203EB83039A400368DD6A2A43DA62FE
:10160000164B0568144A9D4206D10D68122D03D170
:10161000556845F48005556005689D4218D10B68F2
:10162000102B01D0112B13D1536843F400035360E6
:10163000096810290CD10A490A4A0968B1FBF2F17C
:1016400001EB8101490000E0491E00910029FBD116
:1016500080F83C40002078BD00230140002001407C
:10166000CC00002040420F0070477047704770B5B3
:1016700004004FF0000503D0206C002610B107E0F5
:10168000012070BD204600F01DF8666484F83C60BF
:10169000206CC00610D4206C20F4885040F002006A
:1016A00020642046FFF7DAFD6664206C20F002001B
:1016B00040F00100206400E0012584F83C602846E9
:1016C00070BD000070B586B0064614216846FEF76E
:1016D00023FE1D493068884234D11C48002501682A
:1016E00041F480710160006800F480700590174833
:1016F0001438016841F0010101600068694600F09A
:1017000001000590142000900320CDE90105104848
:1017100000F008FB104C0F48C4E900050015A56057
:10172000C4E90350400060618000A0614011C4E939
:1017300007052046656200F08DF908B1FFF7DDFE70
:10174000B463A66306B070BD002001404438024077
:101750000000024010640240EC030020F8B50E4681
:1017600000210446009190F83C0013460A460128E7
:1017700007D0012084F83C0020688568ED0702D07E
:1017800011E00220F8BD856845F0010585604048FC
:10179000404D0068B0FBF5F000EB400000E0401E5B
:1017A00000900028FBD120688568ED0503D5856889
:1017B00025F48075856020688568ED075DD0226C12
:1017C00040F20165AA4342F48072226440684005F9
:1017D00005D5206C20F4005040F480502064206C2B
:1017E000C00404D5606C20F00600606400E0616411
:1017F00084F83C10A16B2948274DC863A16B284889
:101800000864A16B2748C86421686FF02200086053
:101810002068416841F0806141602068816841F43E
:1018200080718160216832464C31A06B00F07CF9F8
:10183000024668681C49C006206806D0884224D148
:10184000816811F0405F13D01FE08842F8D0174B39
:10185000984203D1D1F80433DB06F1D0144B9842FF
:1018600013D1D1F8041301F01F011029E8D30CE0C3
:10187000816841F08041816007E0206C40F01000F9
:101880002064606C40F0010060641046F8BD000008
:10189000CC00002040420F0000230140CF1100087F
:1018A000531200083D1200080020014000210140B1
:1018B000002201402DE9F84304464FF00009CDF81D
:1018C000009063484FF41651A56D0068B0FBF1F726
:1018D0002E6894F85C10082000FA01F131420FD014
:1018E00021680A6852070BD50A6822F004020A60D0
:1018F00094F85C108840A860606D40F0010060655D
:1019000094F85C104FF0010808FA01F0304208D05A
:1019100021684969090604D5A860606D40F002009D
:10192000606594F85C1004208840304208D021683B
:101930000968890704D5A860606D40F004006065FF
:1019400094F85C1010208840304218D02168096853
:10195000090714D5A86020680168490304D5006808
:10196000000308D5A16C07E00168C90503D401682C
:1019700021F008010160216C09B12046884794F8E4
:101980005C1020208840304231D021680968C906A7
:101990002DD5A86094F8350005282068016806D088
:1019A000490347D5006800031DD4616C1CE021F099
:1019B000160101602068416921F080014161206CBD
:1019C00008B9A06C20B12068016821F0080101600D
:1019D00094F85C103F208840A86084F8358084F833
:1019E0003490216D1FE0E16B09B120468847606D9E
:1019F00000282BD0606DC00714D0052084F8350076
:101A00002068016821F0010101600098401C0090ED
:101A1000B84203D820680068C007F6D184F8358042
:101A200084F83490E16C002910D001B02046BDE864
:101A3000F04308470168C905D5D4016821F01001B9
:101A4000016084F8358084F83490CCE7BDE8F883F1
:101A5000CC0000202DE9F041044600F069FA06466A
:101A60005CB1022084F83500002584F834502068E9
:101A7000016821F0010101600DE00120BDE8F08165
:101A800000F056FA801B052805D920206065032048
:101A900084F83500F2E720680068C007F0D12268BA
:101AA000116820480140D4E901031843D4E9033602
:101AB0003343184363691843A3691843E369184320
:101AC000236A18430843616A042903D1D4E90B133C
:101AD00019430843106020684069666A20F00701D6
:101AE00030460E43012704280CD1A06A0643E06A61
:101AF00040B12046FFF7C2FC20B14020606584F869
:101B00003570BAE7206846612046FFF7A3FC94F8D9
:101B10005C203F2191408160656584F8357000202C
:101B2000ACE700003F8010F02DE9F0410446866DDF
:101B300090F83400002501280DD0012084F83400ED
:101B400094F835700020012F07D084F83400022566
:101B50002846BDE8F0810220FBE7022784F83570B3
:101B600060652046FFF7B4FC94F85C103F20884085
:101B7000B0602068016841F016010160206C20B15E
:101B80002068016841F0080101602068016841F0A7
:101B900001010160DCE7000070B5044600F0C8F9FF
:101BA0000546601C02D004480078044400F0C0F9E7
:101BB000401BA042FAD370BDC00000202DE9F04FB9
:101BC0000022DFF838B101264FF00F0906FA02F4BF
:101BD00001EA0403A3427DD122F003075F44D7F852
:101BE000088895074FEA157C09FA0CFA0AEA0805F5
:101BF000DFF80C81404502D14FF0000832E0DFF8F9
:101C00000481404502D14FF001082BE0DFF8F88055
:101C1000404502D14FF0020824E0DFF8F080404553
:101C200002D14FF003081DE0DFF8E480404502D107
:101C30004FF0040816E0DFF8DC80404502D14FF099
:101C400005080FE0DFF8D080404502D14FF00608CC
:101C500008E0DFF8C880404502D14FF0070801E0F6
:101C60004FF0080808FA0CF8A84522D12C4DD5F8F9
:101C700000C02CEA030CC5F800C005F1040CDCF828
:101C800000509D43CCF80050254D0C35D5F800C0D0
:101C90002CEA030CC5F800C02D1FD5F800C02CEAB3
:101CA000030CC5F800C0D7F8085825EA0A05C7F89C
:101CB0000858056857000323BB409D430560D508BD
:101CC00000EB8505D5F820C057074FEAD76809FA19
:101CD00008F700E00CE02CEA070CC5F820C0C56846
:101CE0009D43C5604568A543456084689C43846006
:101CF000521C102AFFF46AAFBDE8F08F003001409B
:101D0000000002400004024000080240000C0240B3
:101D1000001002400014024000180240001C024063
:101D2000003C01402DE9F84FDFF8BCA1002201255D
:101D300003264FF00F090AF1040BAAF1040E00BFAD
:101D40000B6805FA02F42340A34270D10F7907F023
:101D50000307012F01D0022F16D187684FEA4208EE
:101D600006FA08FC27EA0C07D1F80CC00CFA08FCAC
:101D70004CEA070CC0F808C04768A7430C79C4F3C5
:101D8000001494403C4344600C79E443A4070AD017
:101D9000C4684FEA420C06FA0CF7BC438F6807FA96
:101DA0000CF72743C7600C7904F00304022C12D10E
:101DB000D40800EB840CDCF820405707FF0E09FA2A
:101DC00007F824EA0804D1F8108008FA07F848EA6E
:101DD0000408CCF8208004684FEA420C06FA0CF79D
:101DE000BC430F7907F0030707FA0CF72743076096
:101DF0004C6814F4403F70D03C4C276847F480474F
:101E00002760246822F0030704F480440094384CCF
:101E100007EB040CDCF8084897074FEA177809FA33
:101E200008F7BC43334FB84202D1002724E054E006
:101E3000314FB84201D101271EE0304FB84201D1E5
:101E4000022719E02E4FB84201D1032714E02D4F8D
:101E5000B84201D104270FE02B4FB84201D105272A
:101E60000AE02A4FB84201D1062705E0284FB842C0
:101E700001D1072700E0082707FA08F72743CCF825
:101E80000878DAF800405746D1F804C09C435FEA6E
:101E9000CC2C00D51C433C60DBF800405F46D1F8F9
:101EA00004C09C435FEA8C2C00D51C433C60DEF8E8
:101EB00000407746D1F804C09C435FEA8C3C00D5D3
:101EC0001C433C60084F083F3C68D1F804C09C4369
:101ED0005FEACC3C00D51C433C60521C102AFFF446
:101EE0002FAFBDE8F88F0000083C014044380240A5
:101EF000003001400000024000040240000802409F
:101F0000000C024000100240001402400018024081
:101F1000001C0240426921EA02030A4043EA0241EE
:101F2000816170470AB1816170470904FBE70000D5
:101F30000148806870470000C000002070B50400B0
:101F400025D094F83D00002520B984F83C50204667
:101F500000F050F9242084F83D002068016821F049
:101F6000010101602068016841F4004101602068BE
:101F7000016821F40041016000F0F0FA4D4A616807
:101F8000914201D84C4900E04C49884201D20120DD
:101F900070BD4B492368B0FBF1F15E6826F03F0647
:101FA0000E435E606368934206D94FF496735943BB
:101FB0004FF47A73B1FBF3F12368491C1E6A26F0D3
:101FC0003F06314319626168914210D84900401EB2
:101FD000B0FBF1F2521CC2F30B02042A01D204201E
:101FE00022E0B0FBF1F0401CC0F30B001CE0A26843
:101FF000F2B301EBC10303EB0116431EB3FBF6F38F
:102000005B1C43F480431B0549D092B301EBC10232
:1020100002EB0111401EB0FBF1F0401CC0F30B00BD
:1020200040F4804040F400402168CA694CF6FF73D8
:102030009A431043C861D4E907100143206802683D
:1020400022F0C00211430160D4E90301014320687A
:10205000826848F2FF339A4311438160D4E9050155
:1020600008432168CA6822F0FF021043C86001E0FB
:102070000EE016E02068016841F00101016025646E
:10208000202084F83D00256384F83E50002070BD78
:1020900001EB4106431EB3FBF6F35B1CB3E70120E3
:1020A000C2E701EB4101401EB0FBF1F0401CC0F360
:1020B0000B00B7E7A086010080841E0000093D00E8
:1020C00040420F002DE9FF4F83B09A46DDE911979A
:1020D00093460446DDF84080FFF72AFF054694F852
:1020E0003D0020287FD11923012240492046009538
:1020F00001F098F9002876D194F83C00012872D0BC
:10210000012084F83C0020680168C90703D10168F8
:1021100041F0010101602068016821F40061016063
:10212000212084F83D00402084F83E0000262664EB
:10213000C4F82480A4F82A90608D20852C48E062A1
:10214000CDE9007553465A462046049901F0EAF855
:1021500070B930E02A463946204601F009FA58B1F4
:10216000206C042804D12068016841F400710160EA
:10217000012007B0BDE8F08F606A2168007808612F
:10218000606A401C6062218D491E89B22185628D82
:10219000521E628522685369DB435B070BD469B129
:1021A00000781061606A401C6062208D401E2085AE
:1021B000608D401E6085208D0028CBD12A4639468F
:1021C000204601F003F90028CAD154F83D0B0168FC
:1021D00041F400710160202004F81E09E67766775B
:1021E0000020C6E7FFE70220C3E70000020010005E
:1021F0000000FFFF10B586B0044614216846FEF7C4
:102200008BF814492068884221D11348016841F0B5
:10221000020101600068694600F0020005904FF479
:102220004070009012200190012002900320039042
:10223000042004900948FFF775FD07481030016835
:1022400041F400110160006800F40010059006B030
:1022500010BD00000054004030380240000402402D
:10226000024881680278114481607047C0000020F4
:102270000B4810B5016841F400710160016841F438
:1022800080610160016841F480710160032000F009
:1022900099F80F2000F006F800F04AF8002010BD71
:1022A000003C024030B505461C4887B00024016858
:1022B00041F001010160006806A900F001000090F2
:1022C00001A800F02BF900F059F915494000B0FBC6
:1022D000F1F11548134A491E026040F2E732C0E9A5
:1022E0000324C0E90114846100F088FB040012D1CA
:1022F0000D4800F0C5FB04000DD1192000F034F8A2
:10230000102D07D200222946192000F03BF807487B
:10231000056000E0012407B0204630BD443802408B
:1023200040420F000000014008060020C4000020C9
:102330000C4882B0016841F480410160006800F4FB
:10234000804000900748001F016841F08051016003
:102350000068002200F0805000900F21901E02B013
:1023600000F010B844380240002809DB00F01F02DA
:10237000012191404009800000F1E020C0F80011E7
:1023800070470000F0B40E4B1B680C46C3F30223E9
:10239000C3F10705042D00D90425191D072901D211
:1023A000002300E0DB1E012606FA05F1491E21404C
:1023B00099409E40761E16403143F0BC01F09EBF0E
:1023C0000CED00E0064900F0070208684FF6FF0335
:1023D000184040EA0220034A10430860704700009A
:1023E0000CED00E00000FA052DE9F0470E4605006F
:1023F00065D0DFF81481D8F80000F7B200F00700CC
:10240000B04207D288F80070D8F8000000F007004A
:10241000B04254D128683D4C810712D5400703D5FE
:10242000206840F4E05020602878000703D5206839
:1024300040F4604020602068A96820F0F000084364
:1024400020602878C0072DD03049686808390128F5
:1024500012D0022813D0032811D009688907002957
:102460002DDA216821F0030101432160FFF760FDAF
:10247000814641F2883A0EE009688903EFE709686E
:102480008901ECE7FFF754FDA0EB0901514502D9A2
:102490000320BDE8F0872068696800F00C00B0EB0D
:1024A000810FEFD1D8F80010404601F00701B1428A
:1024B00007D90770006800F00700B04201D0012082
:1024C000E7E72878400705D52068E96820F4E05060
:1024D000084320602878000706D52068296920F481
:1024E000604040EAC100206000F058F82168084AC6
:1024F000C1F30311515CC8400649086006480068F2
:10250000FFF7D0FE0020C4E7003C0240083802403C
:10251000446E0008CC000020C40000200F2202609E
:102520000C4A136803F003034360136803F0F003DD
:102530008360136803F4E053C36012684FF4E05300
:1025400003EAD20202610448006800F00700086054
:102550007047000008380240003C0240044805492A
:1025600000680968044AC1F38221515CC840704781
:10257000CC00002008380240546E00080448054989
:1025800000680968044AC1F34231515CC840704791
:10259000CC00002008380240546E0008154810B5E1
:1025A000006810F00C02144813D04110042A0FD018
:1025B000082A0ED10F4C241F2268236802F03F0224
:1025C0005B0207D52068C0F38810A0FB010106E07C
:1025D000084610BD2168C1F38811A1FB000100234A
:1025E000FDF750FE2168C1F30141491C4900B0FBD1
:1025F000F1F010BD083802400024F4002DE9F84F36
:1026000004006ED02078DFF84C93C007A9F10405D0
:102610004AD009F104000168C1F38101012908D001
:102620000068C0F3810002280AD1D9F800004002F6
:1026300006D52868800337D560680028E1D033E0EC
:102640006068B0F5803F10D0B0F5A02F286810D09A
:1026500020F480302860286820F48020286060689A
:10266000A8B1FFF765FC06460DE0286840F480300D
:10267000F4E740F480202860F7E700BFFFF758FC3C
:10268000801B642873D828688003F7D50CE0FFF717
:102690004FFC064605E000BFFFF74AFC801B64289C
:1026A000F0D828688003F7D42078DFF8AC82800760
:1026B0004FF0000A3ED5A748001D016811F00C0F2D
:1026C00008D00068C0F3810002280BD1D9F80000BF
:1026D000400207D42868800716D5E068012800D199
:1026E00012E033E1E068B8B10120C8F80000FFF75C
:1026F0001FFC064605E000BFFFF71AFC801B0228FE
:10270000C0D828688007F7D52868216920F0F8002C
:1027100040EAC10028600DE0C8F800A0FFF708FCFF
:10272000064604E0FFF704FC801B02281FD8286837
:102730008007F7D42078000722D5864F8748616943
:10274000703771B101210160FFF7F2FB064604E02A
:10275000FFF7EEFB801B022809D838688007F7D501
:102760000EE0C0F800A0FFF7E3FB064605E082E0BC
:10277000FFF7DEFB801B02287DD838688007F7D47E
:102780002078400768D5DFF8CCB100270BF13C0B6F
:10279000DBF80000C0000BD4DBF8001041F08051E2
:1027A000CBF80010DBF80000012700F0805000900B
:1027B0006B4E3068C00510D4306840F480703060D3
:1027C000FFF7B6FB009005E0FFF7B2FB0099401A57
:1027D000022850D83068C005F6D55E4EA0686C3629
:1027E00001280FD00528306810D020F0010030609B
:1027F000306820F004003060A068B8B1FFF798FBA3
:1028000000900FE0306840F00100F4E740F0040071
:102810003060F7E7FFF78CFB0099411A41F28830EE
:10282000814266D830688007F4D50EE0FFF780FB60
:10283000009007E0FFF77CFB0099411A41F28830D5
:10284000814256D830688007F4D42FB1DBF80010ED
:1028500021F08051CBF80010A069C8B33D49091D93
:102860000968C1F3810102294AD00228504607D0E5
:10287000C8F8600000E03CE0FFF75AFB04463BE08C
:102880004746C8F86000FFF753FB064605E000BF67
:10289000FFF74EFB801B02282BD828688001F7D455
:1028A000D4E907010843A16A2E4A490802EB014115
:1028B000626A41EA8211084394F82C1040EA0161EF
:1028C000C9F8001001203866FFF732FB044606E025
:1028D0003EE000BFFFF72CFB001B022809D8286848
:1028E0008001F7D534E000BFFFF722FB001B022870
:1028F00002D90320BDE8F88F28688001F4D427E0CE
:102900000128F7D0D9F80000E26900F48001914273
:102910001CD1226A00F03F01914217D147F6C071E5
:10292000626A0140B1EB821F10D1A26A4FF0FF33FF
:1029300000F4403103EB5202B1EB024F06D194F8A0
:102940002C1000F07060B0EB016F01D00120D1E7D6
:102950000020CFE70438024000004742800E474283
:10296000007000400000FFFF7047704770B590F89E
:102970003C20012A32D0012480F83C40022280F819
:102980003D2003685A689D6822F070060A68324349
:102990005A60134B02689A4214D0B2F1804F11D0A2
:1029A000104B9A420ED0104B9A420BD00F4B9A42CA
:1029B00008D00F4B9A4205D00E4B9A4202D00E4BD4
:1029C0009A4204D1496825F080031943916080F848
:1029D0003D40002180F83C10084670BD022070BDCB
:1029E000000001400004004000080040000C0040CE
:1029F00000040140004001400018004010B50400F0
:102A000003D094F83D0010B107E0012010BD002074
:102A100084F83C00204600F01FF8022084F83D00B6
:102A2000211D206801F0B8F9012084F8460084F8DF
:102A30003E0084F83F0084F8400084F8410084F8A8
:102A4000420084F8430084F8440084F8450084F888
:102A50003D00002010BD000008B50068064988420E
:102A600008D10648016841F002010160006800F0E9
:102A70000200009008BD0000000400404038024001
:102A800090F83D10012901D001207047022180F803
:102A90003D100168CA6842F00102CA60006811492D
:102AA000884214D0B0F1804F11D00F4988420ED027
:102AB0000E4988420BD00E49884208D00D49884201
:102AC00005D00D49884202D00C49884204D1816862
:102AD00001F00701062903D0016841F001010160FE
:102AE0000020704700000140000400400008004042
:102AF000000C00400004014000400140001800406C
:102B000070B5044690F83C000025012817D0012636
:102B100084F83C60022084F83D002068826822F03E
:102B2000770222F47F4282600868502838D00DDC9A
:102B300020284FD005DC90B3102811D14AE00220A4
:102B400070BD302846D040280AD13BE060282FD005
:102B500070280DD0B0F5805F03D0B0F5005F12D0C3
:102B6000012584F83D60002084F83C00284670BDB3
:102B7000CB68D1E90121206801F083F920688168E0
:102B800041F0770109E0CB68D1E90121206801F02B
:102B900078F92068816841F480418160E1E719E0BB
:102BA000CA684968206801F041FA5021206806E0AF
:102BB000CA684968206801F04AFA6021206801F07B
:102BC0006AF9CEE7CA684968206801F02FFA402107
:102BD0002068F4E7226801461046F0E72DE9F0414D
:102BE0000D46040003D094F83D0018B108E0012020
:102BF000BDE8F081002084F83C00204600F040F859
:102C0000022084F83D002068816844F20702914365
:102C10008160211D206801F0BFF8226890689169E9
:102C2000166A2B68AF69034340F20330814341EADF
:102C30000721A868EF6908434FF6FC418843E9681B
:102C400040EA0720014328692F6A000140EA073063
:102C5000084369686D6926F0AA0646EA0515294306
:102C600093602268906154F8460B0162012004F8D9
:102C70001F09E0752076E0762077A0750020B7E781
:102C800010B586B0044614216846FDF745FB206860
:102C9000B0F1804F1FD111480021026842F00102BB
:102CA0000260006800F0010005900C4810380268CE
:102CB00042F001020260006800F00100059003206C
:102CC00000900220CDE901010120CDE90310694601
:102CD0000348FFF727F806B010BD00004038024057
:102CE0000000024070B590F83E60044690F83F50F6
:102CF00090F8423090F84320022021B104290ED0F0
:102D0000012E1BD114E0012E18D1012B16D184F80D
:102D10003E0084F8420001220021206820E0012DBD
:102D20000CD1012A0AD184F83F0084F8430014E052
:102D3000012D03D1012B01D1012A01D0012070BD49
:102D400084F83E0084F83F0084F8420084F8430091
:102D500001220021206801F087F801220421206867
:102D600001F082F82068016841F001010160002053
:102D700070BD70472DE9F04104460068C6680569DA
:102D80004FF00007A90713D5B10711D5F91E01614E
:102D900001202077206880698007204602D0FFF755
:102DA000E8FF04E000F0A6F8204600F038F92777A5
:102DB000680716D5700714D521686FF00400086104
:102DC000022020772068806910F4407F204602D0DE
:102DD000FFF7CFFF04E000F08DF8204600F01FF968
:102DE0002777280715D5300713D521686FF008001D
:102DF0000861042020772068C0698007204602D03F
:102E0000FFF7B7FF04E000F075F8204600F007F97F
:102E10002777E80616D5F00614D521686FF0100064
:102E20000861082020772068C06910F4407F2046A0
:102E300002D0FFF79EFF04E000F05CF8204600F0AF
:102E4000EEF82777E80708D0F00706D021686FF082
:102E500001000861204600F047F9280608D5300631
:102E600006D521686FF0800008612046FFF77CFDE1
:102E7000680608D5700606D521686FF04000086125
:102E8000204600F03BF9A8060AD5B00608D521680F
:102E90006FF0200008612046BDE8F041FFF765BDF6
:102EA000BDE8F08110B586B0044614216846FDF7F0
:102EB00033FA0D492068884214D10C480021026879
:102EC00042F001020260006800F001000590C0209D
:102ED00000900220CDE90101CDE9031069460448C4
:102EE000FEF720FF06B010BD00040040303802405D
:102EF00000000240704770B5044690F83C00002680
:102F00000D4601280FD0012084F83C006AB1042A44
:102F10001DD0082A2FD00C2A3FD00126002084F88B
:102F20003C00304670BD022070BD206800F0BCFF40
:102F30002068816941F0080181612068816921F080
:102F400004018161206881692A69114311E02068C8
:102F500000F0DAFF2068816941F400618161206836
:102F6000816921F480618161206881692A6941EA6F
:102F700002218161D2E7206800F0FCFF2068C1696E
:102F800041F00801C1612068C16921F00401C161FB
:102F90002068C1692A69114311E0206801F01EF818
:102FA0002068C16941F40061C1612068C16921F4F0
:102FB0008061C1612068C1692A6941EA0221C16159
:102FC000ACE710B5040003D094F83D0010B107E061
:102FD000012010BD002084F83C00204600F01EF8BF
:102FE000022084F83D00211D206800F0D5FE01205C
:102FF00084F8460084F83E0084F83F0084F84000DE
:1030000084F8410084F8420084F8430084F84400C6
:1030100084F8450084F83D00002010BD70477047DB
:1030200010B50446022249B104290ED0082913D054
:1030300094F84100012816D0012010BD94F83E00FC
:103040000128F9D184F83E200FE094F83F000128D0
:10305000F2D184F83F2008E094F840000128EBD139
:1030600084F8402001E084F841200122206800F02B
:10307000FBFE16492068164A884201D0904203D1CF
:10308000436C43F4004343642068884213D0B0F19A
:10309000804F10D00F4988420DD00F4988420AD086
:1030A0000E49884207D0904205D00D49884202D08F
:1030B0000C49884204D1816801F00701062903D038
:1030C000016841F001010160002010BD00000140D5
:1030D000000401400004004000080040000C0040D3
:1030E000004001400018004000680349884201D1B7
:1030F000FFF7B6B87047000000000140704770B598
:10310000040004D094F84100002510B106E001202D
:1031100070BD84F84050204600F024F8242084F844
:1031200041002068C16821F40051C160204600F0D0
:10313000C7FF2068016921F490410161206841695D
:1031400021F02A0141612068C16841F40051C16049
:103150006564202084F8410084F842006563002003
:1031600070BD0000F0B587B0044614216846FDF735
:10317000D3F8314A2668002130480223032407256A
:1031800096421AD12D4A1432166846F0100616607F
:10319000126802F010020592026842F00102026019
:1031A000006802AA00F00100059082E83200600287
:1031B000CDE90003694622481CE0204A214F103225
:1031C000BE421BD1166846F400361660126802F43F
:1031D00000320592026842F008020260006802AE06
:1031E00000F00800059086E832006020CDE9000379
:1031F00069461548FEF796FD07B0F0BD134FBE4275
:10320000FAD1166846F480261660126802F480220D
:103210000592026842F002020260006802AE00F00D
:103220000200059086E832004FF44060CDE90003CB
:1032300069460748DEE700000010014030380240D0
:103240000000024000440040000C024000480040E2
:10325000000402402DE9F843044690F841009846E6
:1032600016460D46202802D00220BDE8F88385B11D
:103270007EB100206064212084F84100FEF758FEF2
:10328000A6848146E684A0682027B0F5805F02D03E
:1032900003E00120E9E7206910B12E4600250EE089
:1032A00000260CE08021204600F090FFA8B9C6B1AE
:1032B00016F8010B21684860E08C401EE084E08C29
:1032C0004B464FF00002CDF800800028EAD14FF0C5
:1032D0004001204600F07AFF40B184F8417003209D
:1032E000C3E735F8020BC0F30800E3E784F8417048
:1032F0000020BAE7FEE701684A69D24352050FD4BD
:103300006FF480624A61002140F8301F202242732E
:103310008173026942F00402026101730120704767
:10332000002070472DE9F843044600680D46DDE9AA
:10333000089701689846164641F4807101604B4633
:1033400000224FF001112046009700F06BF848B1C1
:1033500020680068C00502D54FF400702064032087
:10336000BDE8F883216805F0FE0008613B464A4647
:103370001549204600F09EF888B9206841698069A7
:1033800000903A464946204600F0F2F848B1206CD9
:10339000042804D12068016841F400710160012013
:1033A000DEE7F5B2B8F1010F09D02168300A0861F3
:1033B0003A464946204600F0DBF80028E7D120686D
:1033C00005610020CCE700000200010070B5164640
:1033D0000D4604461EE02046FFF78DFF08B1012090
:1033E00070BD681C16D0FEF7A3FD801BA84200D854
:1033F00085B920684069C04340070BD5002044F8D8
:10340000300F20216173A073216941F020012161F7
:103410002073E4E720684069C0434007DBD4002004
:1034200070BD00002DE9F047984617460D4604464A
:10343000C1F30746DDF820902AE000BFB8F1FF3F56
:1034400026D0FEF775FDA0EB0901414502D8B8F181
:10345000000F1DD12068012E16D0806925EA0000DA
:103460000004000C12D00020B84211D1002044F812
:10347000300F20216173A073216941F02001216187
:1034800020730120BDE8F0874069E7E70120EBE702
:103490002068012E0AD0806925EA00000004000C93
:1034A00006D00020B842C9D00020EBE74069F3E71E
:1034B0000120F7E72DE9F047984616460D460446E9
:1034C0004FF000094FF0200AC1F3074723E02068BE
:1034D0004069C043400515D42068016841F400717B
:1034E000016021686FF480604861C4F8309084F80E
:1034F0003DA084F83E90216C41F00401216484F8E1
:103500003C9021E0701C06D0FEF712FDA0EB0800F5
:10351000B04203D816B1012F1FD021E02068012F3F
:1035200015D0806925EA00000004000C18D000BF07
:1035300044F8309F84F80DA084F80E90216941F082
:103540002001216184F80C900120BDE8F0874069DA
:1035500025EA00000004000CEAD12068406901E07F
:103560002068806925EA00000004000CAFD1ECE778
:1035700070B516460D4604461EE02046FFF7BBFE1A
:1035800008B1012070BD681C16D0FEF7D1FC801B6D
:10359000A84200D885B920684069C04300060BD511
:1035A000002044F8300F20216173A073216941F09D
:1035B000200121612073E4E720684069C0430006D0
:1035C000DBD4002070BD0000094BB0F5807F09D02E
:1035D000B0F5805F06D0402808D101460122054899
:1035E000FEF7A0BC014601221846F9E7704700002B
:1035F000000C024000080240084AB0F5807F09D064
:10360000B0F5805F06D0402807D10146044800BFCE
:10361000FEF780BC01461046FAE77047000C0240F6
:10362000000802407FB500211B48009101910291E2
:10363000184A0391026001244FF480320461C0E90A
:103640000121047680F82010144AC0E90A210225DD
:10365000C561C16080F830404461FEF708F808B1E8
:10366000FDF74BFF07200095CDE9014069460A4868
:10367000FDF754FF08B1FDF740FF0420CDE9000538
:1036800069460548FDF74AFF002801D0FDF735FFE0
:103690007FBD000000200140A40300200100000FB6
:1036A000094808B5016841F4800101600068002202
:1036B00000F48000009005213820FEF763FEBDE88D
:1036C00008403820FEF750BE3038024010B59CB09C
:1036D00000221021012002F0F3F92049086008B906
:1036E000FDF70BFF00220421052002F0E9F91C4937
:1036F000002208600C210A2002F0E2F919491C227C
:10370000086019496846FCF7EEFD0021684601F0A3
:1037100053FC164C14491C2220601C3107A8FCF7EE
:10372000E2FD002107A801F047FC0F4960601C2260
:1037300038310EA8FCF7D7FD00210EA801F03CFCA3
:103740000949A0601C22543115A8FCF7CCFD0021CA
:1037500015A801F031FCE0601CB010BD1400002081
:103760008C0000209000002034630008040000203A
:10377000F0B587B014216846FCF7CEFD254800243B
:10378000016841F080010160016801F0800105914C
:10379000016841F001010160016801F0010105913A
:1037A000016841F002010160016801F00201059128
:1037B000016841F008010160016801F0080105910C
:1037C000016841F0040101600068134E00F004003C
:1037D0004FF488550590002229463046FEF7A2FB9B
:1037E0000E4F002240213846FEF79CFB0095012534
:1037F000CDE90154694630460394FEF793FA402020
:103800000090CDE90154694638460394FEF78AFAE0
:1038100007B0F0BD30380240000C02400008024002
:103820002DE9F04186B014216846FCF775FD274864
:103830000024016841F00201016000684FF4407803
:1038400000F00200224E05900122454641463046D6
:10385000FEF768FB01200095CDE9010403200390E9
:1038600069463046FEF75EFA0025B7150022394654
:103870003046FEF757FB0120FEF78EF9012239464C
:103880003046FEF74FFB0120FEF786F96D1CEDB2C6
:10389000092DEBD341463046FEF790F90E480D490D
:1038A00001600E49C0E901144FF48041C0E90341B1
:1038B00044618461C4610462FEF740FB002801D0CA
:1038C000FDF71BFE06B0BDE8F08100003038024075
:1038D00000040240005400404C040020A086010077
:1038E00010B58CB024216846FCF716FD002415485D
:1038F00009944FF080410A94C0E90014611EC0E9A8
:103900000241046184610320CDE900040120CDE976
:1039100002040494CDE905400794694609480894D7
:10392000FFF75CF908B1FDF7E8FD099409A905481E
:103930000A94FFF71BF8002801D0FDF7DEFD0CB05C
:1039400010BD0000A004002010B58EB00024079424
:10395000089409940A940B941C2168460C94FCF773
:10396000DBFC2348214901600121C0E9011440F634
:103970003301C0E9031480218161FFF73FF808B1EA
:10398000FDF7BBFD4FF48050079007A91848FFF7DB
:10399000B7F808B1FDF7B1FD1548FFF712FB08B104
:1039A000FDF7ABFD0B940BA911480C94FEF7DEFF5D
:1039B00008B1FDF7A2FD6020CDE9000402940022C9
:1039C00069460B480494FFF796FA08B1FDF795FD98
:1039D000042269460648FFF78EFA08B1FDF78DFD0F
:1039E0000348FFF75FFA0EB010BD0000000400406E
:1039F000E80400200C4810B50A4901604FF4E13199
:103A00004160002181600C22C160C0E90412816123
:103A1000C161FFF774FB002803D0BDE81040FDF73B
:103A20006CBD10BD00100140300500200C4810B5E1
:103A30000A4901604FF4E1314160002181600C22AC
:103A4000C160C0E904128161C161FFF758FB002821
:103A500003D0BDE81040FDF750BD10BD004400404C
:103A6000780500200C4810B50A4901604FF4E13197
:103A70004160002181600C22C160C0E904128161B3
:103A8000C161FFF73CFB002803D0BDE81040FDF703
:103A900034BD10BD00480040C0050020FEE7FEE731
:103AA00070B5002404F1B000C0B200F09DF8002011
:103AB00000F09AF8102000F097F80025002000F0A0
:103AC000A5F86D1CEDB2802DF8D3641CE4B2082C6F
:103AD000E8D370BD70B56420FEF75EF8084D002491
:103AE000285D00F081F8641CE4B2182CF8D3FFF7CD
:103AF000D7FFBDE870400021084600F003B8000081
:103B0000A800002010B50446B031C8B200F06CF82F
:103B1000102040EA141000F067F804F00F00BDE830
:103B2000104000F061B800002DE9F041203A002477
:103B30000D468046D6B27F2803D900204D1C804612
:103B4000EDB2102B29460FD0FFF7DCFF164906EB2C
:103B5000460001EB4005285D00F058F8641CE4B213
:103B6000062CF8D3BDE8F081FFF7CCFF0F4F00BF64
:103B700004EB0610385C00F049F8641CE4B2082C31
:103B8000F6D36D1CE9B24046FFF7BCFF5FF00004BE
:103B900004EB06103844007A00F038F8641CE4B2F4
:103BA000082CF5D3DEE70000A4630008CC6500080C
:103BB0002DE9F041984617460E46044600250DE0D3
:103BC000434631462046FFF7AFFF0834E4B2782C75
:103BD00002D90024B61CF6B26D1CEDB27A5D002A43
:103BE000EED1BDE8F081000001B584B00121C8220A
:103BF00004A88DE807000B46002278210248FEF752
:103C000061FA05B000BD00004C04002001B584B08D
:103C10000121C82204A88DE807000B464022782124
:103C20000248FEF74FFA05B000BD00004C0400202A
:103C30001A4E1B4C1B4D8CB0642206A9706802F012
:103C4000EFF80128F8D101F06DFD9DED060A84ED35
:103C5000020A9DED070A84ED030A9DED080A84ED32
:103C6000040A9DED090A85ED020A9DED0A0A85ED1B
:103C7000030A9DED0B0A85ED040A01F073FD18227D
:103C800009A16846FCF72FFB6846FCF75CFB82B293
:103C9000642369460A48FFF7DDFACDE7A00000205B
:103CA0003400002060000020504944207570646199
:103CB000746564207669612071756575650D0A000B
:103CC0003005002010B5502080F31188BFF34F8FCE
:103CD000BFF36F8F02F0E0F918B104494FF0805044
:103CE0000860002080F3118810BD000004ED00E0A2
:103CF00030B593B030216846FCF70EFB14210CA8B8
:103D0000FCF70AFB1B480025016841F08051016067
:103D1000006800F0805011901748016841F480411C
:103D200001600068022400F480401190012000909E
:103D3000000401908001CDE9064008AA0420A821D2
:103D400082E813000B906846FEF758FC70B90CA986
:103D50000F2081E831004FF4A0500F90E002109046
:103D600005210CA8FEF740FB002801D0FDF7C5FB9C
:103D700013B030BD40380240007000400248016876
:103D800041F470010160704788ED00E00148FEF7E2
:103D9000F1BF000008060020F0B50268274B284D4F
:103DA000284E294F294C4FF0804C984209D060454D
:103DB00007D0A84205D0B04203D0B84201D0A042FB
:103DC00004D122F0700E4A6842EA0E0298421BD0DB
:103DD000604519D0A84217D0B04215D0B84213D0D0
:103DE000A04211D01A4DA8420ED01A4DA8420BD0B5
:103DF000194DA84208D0194DA84205D0184DA84227
:103E000002D0184DA84203D122F44075CA682A4353
:103E10004D6922F080022A438D68C5620D68856273
:103E2000984201D0A04201D109690163016841F0C3
:103E300004010160012141610260F0BD0000014008
:103E40000004004000080040000C00400004014055
:103E5000004001400044014000480140001800407B
:103E6000001C00400020004010B501F01F0301219C
:103E7000046A99408C430462016A9A4011430162CA
:103E800010BD10B5846842EA032224F47F440A433B
:103E90002243826010BD826822F070020A4342F021
:103EA0000701816070470000F0B5036A026A22F0E2
:103EB0000102026242688469124E24F073050C68A4
:103EC0002C4323F002058B682B430D4DA84201D0F3
:103ED000B04205D123F00807CB683B4323F004032D
:103EE000A84201D0B04205D14D6922F44072154379
:103EF0008A692A4342608461496841630362F0BD74
:103F00000000014000040140F0B5026A036A23F09A
:103F100010030362436884690D6824F4E64444EAAC
:103F200005248D6822F0200242EA05120F4D104E42
:103F3000A84201D0B04206D1CF6822F0800242EA06
:103F4000071222F04002A84201D0B04207D14D69C9
:103F500023F4406343EA85038D6943EA85034360A4
:103F60008461496881630262F0BD00000000014085
:103F700000040140F0B5026A036A23F4807303620F
:103F80004368C46922F4007224F073050C68124E71
:103F90002C438D6842EA05220E4DA84201D0B04262
:103FA00006D1CF6822F4006242EA072222F480623E
:103FB000A84201D0B04207D14D6923F4405343EAEF
:103FC00005138D6943EA05134360C4614968C16301
:103FD0000262F0BD000001400004014030B5046AF7
:103FE000026A22F4805202624268C3690D6823F4B7
:103FF000E64343EA05238D6824F4005444EA05347B
:10400000084DA84202D0084DA84204D14D6922F4BF
:10401000804242EA85124260C361496801640462D9
:1040200030BD0000000001400004014010B5036AEB
:10403000046A24F001040462846924F0F00444EA70
:10404000021423F00A020A438461026210BD10B513
:10405000036A046A24F010040462846923F0A00354
:1040600024F4704444EA023243EA0111826101629D
:1040700010BD01680C3151E8002F22F4907241E824
:104080000023002BF5D10168143151E8002F22F0F4
:10409000010241E80023002BF5D1016B012909D170
:1040A00001680C3151E8002F22F0100241E8002392
:1040B000002BF5D1202180F84210002101637047C8
:1040C00070B5044600680169E26821F4405111436B
:1040D00001612169A068E2690843616911430843ED
:1040E0002168CA6849F20C639A430243CA60206897
:1040F0004169A26921F4407111434161314920684D
:10410000884202D03049884202D1FEF737FA01E0F6
:10411000FEF724FAE2690023192164253226B2F55C
:10412000004F626828D0A0FB0101930F9200FCF7BA
:10413000A9F80146B0FBF5F06FF01802504301EB0F
:10414000800006EB0010B0FBF5F000F0F002B1FBD0
:10415000F5F002EB0012B1FBF5F06FF018035843D5
:1041600001EB800006EB0010B0FBF5F000F00F0053
:1041700021681044886070BDA0FB010192185B416A
:10418000FCF780F80146B0FBF5F00201B1FBF5F059
:104190006FF01803584301EB800006EBC000B0FB42
:1041A000F5F000F0F80002EB4002B1FBF5F05843E7
:1041B00001EB800006EBC000B0FBF5F000F007005B
:1041C000D6E7000000100140001401402DE9F8433B
:1041D000984617460D460446089E24E0701C22D0DF
:1041E000FDF7A6FEA0EB0800B0421AD8CEB12068B9
:1041F000C168490717D5802D15D0402D13D001680F
:10420000C94309070FD40168002540680090204683
:10421000FFF72FFF0820606484F840500120BDE8BC
:10422000F8830320FBE72068006835EA000004D02B
:104230000020B842D2D00020F1E70120F9E70000C9
:104240001CB500221821012001F03AFC0F494860FA
:1042500098B100210220CDE900010B46C2010CA15A
:104260000D4801F0B3FE01280FD0502080F31188D3
:10427000BFF34F8FBFF36F8FFEE7502080F311889D
:10428000BFF34F8FBFF36F8FFEE71CBDA000002070
:104290005049445570640000313C0008FEE70000BE
:1042A0000FB47CB50C0009AD01D0611E00E0002107
:1042B000CDE90001064B6A462946089800F008F946
:1042C000002C02D0009A002111707CBC5DF814FB18
:1042D000D74B00080FB4084B10B504A902AA0398E5
:1042E00000F0F6F8044602A9002000F07FFC20460A
:1042F00010BC5DF814FB0000ED4B00080907090E27
:10430000002804DB00F1E02080F80014704700F082
:104310000F0000F1E02080F8141D704702E008C88B
:10432000121F08C1002AFAD170477047002001E02F
:1043300001C1121F002AFBD1704700002DE9FF5F69
:1043400082B00021DDE90430020DDDF840B0034306
:1043500018D044F61050A2F2FF32424315141198BF
:1043600001281FD0A5EB0B00401C5FEA000A4FF0AC
:1043700000064E4FDFF83891B046504615D5CAF1C9
:10438000000413E0119801244AA3012801D16FEA27
:104390000B010298119AC0E90031C0E9024206B04F
:1043A000BDE8F09FCBF10000DFE704460021404A62
:1043B000491842EB0450CDE9001012E0E00707D0A5
:1043C00032463B4640464946FCF73FFB804689461D
:1043D00032463B4610461946FCF737FB06460F4669
:1043E0006410002CEAD1DDE90401DDE90023BAF113
:1043F000000F06DAFCF729FB42464B46FCF725FB8B
:1044000005E0FCF794FB42464B46FCF790FB044664
:104410000E460022284BFCF71DFC03D84FF0FF305E
:10442000014607E00022254B20463146FCF766FA9C
:10443000FCF7F8FB102409E0002C0ADB0A22002319
:10444000FBF720FF039B30321A55641E50EA01022D
:10445000F2D1641C039AC4F111031444119A012A85
:1044600003D0012208430DD10AE0084304D0002004
:104470004FF0110B119072E7A3EB0B056D1E0DE0D1
:104480005B4504DD4FF0000205F1010504E003DAAD
:104490004FF00002A5F10105002AECD00298119915
:1044A000C0E90231C0E9004579E70000000014408E
:1044B0000000F03F300000000000F0430000E03F4B
:1044C00030380A2801D201207047002070470000D0
:1044D0002DE9FF4F95B09A46884606460025EEE145
:1044E000252877D100242746F94A0121039400E0CA
:1044F000044316F8013F203B01FA03F01042F7D1C4
:1045000030782A2811D06FF02F033078A0F13002D4
:10451000092A16D8039A44F0020402EB820203EB44
:1045200042021044761C0390EFE758F8042B0392E4
:10453000002A03DA504244F40054039044F0020489
:10454000761C30782E2816D116F8010F44F004049A
:104550002A280DD06FF02F023078A0F13003092BFC
:1045600009D807EB870302EB4303C718761CF3E770
:1045700058F8047B761C30786C280FD006DC4C2869
:1045800017D068280DD06A2814D104E0742810D000
:104590007A280FD10DE044F400140AE044F48014AA
:1045A00001E044F440147278824202D104F5801490
:1045B000761C761C307866280BD013DC582877D010
:1045C00009DC002875D04528F6D04628F4D04728C5
:1045D0001AD193E118E0632835D0642879D0652892
:1045E00012D18BE1702873D008DC6728F1D06928DC
:1045F0006FD06E280DD06F2806D1ACE073282CD078
:10460000752874D0782853D05246179990476D1C5E
:1046100054E1C4F30250022809D003280DD0D8F881
:10462000001004280DD00D6008F1040846E1D8F808
:104630000010EA17C1E90052F6E7D8F800100D8023
:10464000F2E70D70F0E718F8041B8DF80010002059
:104650008DF80100EB46012003E058F804BB4FF051
:10466000FF3061074FF0000102D40DE009F10101B4
:104670008946B9420FDA8145F8DB1BF80910002999
:10468000F4D108E009F1010189468142FADB1BF807
:1046900009100029F6D103985346A0EB09072146DB
:1046A0003846179A00F080FA284400EB090507E025
:1046B00044E008E10DE01BF8010B524617999047C2
:1046C000B9F10109F7D2534621463846179AF2E06C
:1046D00039E00A21C4F302524FF0000B0091022A84
:1046E00006D058F8040BC117032A09D00AE023E0CA
:1046F00008F1070020F00702F2E80201904605E009
:1047000000B2C117042A01D140B2C117002906DA4C
:104710000A460021404261EB02012D2202E02205FF
:1047200004D52B228DF80420012203E0E20701D0FA
:104730002022F7E7914657E00A2100E010214FF0D0
:10474000000B00910BE010214FF0000B44F004042B
:104750000827009103E008204FF0000B0090C4F3FD
:104760000252022A05D058F8040B0021032A08D06F
:1047700008E008F1070020F00702F2E80201904685
:1047800003E080B2042A00D1C0B24FF00009220732
:104790002AD53278702A07D0DDF800C08CF0100CD2
:1047A0005CEA0B0C05D00EE040228DF804200122BB
:1047B00008E050EA010306D030238DF804308DF86C
:1047C000052002229146009B83F0080353EA0B0365
:1047D0000AD150EA010201D1620705D530228DF8D5
:1047E00004204FF001097F1E3278582A04D039A2E4
:1047F0000C920CAA02920BE03BA2F9E75B46009AEE
:10480000FBF740FD0C9B9B5C029A521E02921370B8
:1048100050EA0102F2D1029804A9081A00F1200B13
:10482000600702D524F4803400E001275F4502DDF3
:10483000A7EB0B0000E0002000EB0B0100900398B9
:104840004944401A0390E00306D453462146179A80
:10485000039800F0A9F90544002706E001A8524694
:10486000C05D179990476D1C7F1C4F45F6DBE00338
:104870000CD553462146179A039800F095F9054444
:1048800004E030205246179990476D1C0099481E4D
:1048900000900029F5DC08E0029802995246007861
:1048A000491C0291179990476D1CBBF10001ABF1B7
:1048B000010BF1DC5BE100F065F90544761C307812
:1048C00000287FF40DAE19B02846BDE8F08F000037
:1048D00009280100303132333435363738396162D6
:1048E000636465660000000030313233343536379A
:1048F000383941424344454600000000600700D477
:10490000062708F1070020F00700F0E802238046A0
:1049100003F0004C5FEA0C0001D097A009E02005ED
:1049200001D596A005E0E00701D095A001E0AFF227
:104930004C001390307823F0004365280CD006DC3F
:10494000452809D046281DD047287FD13BE066285E
:1049500018D067287AD136E00021112F01DB112011
:1049600000E0781CCDE9000104A90CA8FFF7E6FCE3
:10497000DDE90D010C9A4FF0000B07F101091092CF
:1049800000914EE04FF000400097CDE9011004A9DE
:104990000CA8FFF7D3FCDDE90D020C9B0F994FF03B
:1049A000000B91461093009211B9791C00EB01099C
:1049B000B7EB090003D4C0F1FF3B07F10109A9EBF4
:1049C0000700019042E0012F00DA01270021112F9A
:1049D00001DD112000E03846CDE9000104A90CA852
:1049E000FFF7ACFCDDE90D010C9A00914FF0000BD4
:1049F000B946109221070FD4009A4A4503DA91462E
:104A000001E0A9F10109B9F1010F05DD109AA9F141
:104A10000101515C3029F4D0B84202DA10F1040FE0
:104A200003DA0121CDE9011010E0002803DC834402
:104A3000A9EB000102E0411C494500DD8946A0EBDD
:104A40000B00401C01904FF000400290200705D45D
:104A50000198484502DB4FF0FF30019000208DF8AF
:104A60004B0002980DF14B07B0F1004F25D002200A
:104A70000C902B200D90029800280CDA40420290F6
:104A80002D200D9007E00A210298FBF7C8FE303177
:104A9000029007F8011D0C99481E0C900029F2DCC9
:104AA00002980028EFD1791E0D980870307800F038
:104AB000200040F0450007F8020D11A8C01BC01DE2
:104AC00002901398007800B1012000EB09010198D1
:104AD00001EBE071029801440398401A401E0390D4
:104AE000E00306D453462146179A039800F05CF879
:104AF00005441398007818B15246179990476D1CD9
:104B0000E00323D553462146179A039800F04CF84A
:104B100005441BE0BBF1000F07DB0098584504DD9E
:104B20001098179910F80B0001E0179930205246A1
:104B3000904701980BF1010B401E05F10105019012
:104B400004D12E205246179990476D1CB9F10001EF
:104B5000A9F10109DEDC05E017F8010B52461799AF
:104B600090476D1C0299481E02900029F4DC5346C0
:104B70002146179A03989EE62D0000002B000000A6
:104B8000200000002DE9F041044600251E4617468E
:104B9000880404D405E039462020B0476D1C641E0B
:104BA000F9D52846BDE8F0812DE9F04104460025FD
:104BB0001E469046C80301D5302700E02027880410
:104BC00004D505E041463846B0476D1C641EF9D552
:104BD0002846BDE8F0814A68002A06D00A68531CBE
:104BE0000B6010704868401E486070470A68531C8C
:104BF0000B601070704700001FB5074C6846FCF74B
:104C0000C1FB022300226946206800F0BFFF0A2092
:104C100000F000FEF2E700001400002070470020C2
:104C200070470000FDF724FBFFF762F8FEF7A0FDD8
:104C3000FEF736FDFEF754FEFEF786FEFEF7DAFEBF
:104C4000FEF7F0FCFEF7ECFDFEF7F0FEFEF70AFFC4
:104C5000022208490848FCF781FDFFF7F1FA9FEDB1
:104C6000070A07A000F082F9FEF730FD00F09FF977
:104C7000FEE7000000000020A4030020A4704541CE
:104C8000746573740000000001460020842900D080
:104C9000C81C704710B504210748FEF7C1F9064843
:104CA0000024006884633C210448FEF71BF8034895
:104CB0000068446210BD0000E8040020A004002049
:104CC00008B5FFF7E7FF074D4FF0FF34224669466E
:104CD000286801F0A5F80128F8D1BDF9000000F01E
:104CE00003F8F3E78C00002070B51549002542F267
:104CF00010720C6840F6330300280CDD1E4610FBD2
:104D000006F090FBF2F082B29A4200D91A46626332
:104D1000086885630EE00DDA4FF2CD7610FB06F0E1
:104D200090FBF2F080B2984200D91846656309689A
:104D3000886370BD086845630868856370BD0000BE
:104D4000E80400209AB0754C4FF001080027A078C5
:104D500000B3FEF7BFFE3220FCF71EFFFEF7A0FEF9
:104D60001420FCF719FFFEF79BFE002110236CA214
:104D70000846FEF71DFF10236DA202210020FEF75A
:104D800017FF4FF4FA6000F00BF9FEF789FEA770E9
:104D900084F80480DFF8A491207800286FD01F22C7
:104DA000674909A8FBF7C3FA8DF8437027706A4674
:104DB00064A109A804ABFBF7E3FA02285FD1002540
:104DC0004E4609E005EB450006EBC0006946FBF7DF
:104DD000C1FA28B16D1CEDB260788542F2D30BE0C8
:104DE00068B2002808DB00EB40009DED040A06EBEA
:104DF000C00080ED040A40E060780C281BD241B26C
:104E000001EB410A401C607006EBCA050F2269469F
:104E10002846FBF78CFA9DED040A85ED040A85F817
:104E2000148016F83A10A1F16100192825D820390C
:104E300006F83A1021E0002505EB450006EBC0001E
:104E400000F118011822FBF74EFA6D1CEDB20B2D84
:104E5000F2D33B4D0F22183D69462846FBF767FA0F
:104E60009DED040A85ED040A96F80801A0F16101A0
:104E7000192902D8203886F8080184F80480FDF743
:104E800057F8A168401A40F6B83188420FD9FDF7AB
:104E90004FF8A0606078042809D9E178091DC9B2EB
:104EA000E170814200D3E77084F8048001E020794A
:104EB00078B300256806010E102325A20020FEF716
:104EC00077FE6D1CEDB2042DF4D30025E0786178F7
:104ED0002844C0B288421BD200EB400109EBC10656
:104EE0003069FBF789FCCDE9000133461CA2202183
:104EF00011A8FFF7D5F96806010E8DF8537010233D
:104F000011AA0020FEF754FE6D1CEDB2042DDDD376
:104F100027711E2000F044F83EE7000094000020B6
:104F2000202053797374656D20426F6F7400000008
:104F300020205375636365737321000050060020C1
:104F400070070020255B5E3A5D3A25660000000090
:104F50002020202020202020202020202020200071
:104F6000252E3130733A252E336600001CB50446D9
:104F700010EE100AFBF740FCCDE90001234604A225
:104F800020210548FFF78CF90449012008701CBD59
:104F900025733A252E326600700700209400002009
:104FA00010B500B9012000F035FC002010BD10B58F
:104FB00000F07CFC002010BD7FB50D460446416921
:104FC000B0F9080081B1A16971B1FFF75DFED4E9C4
:104FD00005128DE80700D4E900102B46226901F084
:104FE00022F8039004B070BDFFF74EFE03A9CDE98F
:104FF0000001208A2B4682B2D4E9001000F0E6FFBF
:10500000012801D00020EDE70398EBE72DE9F041FE
:10501000184C0F460546E6682068001D00F030FB7E
:1050200038B9206890F82C1001208840216981430C
:105030002161681C07D137B12168BDE8F0410E48F5
:10504000091D00F063BB20683544B5424560216806
:1050500005D2206CBDE8F041091D00F03FBBE06BBC
:10506000091D00F03BFBA06A854200D2A562BDE8A5
:10507000F0810000D00000206C0800202DE9F041F4
:10508000054600F04FFB2E4CA068401CA060206835
:105090002C4F10B1606940B32DE02560A068012855
:1050A00029D1002606EB860007EB800000F008FB04
:1050B000761C072EF6D323488C3000F001FB2148E4
:1050C000A03000F0FDFA1F48B43000F0F9FA1D4896
:1050D000C83000F0F5FA1B48DC3000F0F1FA19484E
:1050E0008C30E0631430206405E02068E96AC06A0F
:1050F000884200D82560606A401C6062A864E96A42
:105100000120226988401043206101EB810007EBF8
:105110008000291D00F0FAFA00F024FB60690028E5
:105120000CD02068E96AC06A884207D206494FF06D
:1051300080500860BFF34F8FBFF36F8FBDE8F081E1
:10514000D00000209007002004ED00E030B4026C95
:105150000B46002A0BD0C1681144C1608468A1428B
:1051600001D30168C16030BC1846FBF7BCB830BC45
:1051700070472DE9F041856B174604460026026C06
:1051800082B1C7B1E068FBF7AEF8E168206C091A9C
:10519000E1602268914202D2A168081AE060022F01
:1051A00016D017E02068A8B9A06800F0DBFF06461B
:1051B0000020A0600EE06068FBF795F8216C606845
:1051C00008446060A168884204D32068606001E000
:1051D00005B16D1E6D1CA5633046BDE8F08110B5AC
:1051E000044690F8610058B101280CD002280FD075
:1051F000502080F31188BFF34F8FBFF36F8FFEE70E
:10520000206B00F0C3FA2046BDE8104000F0BEBAA3
:1052100010BD000010484FF47051420706D0C01D69
:105220000D4920F00700411AC1F570510B4A0023C7
:105230000144C2E900030839183A21F0070111605E
:105240004B600B600B1AC0E9001393604FF00040F5
:105250005360506170470000800800202C0100203E
:10526000144E154CA6F1C8074FF08058DFF84C904B
:1052700012E000BF00F056FAF068C568281D00F083
:10528000FFF9A068401EA0606068401E606000F0EA
:1052900069FA2846FFF7A3FF60680028EAD138685A
:1052A0000128F9D9C9F80080BFF34F8FBFF36F8F82
:1052B000F2E7000058080020D000002004ED00E0D4
:1052C00070B51D46049C51B1C4F80020C4E90F011B
:1052D0000121204600F016FC84F84C5070BD24607B
:1052E000F4E72DE9F05F8846DDE90B941546834627
:1052F00091009A460A9EA522206BFBF706F86FF0F4
:105300000301206B01EB8501084420F007077807B3
:1053100007D0502080F31188BFF34F8FBFF36F8FFA
:10532000FEE700256764B8F1000F0ED000202218B8
:1053300018F8001082F8341018F8001011B1401C51
:105340001028F4D384F8435001E084F83450072E39
:1053500000D30626E662C4E91465201D00F0BBF9FF
:1053600004F1180000F0B7F92461C6F10700646287
:10537000A061A565E56584F86050524659463846F7
:1053800000F00AF92060B9F1000F01D0C9F800401F
:10539000BDE8F09F30B5114900E011460A6882422D
:1053A000FBD34B685C18844203D1406818444860C2
:1053B000084643681C18944209D1084C183C2468DC
:1053C000A24209D052681A4442600A681268026018
:1053D000814200D0086030BD0460F9E72C01002054
:1053E00010B5044600F09EF9A06B28B15FF00004F0
:1053F00000F0B8F9204610BD0124F9E70648C16B5A
:10540000096829B1C16BC968C96849688162704778
:105410004FF0FF31FAE70000D00000200848406854
:10542000401C4FF0500080F3118804D0BFF34F8F21
:10543000BFF36F8FFEE7BFF34F8FBFF36F8FFEE7B2
:10544000340100202DE9F041044600F06BF994F995
:10545000455004F1240609E0606A48B1304600F086
:10546000CDFE08B100F004FA6D1E6DB2002DF3DC24
:105470004FF0FF3684F8456000F074F900F052F9FF
:1054800094F9445004F1100709E0206948B1384606
:1054900000F0B4FE08B100F0EBF96D1E6DB2002D06
:1054A000F3DC84F84460BDE8F04100F05BB9000033
:1054B0002DE9F0410546002700F030FA354E3068FE
:1054C00008B9FFF7A7FE7069054216D1ADB10835DE
:1054D00068070ED005F00700C0F108000544680712
:1054E00007D0502080F31188BFF34F8FBFF36F8F29
:1054F000FEE715B17068854202D900F0B9FE39E0C7
:105500002448183001460C6801E020460C466168CA
:10551000A94202D221680029F7D131688C42ECD02F
:1055200007682168016060680837411B10290ED99F
:105530006019420707D0502080F31188BFF34F8FC6
:10554000BFF36F8FFEE741606560FFF723FF61687F
:105550007068401A7060B268904200D2B0607069A2
:1055600001430020C4E90001F068401CF06000F035
:105570007FFE0FB900F0A2F8780707D0502080F323
:105580001188BFF34F8FBFF36F8FFEE73846BDE83A
:10559000F08100001401002010B5031F4FF080744B
:1055A0001C601B1F21F001011960191F044B0B60C7
:1055B00014390A60091F6FF0020244380A6010BDF6
:1055C0001D5400089FED051A60EE810A9FED041A34
:1055D00040EE010AB0EE600A704700006666663F62
:1055E000CDCCCC3DAAB0DFF864A0642000F012F965
:1055F000002226A9DAF8000000F078FB0128F4D197
:105600002998FBF7F9F8804689462798FBF7F4F8C4
:1056100006460F462898FBF7EFF804460D462698F5
:10562000FBF7EAF88DE8F00341EC100B08A153EC0E
:10563000102B06A8FEF74EFE06A8FAF784FE82B2EB
:10564000642306A90D48FDF705FECEE714000020EF
:1056500061313A252E3166202077313A252E316688
:105660002020207C2061323A252E3166202077329E
:105670003A252E316620200D0A000000300500205A
:10568000D0E9013201699A60D0E901235A604A6881
:10569000824201D182684A60002202610868401E8D
:1056A0000860086870470000034B036003F1640062
:1056B00008608020106070474001002070477047EC
:1056C00000F108014FF0FF32C0E90112C160016131
:1056D00000210160704700210161704730B50B68FF
:1056E0005A1C02D000F1080202E0026904E02246DE
:1056F000546825689D42FAD953684B6099608A6066
:10570000516008610168491C016030BD42684A600F
:1057100093688B6093685960916008610168491CC7
:1057200001607047502080F31188BFF34F8FBFF3A3
:105730006F8F0A494868401C486001280CD108480E
:10574000006810F0FF0F07D0502080F31188BFF3DE
:105750004F8FBFF36F8FFEE77047000034010020CA
:1057600004ED00E00849486828B1401E486001D1B6
:1057700080F311887047502080F31188BFF34F8F5A
:10578000BFF36F8FFEE700003401002070B50028E2
:105790002AD0164DA0F1080460686969084207D153
:1057A000502080F31188BFF34F8FBFF36F8FFEE758
:1057B00022683AB1502080F31188BFF34F8FBFF3B6
:1057C0006F8FFEE78843606000F0A8F86068696842
:1057D000084468602046FFF7DDFD2869401C286109
:1057E000BDE8704000F044BD70BD00001401002011
:1057F0004FF0E02000210161816105494FF47A7288
:105800000968B1FBF2F1491E41610721016170474E
:10581000CC00002010B5020014D00F48006B38B146
:10582000502080F31188BFF34F8FBFF36F8FFEE7D7
:1058300000F074F800211046FFF7E8FB00F018FDB7
:10584000002807D105494FF080500860BFF34F8F03
:10585000BFF36F8F10BD0000D000002004ED00E00A
:1058600002490A6A0260C96841607047D00000209E
:1058700001490120C8617047D000002010B50C46D6
:1058800050B1094909681831FFF728FF2046BDE8E3
:1058900010400121FFF7BABB502080F31188BFF3FD
:1058A0004F8FBFF36F8FFEE7D000002010B586B09A
:1058B0000024039405AA04A903A80494FFF7F4FEA6
:1058C000DDE903010094CDE9011000230FA1114887
:1058D000059A00F0A8FB10490028C86213D0502098
:1058E00080F31188BFF34F8FBFF36F8F4FF0FF30FE
:1058F000886201204861CC60FFF790F906B0BDE8EE
:10590000104000F063B806B010BD000049444C459B
:105910000000000061520008D00000200248016B26
:10592000491C016370470000D000002010B5254CD1
:10593000206B10B10120E06110BD0020E061FFF795
:105940006EF9A063626B904204D92168821A8B6D54
:105950001A448A65606320684FF0A531006B0268C5
:105960008A4208D142688A4205D182688A4202D1BD
:10597000C068884204D0216820683431FFF79FFE58
:1059800020691149B0FA80F0C0F11F0000EB8000DF
:1059900051F820206AB101EB800000F10802416853
:1059A00049684160914201D149684160C8682060FE
:1059B00010BD502080F31188BFF34F8FBFF36F8F5E
:1059C000FEE70000D0000020900700201CB53748FB
:1059D0000168374A914207D1502080F31188BFF304
:1059E0004F8FBFF36F8FFEE700683149491E884231
:1059F00007D1502080F31188BFF34F8FBFF36F8F13
:105A0000FEE72C4908780190FF20087008788DF88F
:105A100000009DF800009DF8002000F0F00090428A
:105A200007D0502080F31188BFF34F8FBFF36F8FE3
:105A3000FEE79DF80000204C00F050002070072089
:105A4000A06005E09DF8002052008DF80020401E67
:105A50009DF800201206F5D4A060032807D050203E
:105A600080F31188BFF34F8FBFF36F8FFEE74FF4C2
:105A70004070A060019808700C482030016841F423
:105A800070010160016841F070410160FFF7B0FEF4
:105A900000206060FAF7A8FB0848016841F0404127
:105AA0000160FAF78DFB00201CBD000000ED00E056
:105AB00071C20F4100E400E03401002034EF00E047
:105AC000F8B517460E46050013D005FB06F050301A
:105AD000FFF7EEFC04000AD0002084F8460004F131
